:1000000015C1000043C1000041C100003FC1000014
:100010003DC100003BC1000039C1000037C10000F4
:1000200035C1000023C6000021C600001FC6000025
:100030002DC100002BC1000029C1000027C1000014
:1000400025C1000023C1000021C100001FC1000024
:100050001DC100001BC1000019C10000BDC500008A
:1000600015C1000083C5000058C500000FC1000085
:100070000DC100000BC1000009C1000007C1000054
:1000800005C1000003C1000001C10000FFC0000065
:10009000FDC00000FBC00000F9C00000F7C0000078
:1000A000F5C00000F3C00000F1C00000EFC0000088
:1000B000EDC00000EBC00000E9C00000E7C0000098
:1000C000E5C00000E3C00000E1C00000DFC00000A8
:1000D000DDC00000DBC00000D9C00000D7C00000B8
:1000E000D5C00000C002C302B202B602BC02FA02CE
:1000F000C702CB02D102D502D902DF02E302E70236
:10010000FA02ED02F102F5020000210024002700AE
:100110002A002D0030003300010100000401070116
:100120000A0100002200250028002B002E003100CB
:10013000340002010000050108010B01000020004D
:100140002300260029002C002F00320000010000AF
:10015000030106010901050505050705080808084A
:10016000020202020A0A080804040404010101014F
:10017000010101010303030303030303040707074A
:100180000C0C0C0C0C0C0C0C0202020206060606EF
:10019000060606060B0B0B0B0B0B0B0B01021020BC
:1001A00020080810204010204080020102010804AD
:1001B0000201010204081020408080402010080441
:1001C000020180040201804020100804020108049A
:1001D00002010102040810204080010204081020DE
:1001E000408000000A0B02090C0D0E0807030401F1
:1001F00000000000000000000000000000000000FF
:1002000000000000000000000000000000001211CB
:1002100010000000000000000000000000000000CE
:10022000000000000000000040068C0911241FBEE1
:10023000CFEFD1E2DEBFCDBF00E00CBF24E0AEE3E4
:10024000B3E001C01D92AC33B207E1F713E0A0E0C8
:10025000B2E0EAE3F8E100E00BBF02C007900D92C4
:10026000AE33B107D9F711E0C5E1D1E000E006C037
:1002700021970109802FFE010E94E609C431D107B0
:1002800080E00807A9F73FD50C940C0CB9CEEDE43B
:10029000F3E0A089B18982E08C93A485B5851C9296
:1002A000A685B7858FEC8C93108EA489B58986E0DE
:1002B0008C93A289B3898C9180618C93A289B38934
:1002C0008C9188608C93A289B3898C9180688C937F
:1002D0000288F389E02D80818F7D80830895CF92FD
:1002E000DF92EF92FF920F931F93CF93DF936C01F6
:1002F0007A018B01C0E0D0E0CE15DF0581F0D80196
:100300006D918D01D601ED91FC910190F081E02D70
:10031000C6011995892B11F02196EECF7E01C701F8
:10032000DF91CF911F910F91FF90EF90DF90CF90D1
:100330000895FC01538D448D252F30E0842F90E0EB
:10034000821B930B541710F0CF96089501970895D0
:10035000FC01918D828D981761F0828DDF01A80FCD
:10036000B11D5D968C91928D9F5F9F73928F90E0EF
:1003700008958FEF9FEF0895FC01918D828D98175E
:1003800031F0828DE80FF11D858D90E008958FEF9B
:100390009FEF0895FC01918D228D892F90E0805C64
:1003A0009F4F821B91098F73992708958DE493E0E5
:1003B000F1DF21E0892B09F420E0822F0895FC0170
:1003C000848DDF01A80FB11DA35ABF4F2C91848DDE
:1003D00090E001968F739927848FA689B7892C9313
:1003E000A089B1898C91837080648C93938D848D66
:1003F000981306C00288F389E02D80818F7D808369
:100400000895EF92FF920F931F93CF93DF93EC0128
:1004100081E0888F9B8D8C8D981305C0E889F989C0
:10042000808185FD25C0F62E0B8D10E00F5F1F4FDC
:100430000F731127E02E8C8DE8120BC00FB607FC4E
:10044000FACFE889F989808185FFF5CFCE01B7DF42
:10045000F2CF8B8DFE01E80FF11DE35AFF4FF082C2
:100460009FB7F8940B8FEA89FB89808180620AC06C
:100470009FB7F894EE89FF896083E889F9898081C4
:100480008370806480839FBF81E090E0DF91CF9193
:100490001F910F91FF90EF900895CF93DF93EC01A0
:1004A000888D8823C1F0EA89FB89808185FD05C09C
:1004B000A889B9898C9186FD0EC00FB607FCF5CFCF
:1004C000808185FFF2CFA889B9898C9185FFEDCF16
:1004D000CE0175DFE8CFDF91CF91089580E090E005
:1004E000892B19F063DF811125C080E090E0892B12
:1004F00041F080E090E0892B21F00E940000811102
:100500001CC080E090E0892B41F080E090E0892BD6
:1005100021F00E940000811113C080E090E0892B3F
:10052000A1F080E090E0892B81F00E940000811111
:100530000AC008950E940000D8CF0E940000E1CFB9
:100540000E940000EACF0C940000089590E0FC01A6
:100550003197E231F10508F04DC08827EE58FF4F82
:100560008F4F34C7809180008F7703C080918000C7
:100570008F7D80938000089580918000877FF9CFE0
:1005800084B58F7702C084B58F7D84BD0895809136
:10059000B0008F7703C08091B0008F7D8093B00052
:1005A0000895809190008F7707C0809190008F7D93
:1005B00003C080919000877F809390000895809180
:1005C000A0008F7707C08091A0008F7D03C080912D
:1005D000A000877F8093A0000895809120018F77ED
:1005E00007C0809120018F7D03C080912001877F0B
:1005F000809320010895CF93DF93282F30E0F901F5
:10060000EE51FE4F8491F901E456FE4FD491F90169
:10061000EA5AFE4FC491CC2389F0811197DFEC2F69
:10062000F0E0EE0FFF1FE45CFE4FA591B491EC915A
:10063000ED2381E090E021F480E002C080E090E0D2
:10064000DF91CF9108951F93CF93DF93282F30E050
:10065000F901EE51FE4F8491F901E456FE4FD49119
:10066000F901EA5AFE4FC491CC23B9F0162F81113B
:100670006DDFEC2FF0E0EE0FFF1FEE5DFE4FA5915A
:10068000B4919FB7F894111104C08C91D095D823E0
:1006900002C0EC91DE2BDC939FBFDF91CF911F91C5
:1006A0000895CF93DF9390E0FC01E456FE4F249130
:1006B000FC01EA5AFE4F8491882361F190E0880F93
:1006C000991FFC01E85FFE4FC591D491FC01EE5DDE
:1006D000FE4FA591B491611109C09FB7F89488812C
:1006E000209582238883EC912E230BC0623061F425
:1006F0009FB7F8948881322F309583238883EC91BB
:100700002E2B2C939FBF06C08FB7F894E8812E2B19
:1007100028838FBFDF91CF9108953FB7F8948091E0
:10072000450390914603A0914703B091480326B535
:10073000A89B05C02F3F19F00196A11DB11D3FBF19
:10074000BA2FA92F982F8827820F911DA11DB11DA7
:10075000BC01CD0142E0660F771F881F991F4A95A3
:10076000D1F708958F929F92AF92BF92CF92DF926E
:10077000EF92FF92D2DF4B015C0188EBC82E8BE039
:10078000D82EE12CF12CC9DFDC01CB0188199909A5
:10079000AA09BB09883E9340A105B105A0F321E059
:1007A000C21AD108E108F10888EE880E83E0981E8D
:1007B000A11CB11CC114D104E104F10421F7FF9084
:1007C000EF90DF90CF90BF90AF909F908F90089563
:1007D0002FB7F894609141037091420380914303D5
:1007E000909144032FBF0895089580E090E008950C
:1007F0006115710579F0FB0101900020E9F731974F
:10080000AF01461B570BDC01ED91FC910280F38197
:10081000E02D199480E090E00895CF93DF93FC01E0
:1008200044815581608171818DE493E058DDEC0154
:1008300065E472E08DE493E0DBDF8C0F9D1FDF91B8
:10084000CF9108958F929F92AF92BF92EF92FF92B5
:100850000F931F93CF93DF93CDB7DEB7A1970FB65A
:10086000F894DEBF0FBECDBF7C01FA01CB0119A207
:10087000223008F42AE08E010F5D1F4F822E912C4A
:10088000A12CB12CBF01A50194017ED5F901CA01AB
:10089000015011096A3014F4605D01C0695CD8012F
:1008A0006C93232B242B252B69F7B801C701A0DFFC
:1008B000A1960FB6F894DEBF0FBECDBFDF91CF91EA
:1008C0001F910F91FF90EF90BF90AF909F908F90EE
:1008D0000895CF92DF92EF92FF92CF93DF936C0156
:1008E000990FEE08FF08F7FE13C06DE28DE493E068
:1008F00088DDEC0144275527BA014C195D096E09C2
:100900007F092AE08DE493E09DDFC80FD91F07C05F
:100910002AE0B701A6018DE493E094DFEC0165E4E1
:1009200072E08DE493E064DF8C0F9D1FDF91CF9127
:10093000FF90EF90DF90CF9008950F931F93CF9388
:10094000DF93EC0155DF8C0165E472E0CE0150DFEE
:10095000800F911FDF91CF911F910F91089568E152
:1009600072E08DE493E0E9DF61E084E06CDE61E059
:1009700085E069DE61E086E066DE61E083E063CE0B
:1009800037CF0F931F93CF93DF93EC018881998129
:10099000009729F02A813B812617370780F48B01C5
:1009A0006F5F7F4F3CD6009761F0998388831B83EC
:1009B0000A832C813D81232B11F4FC01108281E0FC
:1009C00001C080E0DF91CF911F910F910895EF92C8
:1009D000FF920F931F93CF93DF936115710511F46D
:1009E00080E01AC041155105B1F07B01EC018C810A
:1009F0009D818A01080F191FB801CE01C2DF88232B
:100A000079F3288139818C819D81B701820F931FF1
:100A1000FCD61D830C8381E0DF91CF911F910F9154
:100A2000FF90EF900895CF93DF93EC018881998137
:100A3000009709F06BD5198218821D821C821B82D7
:100A40001A82DF91CF910895EF92FF920F931F9337
:100A5000CF93DF93EC017B018A01BA0192DF811110
:100A600003C0CE01E0DF06C01D830C83B70188817F
:100A70009981CBD6CE01DF91CF911F910F91FF903D
:100A8000EF900895EF92FF920F931F93CF93DF9310
:100A9000CDB7DEB762970FB6F894DEBF0FBECDBFFD
:100AA0008C01CB01F801118210821382128215820F
:100AB00014824AE09E012F5F3F4F7901B90131D482
:100AC000F70101900020E9F73197AF014E195F0956
:100AD000B701C801B9DF62960FB6F894DEBF0FBE4A
:100AE000CDBFDF91CF911F910F91FF90EF900895AF
:100AF000FC01118210821382128215821482611508
:100B0000710549F0FB0101900020E9F73197AF0131
:100B1000461B570B99CF089562D61F920F920FB6BE
:100B20000F9211240BB60F922F933F934F935F9325
:100B30006F937F938F939F93AF93BF93EF93FF93A5
:100B40008DE493E03CDCFF91EF91BF91AF919F91D9
:100B50008F917F916F915F914F913F912F910F9066
:100B60000BBE0F900FBE0F901F9018951F920F9203
:100B70000FB60F9211240BB60F922F938F939F9362
:100B8000EF93FF93E0915D03F0915E038081E0912C
:100B90006303F091640382FD12C09081809166032B
:100BA0008F5F8F7320916703821751F0E091660386
:100BB000F0E0E35BFC4F958F8093660301C080817A
:100BC000FF91EF919F918F912F910F900BBE0F90FE
:100BD0000FBE0F901F9018951F920F920FB60F9295
:100BE00011242F933F938F939F93AF93BF93809143
:100BF000410390914203A0914303B091440330918B
:100C0000400323E0230F2D3720F40196A11DB11DD1
:100C100005C026E8230F0296A11DB11D20934003B5
:100C20008093410390934203A0934303B093440302
:100C30008091450390914603A0914703B0914803EA
:100C40000196A11DB11D8093450390934603A09387
:100C50004703B0934803BF91AF919F918F913F910C
:100C60002F910F900FBE0F901F9018951F920F920B
:100C70000FB60F9211240F900FBE0F901F90189572
:100C8000EDE4F3E01382128288EE93E0A0E0B0E09E
:100C900084839583A683B7838AE092E091838083DF
:100CA00085EC90E09587848784EC90E09787868731
:100CB00080EC90E0918B808B81EC90E0938B828B29
:100CC00082EC90E0958B848B86EC90E0978B868B02
:100CD000118E128E138E148EEAEEF3E016821782B6
:100CE0001086118612861386148615861686178638
:100CF000108A118A128A138A148A158A6FE272E0A6
:100D000082E394E0F5CECF93DF93CDB7DEB72C9797
:100D10000FB6F894DEBF0FBECDBF789484B5826065
:100D200084BD84B5816084BD85B5826085BD85B58F
:100D3000816085BD80916E00816080936E0010920D
:100D40008100809181008260809381008091810088
:100D50008160809381008091800081608093800019
:100D60008091B10084608093B1008091B000816077
:100D70008093B00080919100826080939100809177
:100D800091008160809391008091900081608093B8
:100D900090008091A10082608093A1008091A100C9
:100DA00081608093A1008091A00081608093A00069
:100DB00080912101826080932101809121018160D5
:100DC0008093210180912001816080932001809196
:100DD0007A00846080937A0080917A0082608093A8
:100DE0007A0080917A00816080937A0080917A0005
:100DF000806880937A001092C10010922E041092A5
:100E00002F0410923004109231041092EC031092CF
:100E1000ED031092EE031092EF03DADC6B017C011C
:100E20004B015C0188EB880E8BE0981EA11CB11C65
:100E3000CFDC6C157D058E059F0528F0861697067C
:100E4000A806B906A8F78DE493E090932D0480934B
:100E50002C041DDABDDC6093EC037093ED038093EA
:100E6000EE039093EF0366E372E080912C0490917F
:100E70002D0486DDADDC6B017C014B015C018AE059
:100E8000880E911CA11CB11CA3DC6C157D058E0580
:100E90009F0528F086169706A806B906A8F781E0F0
:100EA00080930004F4D95BDD61E084E0FADB61E06B
:100EB00085E0F7DB61E086E0F4DB61E083E0F1DB15
:100EC00062E089E0EEDB62E08CE0EBDB62E08DE08B
:100ED000E8DB62E08EE2E5DB62E08FE2E2DB61E02C
:100EE00080E3DFDB61E080E3AEDB68E472E08DE4A9
:100EF00093E023DD84EFC82EDD24D394E12CF12C84
:100F000067DC672B682B692B39F462DC6230710572
:100F10008105910508F4F6C05BDC0091490310914E
:100F20004A0320914B0330914C03601771078207ED
:100F3000930740F46093490370934A0380934B03F3
:100F400090934C030091490310914A0320914B0365
:100F500030914C034B015C01801A910AA20AB30A3A
:100F6000950184010A3F11052105310508F4CAC025
:100F70006093490370934A0380934B0390934C030F
:100F8000C092F803D092F903E092FA03F092FB03C7
:100F90001092FC031092FD031092FE031092FF03C7
:100FA0008091F0039091F103A091F203B091F303CB
:100FB0008093F4039093F503A093F603B093F703A3
:100FC00007DC6093F0037093F1038093F203909336
:100FD000F303FEDB6093EC037093ED038093EE0369
:100FE0009093EF03F5DB4B015C0166E572E08091C5
:100FF0002C0490912D04C4DC2AE041E050E060E034
:1010000070E080912C0490912D041CDC6DE572E061
:1010100080912C0490912D04B3DC2AE0B501A40149
:1010200080912C0490912D040DDC6FE572E080918D
:101030002C0490912D04A4DC8091F0039091F10395
:10104000A091F203B091F303B501A401481B590B21
:101050006A0B7B0B2AE080912C0490912D04F2DB2B
:101060006FE572E080912C0490912D0489DC409111
:10107000F0035091F1036091F2037091F3038091BA
:10108000F4039091F503A091F603B091F703481B88
:10109000590B6A0B7B0B2AE080912C0490912D0454
:1010A000D1DB61E672E080912C0490912D0468DC24
:1010B0008FDBAB01BC012AE080912C0490912D04C0
:1010C000C1DB63E672E080912C0490912D0435DC45
:1010D0007FDB4B015C012B013C0185E0480E511C7C
:1010E000611C711C75DB681579058A059B0508F084
:1010F0000CC16EDB6093F0037093F1038093F203F5
:101100009093F3038EE277DA892B09F07BC080910C
:10111000360490913704892B09F474C06FE272E0B1
:10112000809132049091330467D3892B09F06AC00F
:101130006AE672E08DE493E023DC8CE05CDA0197F0
:1011400049F560E084E07FDA61E085E07CDA8CE0FC
:1011500052DA8CE050DABC01CE01019693DC66E7EE
:1011600072E0CE010796C4DC4D815E8169817A818F
:10117000CE0107962CDC811103C0CE01079653DC0B
:10118000CE0107964ADB8F819885C0D189819A81EB
:10119000BDD1D3CF61E972E08DE493E0CEDBDFDB3C
:1011A00000E010E006301105A9F060E086E04BDABF
:1011B00061E083E048DA89E01EDA892B99F7D2DA18
:1011C0000F5F1F4F67EC72E08DE493E0D9DBC8013D
:1011D00080DBE8CFC4DB61EA72E08DE493E0ADDB55
:1011E00060EC72E08DE493E0CBDB86E090E071DBB5
:1011F00060E080E328DA44E050E067ED72E082E3EB
:1012000094E022DC8FE2F7D9892B09F07CC0809131
:10121000360490913704892B09F475C067ED72E0AC
:101220008091320490913304E7D2892B09F06BC08E
:101230006CED72E08DE493E080DB00E010E00630BE
:101240001105A9F061E086E0FED960E083E0FBD9FA
:1012500089E0D1D9892B99F785DA0F5F1F4F67ECA9
:1012600072E08DE493E08CDBC80133DBE8CF77DB01
:1012700067EC72E08DE493E083DB86E090E029DBAD
:101280006EDB8DE0B8D9019749F561E084E0DBD9E8
:1012900060E085E0D8D98DE0AED98DE0ACD9BC0155
:1012A000CE010196EFDB6FEE72E0CE01079620DCF7
:1012B0004D815E8169817A81CE01079688DB81113B
:1012C00003C0CE010796AFDBCE010796A6DA8F8169
:1012D00098851CD189819A8119D1D3CF6BE073E0B5
:1012E0008DE493E02ADB6DE173E08DE493E025DB90
:1012F00036DB61E080E3A7D946E050E06FE272E0C0
:1013000082E394E0A1DBEAD8FBCD461657066806D7
:10131000790608F0E7CEEDCE809132049091330447
:10132000F5C0BB274A3031F4992322F4BDE29095F1
:1013300081959F4F01C0BB27FB015527AA27880F26
:10134000991FAA1FA41710F0A41B83955051B9F739
:10135000A05DAA3308F0A95DA193009779F7B111B8
:10136000B1931192CB0100C0DC01FC01672F719198
:101370007723E1F7329704C07C916D93708362917B
:10138000AE17BF07C8F30895A1E21A2EAA1BBB1B14
:10139000FD010DC0AA1FBB1FEE1FFF1FA217B30741
:1013A000E407F50720F0A21BB30BE40BF50B661F57
:1013B000771F881F991F1A9469F76095709580951B
:1013C00090959B01AC01BD01CF010895EE0FFF1F69
:1013D000881F8BBF0790F691E02D19940F931F93F0
:1013E000CF93DF938230910510F482E090E0E0919A
:1013F0003A04F0913B0420E030E0A0E0B0E0309708
:1014000019F1408151810281138148175907C8F0B1
:101410008417950769F4109731F012960C93129780
:1014200013961C9327C000933A0410933B0422C0E8
:101430002115310519F04217530718F49A01BD011F
:10144000EF01DF01F801DBCF21153105F9F0281B91
:10145000390B2430310580F48A819B816115710537
:1014600021F0FB019383828304C090933B0480931B
:101470003A04FE01329644C0FE01E20FF31F81934D
:10148000919322503109398328833AC0209138043E
:1014900030913904232B41F4209102023091030250
:1014A00030933904209338042091000230910102D6
:1014B0002115310541F42DB73EB7409104025091FA
:1014C0000502241B350BE0913804F0913904E21732
:1014D000F307A0F42E1B3F0B2817390778F0AC0157
:1014E0004E5F5F4F2417350748F04E0F5F1F509334
:1014F0003904409338048193919302C0E0E0F0E016
:10150000CF01DF91CF911F910F910895CF93DF937A
:10151000009709F481C0FC01329713821282A091D6
:101520003A04B0913B04109781F420813181820FFD
:10153000931F20913804309139042817390751F549
:10154000F0933904E093380467C0ED0120E030E007
:10155000CE17DF0740F44A815B819E01411551059A
:10156000F1F0EA01F5CFD383C28340815181840F2A
:10157000951FC817D90759F488819981840F951F41
:101580000296918380838A819B8193838283211534
:10159000310529F4F0933B04E0933A043DC0E9019E
:1015A000FB83EA8349915991C40FD51FEC17FD07BE
:1015B00061F480819181840F951F0296E9019983DE
:1015C0008883828193819B838A83E0E0F0E0129696
:1015D0008D919C911397009719F0FD01DC01F7CFD5
:1015E0008D919C9111979D012E5F3F4F820F931F0C
:1015F00020913804309139042817390769F430975D
:1016000029F410923B0410923A0402C01382128211
:10161000B0933904A0933804DF91CF9108956F926D
:101620007F928F929F92AF92BF92CF92DF92EF9272
:10163000FF920F931F93CF93DF93009781F4CB0119
:10164000DF91CF911F910F91FF90EF90DF90CF909E
:10165000BF90AF909F908F907F906F90BFCEFC0116
:10166000E60FF71F9C0122503109E217F30708F437
:10167000A5C0EC01D9010D911C9111970617170710
:10168000A8F00530110508F497C0C8010497861723
:10169000970708F491C002501109061B170B01931C
:1016A00011936D937C93CF0131DF86C05B01A01A4B
:1016B000B10A4C01800E911EA0913A04B0913B04F6
:1016C000612C712CE12CF12C109709F446C08D91FE
:1016D0009C911197A815B905B1F56C0142E0C40EB3
:1016E000D11CCA14DB0478F14C018A189B086401F0
:1016F00042E0C40ED11C1296BC9012971396AC9186
:10170000B5E0CB16D10440F0B282A38391828082EF
:10171000D9016D937C9309C00E5F1F4F800F911FFD
:10172000F90191838083EB2DFA2FE114F10431F05C
:10173000D7011396FC93EE9312973EC0F0933B04AF
:10174000E0933A0439C06816790608F43C017D013B
:1017500012960D90BC91A02DB7CF80913804909136
:10176000390488169906E1F466167706C8F4809164
:10177000000290910102009741F48DB79EB740910D
:10178000040250910502841B950BE817F907B0F489
:10179000F0933904E0933804F901718360830CC03D
:1017A000CB011CDE7C01009749F0A801BE011BD0D3
:1017B000CE01ACDEC70104C0CE0102C080E090E0E3
:1017C000DF91CF911F910F91FF90EF90DF90CF901D
:1017D000BF90AF909F908F907F906F90089581E021
:1017E00090E0F89419C0FB01DC0102C001900D9259
:1017F00041505040D8F70895FB01DC018D910190D4
:1018000080190110D9F3990B0895FB01DC010190B7
:101810000D920020E1F7089511E0C5E1D1E000E06C
:1018200005C0802FFE01D2DD2196011DC631D107F2
:0A18300080E00807B1F7F894FFCF3D
:10183A0000003C0480000000000001026F019901D1
:10184A004D02CA01A801BC012020496E6974696170
:10185A006C6973696E672072656C617973200063C5
:10186A006C6F73656400564D4450565F317C315F2E
:10187A00564D4450560D0A0020206578697420732D
:10188A00657475702000564D4450455F003A323AEF
:10189A00007C005F564D4450450072656365697669
:1018AA006564204F530057616974696E6720666FDB
:1018BA007220466C617020746F206F70656E2020F4
:1018CA0000466C6170206E6F77206F70656E202005
:1018DA00002020656E64206F6620736875747465D5
:1018EA0072206F70656E20726F7574696E65200064
:1018FA00656E64696E672052657620636F756E74D3
:10190A00206973203A20006F70656E002020636C96
:10191A006F73696E6720736875747465722000202E
:10192A0057616974696E6720666F7220666C6170B0
:10193A0020746F20636C6F7365200020466C6170A1
:10194A00206E6F7720636C6F7365642000202065BA
:10195A006E64206F66207368757474657220636C98
:0E196A006F73656420726F7574696E6520007E
:00000001FF
