:1000000015C1000041C100003FC100003DC100001A
:100010003BC1000039C1000037C1000035C10000FC
:1000200033C1000031C100002FC100002DC100000C
:100030002BC1000029C1000027C1000025C100001C
:1000400023C1000021C100001FC100001DC100002C
:100050001BC1000019C1000017C10000A9C40000A5
:1000600013C100006FC4000044C400000DC10000B3
:100070000BC1000009C1000007C1000005C100005C
:1000800003C1000001C10000FFC00000FDC000006E
:10009000FBC00000F9C00000F7C00000F5C0000080
:1000A000F3C00000F1C00000EFC00000EDC0000090
:1000B000EBC00000E9C00000E7C00000E5C00000A0
:1000C000E3C00000E1C00000DFC00000DDC00000B0
:1000D000DBC00000D9C00000D7C00000D5C00000C0
:1000E000D3C00000F502F802E702EB02F1022F0391
:1000F000FC02000306030A030E03140318031C0387
:100100002F03220326032A030000210024002700D6
:100110002A002D0030003300010100000401070116
:100120000A0100002200250028002B002E003100CB
:10013000340002010000050108010B01000020004D
:100140002300260029002C002F00320000010000AF
:10015000030106010901050505050705080808084A
:10016000020202020A0A080804040404010101014F
:10017000010101010303030303030303040707074A
:100180000C0C0C0C0C0C0C0C0202020206060606EF
:10019000060606060B0B0B0B0B0B0B0B01021020BC
:1001A00020080810204010204080020102010804AD
:1001B0000201010204081020408080402010080441
:1001C000020180040201804020100804020108049A
:1001D00002010102040810204080010204081020DE
:1001E000408000000A0B02090C0D0E0807030401F1
:1001F00000000000000000000000000000000000FF
:1002000000000000000000000000000000001211CB
:1002100010000000000000000000000000000000CE
:1002200000000000000000002205C20611241FBECD
:10023000CFEFD1E2DEBFCDBF00E00CBF23E0A6E3ED
:10024000B2E001C01D92AE32B207E1F712E0A0E0C9
:10025000B2E0ECEFF1E100E00BBF02C007900D92BD
:10026000A633B107D9F711E0C5E1D1E000E005C040
:1002700021970109802FFE018AD5C431D10780E082
:100280000807B1F72AD4A9C7BBCEEFE3F2E0A089F3
:10029000B18982E08C93A485B5851C92A685B7852B
:1002A0008FEC8C93108EA489B58986E08C93A289FB
:1002B000B3898C9180618C93A289B3898C91886079
:1002C0008C93A289B3898C9180688C930288F3897E
:1002D000E02D80818F7D80830895CF92DF92EF9211
:1002E000FF920F931F932FB7F894C0903B02D090CA
:1002F0003C02E0903D02F0903E022FBFDC01CB01BA
:100300008C0D9D1DAE1DBF1D4FB7F89400913B0293
:1003100010913C0220913D0230913E024FBF0C15DE
:100320001D052E053F0528F080179107A207B3078A
:1003300058F71F910F91FF90EF90DF90CF900895A5
:10034000CF92DF92EF92FF920F931F93CF93DF93A1
:100350006C017A018B01C0E0D0E0CE15DF0581F0A1
:10036000D8016D918D01D601ED91FC910190F08144
:10037000E02DC6011995892B11F02196EECF7E0153
:10038000C701DF91CF911F910F91FF90EF90DF9008
:10039000CF900895089580E090E00895FC01538D7A
:1003A000448D252F30E0842F90E0821B930B54174F
:1003B00010F0CF96089501970895FC01918D828DDC
:1003C000981761F0828DDF01A80FB11D5D968C91A9
:1003D000928D9F5F9F73928F90E008958FEF9FEFB4
:1003E0000895FC01918D828D981731F0828DE80F70
:1003F000F11D858D90E008958FEF9FEF0895FC012A
:10040000918D228D892F90E0805C9F4F821B9109F6
:100410008F73992708958FE392E0F1DF21E0892B14
:1004200009F420E0822F0895FC01848DDF01A80FDC
:10043000B11DA35ABF4F2C91848D90E001968F730C
:100440009927848FA689B7892C93A089B1898C912B
:10045000837080648C93938D848D981306C002887A
:10046000F389E02D80818F7D80830895EF92FF9244
:100470000F931F93CF93DF93EC0181E0888F9B8DC7
:100480008C8D981305C0E889F989808185FD25C088
:10049000F62E0B8D10E00F5F1F4F0F731127E02E0C
:1004A0008C8DE8120BC00FB607FCFACFE889F989EA
:1004B000808185FFF5CFCE01B7DFF2CF8B8DFE01B6
:1004C000E80FF11DE35AFF4FF0829FB7F8940B8FAE
:1004D000EA89FB89808180620AC09FB7F894EE891F
:1004E000FF896083E889F9898081837080648083D3
:1004F0009FBF81E090E0DF91CF911F910F91FF901E
:10050000EF900895CF93DF93EC01888D8823C1F09D
:10051000EA89FB89808185FD05C0A889B9898C910C
:1005200086FD0EC00FB607FCF5CF808185FFF2CFA8
:10053000A889B9898C9185FFEDCFCE0175DFE8CF11
:10054000DF91CF91089580E090E0892B19F063DF6F
:10055000811125C080E090E0892B41F080E090E09F
:10056000892B21F00E94000081111CC080E090E0E6
:10057000892B41F080E090E0892B21F00E9400005F
:10058000811113C080E090E0892BA1F080E090E021
:10059000892B81F00E94000081110AC008950E94F9
:1005A0000000D8CF0E940000E1CF0E940000EACFF7
:1005B0000C940000089590E0FC013197E231F105C0
:1005C00008F04DC08827EE58FF4F8F4FE0C3809151
:1005D00080008F7703C0809180008F7D80938000A2
:1005E000089580918000877FF9CF84B58F7702C00E
:1005F00084B58F7D84BD08958091B0008F7703C04E
:100600008091B0008F7D8093B0000895809190001C
:100610008F7707C0809190008F7D03C080919000FC
:10062000877F8093900008958091A0008F7707C006
:100630008091A0008F7D03C08091A000877F809370
:10064000A0000895809120018F7707C0809120013C
:100650008F7D03C080912001877F809320010895C2
:10066000CF93DF93282F30E0F901EE51FE4F8491B4
:10067000F901E456FE4FD491F901EA5AFE4FC491B4
:10068000CC2389F0811197DFEC2FF0E0EE0FFF1FF4
:10069000E45CFE4FA591B491EC91ED2381E090E0F4
:1006A00021F480E002C080E090E0DF91CF910895D6
:1006B0001F93CF93DF93282F30E0F901EE51FE4FC7
:1006C0008491F901E456FE4FD491F901EA5AFE4FA4
:1006D000C491CC23B9F0162F81116DDFEC2FF0E01F
:1006E000EE0FFF1FEE5DFE4FA591B4919FB7F894FA
:1006F000111104C08C91D095D82302C0EC91DE2B4F
:10070000DC939FBFDF91CF911F910895CF93DF932B
:1007100090E0FC01E456FE4F2491FC01EA5AFE4FA2
:100720008491882361F190E0880F991FFC01E85FB4
:10073000FE4FC591D491FC01EE5DFE4FA591B491A1
:10074000611109C09FB7F89488812095822388831E
:10075000EC912E230BC0623061F49FB7F89488812E
:10076000322F309583238883EC912E2B2C939FBFBF
:1007700006C08FB7F894E8812E2B28838FBFDF91B6
:10078000CF9108953FB7F894809137029091380245
:10079000A0913902B0913A0226B5A89B05C02F3F1F
:1007A00019F00196A11DB11D3FBFBA2FA92F982F97
:1007B0008827820F911DA11DB11DBC01CD0142E012
:1007C000660F771F881F991F4A95D1F708958F925A
:1007D0009F92AF92BF92CF92DF92EF92FF92D2DFC1
:1007E0004B015C0188EBC82E8BE0D82EE12CF12C5C
:1007F000C9DFDC01CB0188199909AA09BB09883E28
:100800009340A105B105A0F321E0C21AD108E10887
:10081000F10888EE880E83E0981EA11CB11CC1145B
:10082000D104E104F10421F7FF90EF90DF90CF9025
:10083000BF90AF909F908F90089561E084E038DF83
:1008400061E085E035DF61E086E032DF61E083E092
:100850002FCF0F931F93CF93DF938C01EB018091E8
:10086000240390912503009739F0209126033091BD
:1008700027032617370758F5BE016F5F7F4FB0D3A8
:10088000009789F09093250380932403D093270346
:10089000C09326032091280330912903232BB9F418
:1008A000FC01108214C080912403909125030097CD
:1008B00009F00DD3109225031092240310922903FE
:1008C0001092280310922703109226030AC0D09397
:1008D0002903C0932803B801809124039091250334
:1008E00075D484E293E0DF91CF911F910F91089529
:1008F00057D41F920F920FB60F9211240BB60F927E
:100900002F933F934F935F936F937F938F939F9317
:10091000AF93BF93EF93FF938FE392E085DDFF9159
:10092000EF91BF91AF919F918F917F916F915F9167
:100930004F913F912F910F900BBE0F900FBE0F90D4
:100940001F9018951F920F920FB60F9211240BB69D
:100950000F922F938F939F93EF93FF93E0914F020A
:10096000F09150028081E0915502F091560282FD93
:1009700012C09081809158028F5F8F73209159022D
:10098000821751F0E0915802F0E0E15CFD4F958F45
:100990008093580201C08081FF91EF919F918F91C8
:1009A0002F910F900BBE0F900FBE0F901F901895B8
:1009B0001F920F920FB60F9211242F933F938F9394
:1009C0009F93AF93BF9380913B0290913C02A09183
:1009D0003D02B0913E023091360223E0230F2D37C5
:1009E00020F40196A11DB11D05C026E8230F029633
:1009F000A11DB11D2093360280933B0290933C02CF
:100A0000A0933D02B0933E0280913702909138024C
:100A1000A0913902B0913A020196A11DB11D8093B7
:100A2000370290933802A0933902B0933A02BF91F3
:100A3000AF919F918F913F912F910F900FBE0F908B
:100A40001F901895EFE3F2E01382128288EE93E094
:100A5000A0E0B0E084839583A683B7838AE092E028
:100A60009183808385EC90E09587848784EC90E087
:100A70009787868780EC90E0918B808B81EC90E06B
:100A8000938B828B82EC90E0958B848B86EC90E04C
:100A9000978B868B118E128E138E148EECEDF2E0F6
:100AA0001682178210861186128613861486158682
:100AB00016861786108A118A128A138A148A158A52
:100AC000E4E2F3E011821082138212821582148212
:100AD00066E070E088E192E0BCCE789484B58260F4
:100AE00084BD84B5816084BD85B5826085BD85B5D2
:100AF000816085BD80916E00816080936E00109250
:100B000081008091810082608093810080918100CA
:100B1000816080938100809180008160809380005B
:100B20008091B10084608093B1008091B0008160B9
:100B30008093B000809191008260809391008091B9
:100B400091008160809391008091900081608093FA
:100B500090008091A10082608093A1008091A1000B
:100B600081608093A1008091A00081608093A000AB
:100B70008091210182608093210180912101816017
:100B800080932101809120018160809320018091D8
:100B90007A00846080937A0080917A0082608093EA
:100BA0007A0080917A00816080937A0080917A0047
:100BB000806880937A001092C100109220031092F6
:100BC000210310922203109223031092DE0210924E
:100BD000DF021092E0021092E10268EB7BE080E01D
:100BE00090E07BDB8FE392E090931F0380931E03E2
:100BF0004CDB2FB7F89480913B0290913C02A0917E
:100C00003D02B0913E022FBF8093DE029093DF023F
:100C1000A093E002B093E10280911E0390911F0324
:100C2000DC01ED91FC910280F381E02D41E150E087
:100C30006FE172E019956AE070E080E090E04DDBD2
:100C400024DBFBDD61E084E061DD61E085E05EDD09
:100C500061E086E05BDD61E083E058DD62E089E031
:100C600055DD62E08CE052DD62E08DE04FDD62E058
:100C70008EE24CDD62E08FE249DD61E080E346DD3B
:100C800061E080E315DD8EE2EBDC892B09F039C0F1
:100C90008091280390912903892B09F432C068E1DF
:100CA00072E0809124039091250387D2892B49F526
:100CB0008CE0D6DC019749F460E084E0F9DC61E087
:100CC00085E0F6DC8CE0CCDCF3CFB7DDC0E0D0E033
:100CD000C630D10569F060E086E0EADC61E083E0DF
:100CE000E7DC89E0BDDC892B99F771DD2196F0CF37
:100CF000A4DD60E080E3DCDC64E070E081E392E0AE
:100D0000A8DD8FE2ADDC892B09F03AC08091280381
:100D100090912903892B09F433C061E372E080913B
:100D200024039091250349D2892B51F5C0E0D0E0EE
:100D3000C630D10569F061E086E0BADC60E083E0AE
:100D4000B7DC89E08DDC892B99F741DD2196F0CF66
:100D500074DD73DD8DE084DC019749F461E084E0AB
:100D6000A7DC60E085E0A4DC8DE07ADCF3CF65DD14
:100D700061E080E39DDC66E070E088E192E069DD9F
:100D8000E2DB81CF8091240390912503A0C0EE0F78
:100D9000FF1F881F8BBF0790F691E02D19940F93CA
:100DA0001F93CF93DF938230910510F482E090E09F
:100DB000E0912C03F0912D0320E030E0A0E0B0E0C2
:100DC000309719F1408151810281138148175907E9
:100DD000C8F08417950769F4109731F012960C93B8
:100DE000129713961C9327C000932C0310932D0386
:100DF00022C02115310519F04217530718F49A0142
:100E0000BD01EF01DF01F801DBCF21153105F9F05C
:100E1000281B390B2430310580F48A819B816115B0
:100E2000710521F0FB019383828304C090932D030D
:100E300080932C03FE01329644C0FE01E20FF31FA3
:100E40008193919322503109398328833AC02091AC
:100E50002A0330912B03232B41F42091020230917D
:100E6000030230932B0320932A0320910002309138
:100E700001022115310541F42DB73EB7409104021E
:100E800050910502241B350BE0912A03F0912B03AE
:100E9000E217F307A0F42E1B3F0B2817390778F051
:100EA000AC014E5F5F4F2417350748F04E0F5F1FB0
:100EB00050932B0340932A038193919302C0E0E067
:100EC000F0E0CF01DF91CF911F910F910895CF9363
:100ED000DF93009709F481C0FC01329713821282DC
:100EE000A0912C03B0912D03109781F420813181C2
:100EF000820F931F20912A0330912B032817390763
:100F000051F5F0932B03E0932A0367C0ED0120E035
:100F100030E0CE17DF0740F44A815B819E01411526
:100F20005105F1F0EA01F5CFD383C28340815181AD
:100F3000840F951FC817D90759F488819981840FA8
:100F4000951F0296918380838A819B8193838283FC
:100F50002115310529F4F0932D03E0932C033DC0B6
:100F6000E901FB83EA8349915991C40FD51FEC171E
:100F7000FD0761F480819181840F951F0296E9013C
:100F800099838883828193819B838A83E0E0F0E068
:100F900012968D919C911397009719F0FD01DC0139
:100FA000F7CF8D919C9111979D012E5F3F4F820F3E
:100FB000931F20912A0330912B032817390769F4D6
:100FC000309729F410922D0310922C0302C0138243
:100FD0001282B0932B03A0932A03DF91CF9108953F
:100FE0006F927F928F929F92AF92BF92CF92DF9239
:100FF000EF92FF920F931F93CF93DF93009781F4AB
:10100000CB01DF91CF911F910F91FF90EF90DF9077
:10101000CF90BF90AF909F908F907F906F90BFCEFA
:10102000FC01E60FF71F9C0122503109E217F3077C
:1010300008F4A5C0EC01D9010D911C911197061778
:101040001707A8F00530110508F497C0C8010497E8
:101050008617970708F491C002501109061B170B59
:10106000019311936D937C93CF0131DF86C05B01B7
:10107000A01AB10A4C01800E911EA0912C03B091D0
:101080002D03612C712CE12CF12C109709F446C032
:101090008D919C911197A815B905B1F56C0142E0AD
:1010A000C40ED11CCA14DB0478F14C018A189B08C9
:1010B000640142E0C40ED11C1296BC9012971396A4
:1010C000AC91B5E0CB16D10440F0B282A3839182FB
:1010D0008082D9016D937C9309C00E5F1F4F800FF2
:1010E000911FF90191838083EB2DFA2FE114F10414
:1010F00031F0D7011396FC93EE9312973EC0F09314
:101100002D03E0932C0339C06816790608F43C01DE
:101110007D0112960D90BC91A02DB7CF80912A032E
:1011200090912B0388169906E1F466167706C8F4A9
:101130008091000290910102009741F48DB79EB713
:101140004091040250910502841B950BE817F907A2
:10115000B0F4F0932B03E0932A03F90171836083C9
:101160000CC0CB011CDE7C01009749F0A801BE0138
:101170001BD0CE01ACDEC70104C0CE0102C080E0AE
:1011800090E0DF91CF911F910F91FF90EF90DF9052
:10119000CF90BF90AF909F908F907F906F90089569
:1011A00081E090E0F89419C0FB01DC0102C00190DD
:1011B0000D9241505040D8F70895FB01DC018D910C
:1011C000019080190110D9F3990B0895FB01DC01FE
:1011D00001900D920020E1F7089511E0C5E1D1E002
:1011E00000E005C0802FFE01D2DD2196011DC63131
:0C11F000D10780E00807B1F7F894FFCFAA
:1011FC0000002E038000000000003602A001CE018A
:10120C008202FF01DD01F101636C6F7365640056AE
:10121C004D4450565F317C305F564D4450560D0A4C
:06122C00006F70656E000A
:00000001FF
