:1000000015C1000043C1000041C100003FC1000014
:100010003DC100003BC1000039C1000037C10000F4
:1000200035C1000023C6000021C600001FC6000025
:100030002DC100002BC1000029C1000027C1000014
:1000400025C1000023C1000021C100001FC1000024
:100050001DC100001BC1000019C10000BDC500008A
:1000600015C1000083C5000058C500000FC1000085
:100070000DC100000BC1000009C1000007C1000054
:1000800005C1000003C1000001C10000FFC0000065
:10009000FDC00000FBC00000F9C00000F7C0000078
:1000A000F5C00000F3C00000F1C00000EFC0000088
:1000B000EDC00000EBC00000E9C00000E7C0000098
:1000C000E5C00000E3C00000E1C00000DFC00000A8
:1000D000DDC00000DBC00000D9C00000D7C00000B8
:1000E000D5C00000C002C302B202B602BC02FA02CE
:1000F000C702CB02D102D502D902DF02E302E70236
:10010000FA02ED02F102F5020000210024002700AE
:100110002A002D0030003300010100000401070116
:100120000A0100002200250028002B002E003100CB
:10013000340002010000050108010B01000020004D
:100140002300260029002C002F00320000010000AF
:10015000030106010901050505050705080808084A
:10016000020202020A0A080804040404010101014F
:10017000010101010303030303030303040707074A
:100180000C0C0C0C0C0C0C0C0202020206060606EF
:10019000060606060B0B0B0B0B0B0B0B01021020BC
:1001A00020080810204010204080020102010804AD
:1001B0000201010204081020408080402010080441
:1001C000020180040201804020100804020108049A
:1001D00002010102040810204080010204081020DE
:1001E000408000000A0B02090C0D0E0807030401F1
:1001F00000000000000000000000000000000000FF
:1002000000000000000000000000000000001211CB
:1002100010000000000000000000000000000000CE
:10022000000000000000000040068C0911241FBEE1
:10023000CFEFD1E2DEBFCDBF00E00CBF24E0AEE3E4
:10024000B3E001C01D92AC33B207E1F713E0A0E0C8
:10025000B2E0EAE3F8E100E00BBF02C007900D92C4
:10026000AE33B107D9F711E0C5E1D1E000E006C037
:1002700021970109802FFE010E94E609C431D107B0
:1002800080E00807A9F73FD50C940C0CB9CEEDE43B
:10029000F3E0A089B18982E08C93A485B5851C9296
:1002A000A685B7858FEC8C93108EA489B58986E0DE
:1002B0008C93A289B3898C9180618C93A289B38934
:1002C0008C9188608C93A289B3898C9180688C937F
:1002D0000288F389E02D80818F7D80830895CF92FD
:1002E000DF92EF92FF920F931F93CF93DF936C01F6
:1002F0007A018B01C0E0D0E0CE15DF0581F0D80196
:100300006D918D01D601ED91FC910190F081E02D70
:10031000C6011995892B11F02196EECF7E01C701F8
:10032000DF91CF911F910F91FF90EF90DF90CF90D1
:100330000895FC01538D448D252F30E0842F90E0EB
:10034000821B930B541710F0CF96089501970895D0
:10035000FC01918D828D981761F0828DDF01A80FCD
:10036000B11D5D968C91928D9F5F9F73928F90E0EF
:1003700008958FEF9FEF0895FC01918D828D98175E
:1003800031F0828DE80FF11D858D90E008958FEF9B
:100390009FEF0895FC01918D228D892F90E0805C64
:1003A0009F4F821B91098F73992708958DE493E0E5
:1003B000F1DF21E0892B09F420E0822F0895FC0170
:1003C000848DDF01A80FB11DA35ABF4F2C91848DDE
:1003D00090E001968F739927848FA689B7892C9313
:1003E000A089B1898C91837080648C93938D848D66
:1003F000981306C00288F389E02D80818F7D808369
:100400000895EF92FF920F931F93CF93DF93EC0128
:1004100081E0888F9B8D8C8D981305C0E889F989C0
:10042000808185FD25C0F62E0B8D10E00F5F1F4FDC
:100430000F731127E02E8C8DE8120BC00FB607FC4E
:10044000FACFE889F989808185FFF5CFCE01B7DF42
:10045000F2CF8B8DFE01E80FF11DE35AFF4FF082C2
:100460009FB7F8940B8FEA89FB89808180620AC06C
:100470009FB7F894EE89FF896083E889F9898081C4
:100480008370806480839FBF81E090E0DF91CF9193
:100490001F910F91FF90EF900895CF93DF93EC01A0
:1004A000888D8823C1F0EA89FB89808185FD05C09C
:1004B000A889B9898C9186FD0EC00FB607FCF5CFCF
:1004C000808185FFF2CFA889B9898C9185FFEDCF16
:1004D000CE0175DFE8CFDF91CF91089580E090E005
:1004E000892B19F063DF811125C080E090E0892B12
:1004F00041F080E090E0892B21F00E940000811102
:100500001CC080E090E0892B41F080E090E0892BD6
:1005100021F00E940000811113C080E090E0892B3F
:10052000A1F080E090E0892B81F00E940000811111
:100530000AC008950E940000D8CF0E940000E1CFB9
:100540000E940000EACF0C940000089590E0FC01A6
:100550003197E231F10508F04DC08827EE58FF4F82
:100560008F4F34C7809180008F7703C080918000C7
:100570008F7D80938000089580918000877FF9CFE0
:1005800084B58F7702C084B58F7D84BD0895809136
:10059000B0008F7703C08091B0008F7D8093B00052
:1005A0000895809190008F7707C0809190008F7D93
:1005B00003C080919000877F809390000895809180
:1005C000A0008F7707C08091A0008F7D03C080912D
:1005D000A000877F8093A0000895809120018F77ED
:1005E00007C0809120018F7D03C080912001877F0B
:1005F000809320010895CF93DF93282F30E0F901F5
:10060000EE51FE4F8491F901E456FE4FD491F90169
:10061000EA5AFE4FC491CC2389F0811197DFEC2F69
:10062000F0E0EE0FFF1FE45CFE4FA591B491EC915A
:10063000ED2381E090E021F480E002C080E090E0D2
:10064000DF91CF9108951F93CF93DF93282F30E050
:10065000F901EE51FE4F8491F901E456FE4FD49119
:10066000F901EA5AFE4FC491CC23B9F0162F81113B
:100670006DDFEC2FF0E0EE0FFF1FEE5DFE4FA5915A
:10068000B4919FB7F894111104C08C91D095D823E0
:1006900002C0EC91DE2BDC939FBFDF91CF911F91C5
:1006A0000895CF93DF9390E0FC01E456FE4F249130
:1006B000FC01EA5AFE4F8491882361F190E0880F93
:1006C000991FFC01E85FFE4FC591D491FC01EE5DDE
:1006D000FE4FA591B491611109C09FB7F89488812C
:1006E000209582238883EC912E230BC0623061F425
:1006F0009FB7F8948881322F309583238883EC91BB
:100700002E2B2C939FBF06C08FB7F894E8812E2B19
:1007100028838FBFDF91CF9108953FB7F8948091E0
:10072000450390914603A0914703B091480326B535
:10073000A89B05C02F3F19F00196A11DB11D3FBF19
:10074000BA2FA92F982F8827820F911DA11DB11DA7
:10075000BC01CD0142E0660F771F881F991F4A95A3
:10076000D1F708958F929F92AF92BF92CF92DF926E
:10077000EF92FF92D2DF4B015C0188EBC82E8BE039
:10078000D82EE12CF12CC9DFDC01CB0188199909A5
:10079000AA09BB09883E9340A105B105A0F321E059
:1007A000C21AD108E108F10888EE880E83E0981E8D
:1007B000A11CB11CC114D104E104F10421F7FF9084
:1007C000EF90DF90CF90BF90AF909F908F90089563
:1007D0002FB7F894609141037091420380914303D5
:1007E000909144032FBF0895089580E090E008950C
:1007F0006115710579F0FB0101900020E9F731974F
:10080000AF01461B570BDC01ED91FC910280F38197
:10081000E02D199480E090E00895CF93DF93FC01E0
:1008200044815581608171818DE493E058DDEC0154
:1008300065E472E08DE493E0DBDF8C0F9D1FDF91B8
:10084000CF9108958F929F92AF92BF92EF92FF92B5
:100850000F931F93CF93DF93CDB7DEB7A1970FB65A
:10086000F894DEBF0FBECDBF7C01FA01CB0119A207
:10087000223008F42AE08E010F5D1F4F822E912C4A
:10088000A12CB12CBF01A50194017ED5F901CA01AB
:10089000015011096A3014F4605D01C0695CD8012F
:1008A0006C93232B242B252B69F7B801C701A0DFFC
:1008B000A1960FB6F894DEBF0FBECDBFDF91CF91EA
:1008C0001F910F91FF90EF90BF90AF909F908F90EE
:1008D0000895CF92DF92EF92FF92CF93DF936C0156
:1008E000990FEE08FF08F7FE13C06DE28DE493E068
:1008F00088DDEC0144275527BA014C195D096E09C2
:100900007F092AE08DE493E09DDFC80FD91F07C05F
:100910002AE0B701A6018DE493E094DFEC0165E4E1
:1009200072E08DE493E064DF8C0F9D1FDF91CF9127
:10093000FF90EF90DF90CF9008950F931F93CF9388
:10094000DF93EC0155DF8C0165E472E0CE0150DFEE
:10095000800F911FDF91CF911F910F91089568E152
:1009600072E08DE493E0E9DF61E084E06CDE61E059
:1009700085E069DE61E086E066DE61E083E063CE0B
:1009800037CF0F931F93CF93DF93EC018881998129
:10099000009729F02A813B812617370780F48B01C5
:1009A0006F5F7F4F3CD6009761F0998388831B83EC
:1009B0000A832C813D81232B11F4FC01108281E0FC
:1009C00001C080E0DF91CF911F910F910895EF92C8
:1009D000FF920F931F93CF93DF936115710511F46D
:1009E00080E01AC041155105B1F07B01EC018C810A
:1009F0009D818A01080F191FB801CE01C2DF88232B
:100A000079F3288139818C819D81B701820F931FF1
:100A1000FCD61D830C8381E0DF91CF911F910F9154
:100A2000FF90EF900895CF93DF93EC018881998137
:100A3000009709F06BD5198218821D821C821B82D7
:100A40001A82DF91CF910895EF92FF920F931F9337
:100A5000CF93DF93EC017B018A01BA0192DF811110
:100A600003C0CE01E0DF06C01D830C83B70188817F
:100A70009981CBD6CE01DF91CF911F910F91FF903D
:100A8000EF900895EF92FF920F931F93CF93DF9310
:100A9000CDB7DEB762970FB6F894DEBF0FBECDBFFD
:100AA0008C01CB01F801118210821382128215820F
:100AB00014824AE09E012F5F3F4F7901B90131D482
:100AC000F70101900020E9F73197AF014E195F0956
:100AD000B701C801B9DF62960FB6F894DEBF0FBE4A
:100AE000CDBFDF91CF911F910F91FF90EF900895AF
:100AF000FC01118210821382128215821482611508
:100B0000710549F0FB0101900020E9F73197AF0131
:100B1000461B570B99CF089562D61F920F920FB6BE
:100B20000F9211240BB60F922F933F934F935F9325
:100B30006F937F938F939F93AF93BF93EF93FF93A5
:100B40008DE493E03CDCFF91EF91BF91AF919F91D9
:100B50008F917F916F915F914F913F912F910F9066
:100B60000BBE0F900FBE0F901F9018951F920F9203
:100B70000FB60F9211240BB60F922F938F939F9362
:100B8000EF93FF93E0915D03F0915E038081E0912C
:100B90006303F091640382FD12C09081809166032B
:100BA0008F5F8F7320916703821751F0E091660386
:100BB000F0E0E35BFC4F958F8093660301C080817A
:100BC000FF91EF919F918F912F910F900BBE0F90FE
:100BD0000FBE0F901F9018951F920F920FB60F9295
:100BE00011242F933F938F939F93AF93BF93809143
:100BF000410390914203A0914303B091440330918B
:100C0000400323E0230F2D3720F40196A11DB11DD1
:100C100005C026E8230F0296A11DB11D20934003B5
:100C20008093410390934203A0934303B093440302
:100C30008091450390914603A0914703B0914803EA
:100C40000196A11DB11D8093450390934603A09387
:100C50004703B0934803BF91AF919F918F913F910C
:100C60002F910F900FBE0F901F9018951F920F920B
:100C70000FB60F9211240F900FBE0F901F90189572
:100C8000EDE4F3E01382128288EE93E0A0E0B0E09E
:100C900084839583A683B7838AE092E091838083DF
:100CA00085EC90E09587848784EC90E09787868731
:100CB00080EC90E0918B808B81EC90E0938B828B29
:100CC00082EC90E0958B848B86EC90E0978B868B02
:100CD000118E128E138E148EEAEEF3E016821782B6
:100CE0001086118612861386148615861686178638
:100CF000108A118A128A138A148A158A6FE272E0A6
:100D000082E394E0F5CECF93DF93CDB7DEB72C9797
:100D10000FB6F894DEBF0FBECDBF789484B5826065
:100D200084BD84B5816084BD85B5826085BD85B58F
:100D3000816085BD80916E00816080936E0010920D
:100D40008100809181008260809381008091810088
:100D50008160809381008091800081608093800019
:100D60008091B10084608093B1008091B000816077
:100D70008093B00080919100826080939100809177
:100D800091008160809391008091900081608093B8
:100D900090008091A10082608093A1008091A100C9
:100DA00081608093A1008091A00081608093A00069
:100DB00080912101826080932101809121018160D5
:100DC0008093210180912001816080932001809196
:100DD0007A00846080937A0080917A0082608093A8
:100DE0007A0080917A00816080937A0080917A0005
:100DF000806880937A001092C10010922E041092A5
:100E00002F0410923004109231041092EC031092CF
:100E1000ED031092EE031092EF03DADC6B017C011C
:100E20004B015C0188EB880E8BE0981EA11CB11C65
:100E3000CFDC6C157D058E059F0528F0861697067C
:100E4000A806B906A8F78DE493E090932D0480934B
:100E50002C041DDABDDC6093EC037093ED038093EA
:100E6000EE039093EF0366E372E080912C0490917F
:100E70002D0486DDADDC6B017C014B015C018AE059
:100E8000880E911CA11CB11CA3DC6C157D058E0580
:100E90009F0528F086169706A806B906A8F781E0F0
:100EA00080930004F4D95BDD61E084E0FADB61E06B
:100EB00085E0F7DB61E086E0F4DB61E083E0F1DB15
:100EC00062E089E0EEDB62E08CE0EBDB62E08DE08B
:100ED000E8DB62E08EE2E5DB62E08FE2E2DB61E02C
:100EE00080E3DFDB61E080E3AEDB68E472E08DE4A9
:100EF00093E023DD84EFC82EDD24D394E12CF12C84
:100F000067DC672B682B692B39F462DC6230710572
:100F10008105910508F4F6C05BDC0091490310914E
:100F20004A0320914B0330914C03601771078207ED
:100F3000930740F46093490370934A0380934B03F3
:100F400090934C030091490310914A0320914B0365
:100F500030914C034B015C01801A910AA20AB30A3A
:100F6000950184010A3F11052105310508F4CAC025
:100F70006093490370934A0380934B0390934C030F
:100F8000C092F803D092F903E092FA03F092FB03C7
:100F90001092FC031092FD031092FE031092FF03C7
:100FA0008091F0039091F103A091F203B091F303CB
:100FB0008093F4039093F503A093F603B093F703A3
:100FC00007DC6093F0037093F1038093F203909336
:100FD000F303FEDB6093EC037093ED038093EE0369
:100FE0009093EF03F5DB4B015C0166E572E08091C5
:100FF0002C0490912D04C4DC2AE041E050E060E034
:1010000070E080912C0490912D041CDC6DE572E061
:1010100080912C0490912D04B3DC2AE0B501A40149
:1010200080912C0490912D040DDC6FE572E080918D
:101030002C0490912D04A4DC8091F0039091F10395
:10104000A091F203B091F303B501A401481B590B21
:101050006A0B7B0B2AE080912C0490912D04F2DB2B
:101060006FE572E080912C0490912D0489DC409111
:10107000F0035091F1036091F2037091F3038091BA
:10108000F4039091F503A091F603B091F703481B88
:10109000590B6A0B7B0B2AE080912C0490912D0454
:1010A000D1DB61E672E080912C0490912D0468DC24
:1010B0008FDBAB01BC012AE080912C0490912D04C0
:1010C000C1DB63E672E080912C0490912D0435DC45
:1010D0007FDB4B015C012B013C0185E0480E511C7C
:1010E000611C711C75DB681579058A059B0508F084
:1010F0000CC16EDB6093F0037093F1038093F203F5
:101100009093F3038EE277DA892B09F07BC080910C
:10111000360490913704892B09F474C06FE272E0B1
:10112000809132049091330467D3892B09F06AC00F
:101130006AE672E08DE493E023DC8CE05CDA0197F0
:1011400049F560E084E07FDA61E085E07CDA8CE0FC
:1011500052DA8CE050DABC01CE01019693DC66E7EE
:1011600072E0CE010796C4DC4D815E8169817A818F
:10117000CE0107962CDC811103C0CE01079653DC0B
:10118000CE0107964ADB8F819885C0D189819A81EB
:10119000BDD1D3CF61E972E08DE493E0CEDBDFDB3C
:1011A00000E010E006301105A9F060E086E04BDABF
:1011B00061E083E048DA89E01EDA892B99F7D2DA18
:1011C0000F5F1F4F67EC72E08DE493E0D9DBC8013D
:1011D00080DBE8CFC4DB61EA72E08DE493E0ADDB55
:1011E00060EC72E08DE493E0CBDB86E090E071DBB5
:1011F00060E080E328DA44E050E067ED72E082E3EB
:1012000094E022DC8FE2F7D9892B09F07CC0809131
:10121000360490913704892B09F475C067ED72E0AC
:101220008091320490913304E7D2892B09F06BC08E
:101230006CED72E08DE493E080DB00E010E00630BE
:101240001105A9F061E086E0FED960E083E0FBD9FA
:1012500089E0D1D9892B99F785DA0F5F1F4F67ECA9
:1012600072E08DE493E08CDBC80133DBE8CF77DB01
:1012700067EC72E08DE493E083DB86E090E029DBAD
:101280006EDB8DE0B8D9019749F561E084E0DBD9E8
:1012900060E085E0D8D98DE0AED98DE0ACD9BC0155
:1012A000CE010196EFDB6FEE72E0CE01079620DCF7
:1012B0004D815E8169817A81CE01079688DB81113B
:1012C00003C0CE010796AFDBCE010796A6DA8F8169
:1012D00098851CD189819A8119D1D3CF6BE073E0B5
:1012E0008DE493E02ADB6DE173E08DE493E025DB90
:1012F00036DB61E080E3A7D946E050E06FE272E0C0
:1013000082E394E0A1DBEAD8FBCD461657066806D7
:10131000790608F0E7CEEDCE809132049091330447
:10132000F5C0BB274A3031F4992322F4BDE29095F1
:1013300081959F4F01C0BB27FB015527AA27880F26
:10134000991FAA1FA41710F0A41B83955051B9F739
:10135000A05DAA3308F0A95DA193009779F7B111B8
:10136000B1931192CB0100C0DC01FC01672F719198
:101370007723E1F7329704C07C916D93708362917B
:10138000AE17BF07C8F30895A1E21A2EAA1BBB1B14
:10139000FD010DC0AA1FBB1FEE1FFF1FA217B30741
:1013A000E407F50720F0A21BB30BE40BF50B661F57
:1013B000771F881F991F1A9469F76095709580951B
:1013C00090959B01AC01BD01CF010895EE0FFF1F69
:1013D000881F8BBF0790F691E02D19940F931F93F0
:1013E000CF93DF938230910510F482E090E0E0919A
:1013F0003A04F0913B0420E030E0A0E0B0E0309708
:1014000019F1408151810281138148175907C8F0B1
:101410008417950769F4109731F012960C93129780
:1014200013961C9327C000933A0410933B0422C0E8
:101430002115310519F04217530718F49A01BD011F
:10144000EF01DF01F801DBCF21153105F9F0281B91
:10145000390B2430310580F48A819B816115710537
:1014600021F0FB019383828304C090933B0480931B
:101470003A04FE01329644C0FE01E20FF31F81934D
:10148000919322503109398328833AC0209138043E
:1014900030913904232B41F4209102023091030250
:1014A00030933904209338042091000230910102D6
:1014B0002115310541F42DB73EB7409104025091FA
:1014C0000502241B350BE0913804F0913904E21732
:1014D000F307A0F42E1B3F0B2817390778F0AC0157
:1014E0004E5F5F4F2417350748F04E0F5F1F509334
:1014F0003904409338048193919302C0E0E0F0E016
:10150000CF01DF91CF911F910F910895CF93DF937A
:10151000009709F481C0FC01329713821282A091D6
:101520003A04B0913B04109781F420813181820FFD
:10153000931F20913804309139042817390751F549
:10154000F0933904E093380467C0ED0120E030E007
:10155000CE17DF0740F44A815B819E01411551059A
:10156000F1F0EA01F5CFD383C28340815181840F2A
:10157000951FC817D90759F488819981840F951F41
:101580000296918380838A819B8193838283211534
:10159000310529F4F0933B04E0933A043DC0E9019E
:1015A000FB83EA8349915991C40FD51FEC17FD07BE
:1015B00061F480819181840F951F0296E9019983DE
:1015C0008883828193819B838A83E0E0F0E0129696
:1015D0008D919C911397009719F0FD01DC01F7CFD5
:1015E0008D919C9111979D012E5F3F4F820F931F0C
:1015F00020913804309139042817390769F430975D
:1016000029F410923B0410923A0402C01382128211
:10161000B0933904A0933804DF91CF9108956F926D
:101620007F928F929F92AF92BF92CF92DF92EF9272
:10163000FF920F931F93CF93DF93009781F4CB0119
:10164000DF91CF911F910F91FF90EF90DF90CF909E
:10165000BF90AF909F908F907F906F90BFCEFC0116
:10166000E60FF71F9C0122503109E217F30708F437
:10167000A5C0EC01D9010D911C9111970617170710
:10168000A8F00530110508F497C0C8010497861723
:10169000970708F491C002501109061B170B01931C
:1016A00011936D937C93CF0131DF86C05B01A01A4B
:1016B000B10A4C01800E911EA0913A04B0913B04F6
:1016C000612C712CE12CF12C109709F446C08D91FE
:1016D0009C911197A815B905B1F56C0142E0C40EB3
:1016E000D11CCA14DB0478F14C018A189B086401F0
:1016F00042E0C40ED11C1296BC9012971396AC9186
:10170000B5E0CB16D10440F0B282A38391828082EF
:10171000D9016D937C9309C00E5F1F4F800F911FFD
:10172000F90191838083EB2DFA2FE114F10431F05C
:10173000D7011396FC93EE9312973EC0F0933B04AF
:10174000E0933A0439C06816790608F43C017D013B
:1017500012960D90BC91A02DB7CF80913804909136
:10176000390488169906E1F466167706C8F4809164
:10177000000290910102009741F48DB79EB740910D
:10178000040250910502841B950BE817F907B0F489
:10179000F0933904E0933804F901718360830CC03D
:1017A000CB011CDE7C01009749F0A801BE011BD0D3
:1017B000CE01ACDEC70104C0CE0102C080E090E0E3
:1017C000DF91CF911F910F91FF90EF90DF90CF901D
:1017D000BF90AF909F908F907F906F90089581E021
:1017E00090E0F89419C0FB01DC0102C001900D9259
:1017F00041505040D8F70895FB01DC018D910190D4
:1018000080190110D9F3990B0895FB01DC010190B7
:101810000D920020E1F7089511E0C5E1D1E000E06C
:1018200005C0802FFE01D2DD2196011DC631D107F2
:0A18300080E00807B1F7F894FFCF3D
:10183A0000003C0480000000000001026F019901D1
:10184A004D02CA01A801BC012020496E6974696170
:10185A006C6973696E672072656C617973200063C5
:10186A006C6F73656400564D4450565F317C315F2E
:10187A00564D4450560D0A0020206578697420732D
:10188A00657475702000564D4450455F003A323AEF
:10189A00007C005F564D4450450072656365697669
:1018AA006564204F530057616974696E6720666FDB
:1018BA007220466C617020746F206F70656E2020F4
:1018CA0000466C6170206E6F77206F70656E202005
:1018DA00002020656E64206F6620736875747465D5
:1018EA0072206F70656E20726F7574696E65200064
:1018FA00656E64696E672052657620636F756E74D3
:10190A00206973203A20006F70656E002020636C96
:10191A006F73696E6720736875747465722000202E
:10192A0057616974696E6720666F7220666C6170B0
:10193A0020746F20636C6F7365200020466C6170A1
:10194A00206E6F7720636C6F7365642000202065BA
:10195A006E64206F66207368757474657220636C98
:0E196A006F73656420726F7574696E6520007E
:020000023000CC
:10E000000D9489F10D94B2F10D94B2F10D94B2F129
:10E010000D94B2F10D94B2F10D94B2F10D94B2F1F0
:10E020000D94B2F10D94B2F10D94B2F10D94B2F1E0
:10E030000D94B2F10D94B2F10D94B2F10D94B2F1D0
:10E040000D94B2F10D94B2F10D94B2F10D94B2F1C0
:10E050000D94B2F10D94B2F10D94B2F10D94B2F1B0
:10E060000D94B2F10D94B2F10D94B2F10D94B2F1A0
:10E070000D94B2F10D94B2F10D94B2F10D94B2F190
:10E080000D94B2F10D94B2F10D94B2F10D94B2F180
:10E090000D94B2F10D94B2F10D94B2F10D94B2F170
:10E0A0000D94B2F10D94B2F10D94B2F10D94B2F160
:10E0B0000D94B2F10D94B2F10D94B2F10D94B2F150
:10E0C0000D94B2F10D94B2F10D94B2F10D94B2F140
:10E0D0000D94B2F10D94B2F10D94B2F10D94B2F130
:10E0E0000D94B2F141546D656761323536300041AF
:10E0F000726475696E6F206578706C6F72657220DE
:10E1000073746B3530305632206279204D4C530099
:10E11000426F6F746C6F616465723E004875683F52
:10E1200000436F6D70696C6564206F6E203D200048
:10E130004350552054797065202020203D20005FF9
:10E140005F4156525F415243485F5F3D2000415658
:10E1500052204C696243205665723D20004743437C
:10E160002056657273696F6E203D20004350552024
:10E1700049442020202020203D20004C6F7720663D
:10E18000757365202020203D20004869676820665F
:10E190007573652020203D200045787420667573D6
:10E1A00065202020203D20004C6F636B2066757336
:10E1B000652020203D20004D617220203720323024
:10E1C000313300312E362E3800342E332E350056A2
:10E1D00023202020414444522020206F7020636F70
:10E1E00064652020202020696E73747275637469E1
:10E1F0006F6E2061646472202020496E74657272B3
:10E20000757074006E6F20766563746F7200726A49
:10E210006D702020006A6D70200057686174207056
:10E220006F72743A00506F7274206E6F7420737541
:10E2300070706F72746564004D7573742062652030
:10E2400061206C6574746572002000577269747483
:10E25000696E672045450052656164696E672045B7
:10E26000450045452065727220636E743D00504F35
:10E27000525400303D5A65726F2061646472003FF1
:10E280003D43505520737461747300403D454550C3
:10E29000524F4D207465737400423D426C696E6B41
:10E2A000204C454400453D44756D70204545505215
:10E2B0004F4D00463D44756D7020464C415348001B
:10E2C000483D48656C70004C3D4C69737420492F83
:10E2D0004F20506F72747300513D51756974005234
:10E2E0003D44756D702052414D00563D73686F7707
:10E2F00020696E7465727275707420566563746FF0
:10E30000727300593D506F727420626C696E6B00BD
:10E310002A0011241FBECFEFD1E2DEBFCDBF01E046
:10E320000CBF12E0A0E0B2E0EEE1FDEF03E00BBFB6
:10E3300002C007900D92A030B107D9F712E0A0E01B
:10E34000B2E001C01D92AE30B107E1F70F9460F367
:10E350000D948DFE01E20EBF0FEF0DBF11241FBE05
:10E360000D9460F30D9400F020E030E040ED57E0B4
:10E3700005C0FA013197F1F72F5F3F4F2817390792
:10E38000C0F308959C01260F311DC901A0E0B0E043
:10E390002F5F3F4FABBFFC018791882361F08093D3
:10E3A000C6008091C00086FFFCCF8091C0008064D1
:10E3B0008093C000EACF08958DE08093C6008091DD
:10E3C000C00086FFFCCF8091C00080648093C000B5
:10E3D0008AE08093C6008091C00086FFFCCF8091C8
:10E3E000C00080648093C00008950F94C2F10F9420
:10E3F000DCF10895FC019081992359F09093C600B7
:10E400008091C00086FFFCCF8091C0008064809323
:10E41000C0003196992379F70895282F982F929567
:10E420009F70892F805D8A3308F0895F8093C600D2
:10E430008091C00086FFFCCF8091C00080648093F3
:10E44000C000822F8F70982F905D9A3308F0995FEB
:10E450009093C6008091C00086FFFCCF8091C000E1
:10E4600080648093C00008959C01FB01853691056E
:10E470001CF46330710594F0C90164E670E00F94F8
:10E480002EFE605D7F4F6093C6008091C00086FFC6
:10E49000FCCF8091C00080648093C0002B30310598
:10E4A00014F43297B4F0C90164E670E00F942EFEC4
:10E4B0006AE070E00F942EFE605D7F4F6093C600AF
:10E4C0008091C00086FFFCCF8091C0008064809363
:10E4D000C000C9016AE070E00F942EFEC0968093E0
:10E4E000C6008091C00086FFFCCF8091C000806490
:10E4F0008093C00008951F93182F8EE692EE60E07F
:10E500000F94C2F11093C6008091C00086FFFCCF2B
:10E510008091C00080648093C0000F94DCF11F9153
:10E5200008952F923F924F925F926F927F928F92B7
:10E530009F92AF92BF92CF92DF92EF92FF920F9392
:10E540001F93DF93CF93CDB7DEB762970FB6F894E2
:10E55000DEBF0FBECDBF382E622ECA01DB015C01CB
:10E560006D01772420E2222E2E010894411C511CBB
:10E570008BC081E0A81680E0B80681E0C80680E084
:10E58000D80628F0C601AA27BB270F940DF2BB2797
:10E59000AD2D9C2D8B2D0F940DF28A2D0F940DF225
:10E5A0002092C6008091C00086FFFCCF8091C00001
:10E5B00080648093C0009DE29093C6008091C0006B
:10E5C00086FFFCCF8091C00080648093C0002092C1
:10E5D000C6008091C00086FFFCCF8091C00080649F
:10E5E0008093C00019828601750188249924A1E0D6
:10E5F0003A1651F03A1620F0B2E03B1661F409C029
:10E600000BBFF701779007C0C7010F9477FE782EF4
:10E6100002C0F7017080872D0F940DF22092C60082
:10E620008091C00086FFFCCF8091C0008064809301
:10E63000C000872D8052F401EF70F0708F3520F408
:10E64000E40DF51D708204C0E40DF51D8EE280839B
:10E650000894E11CF11C011D111D0894811C911CE2
:10E6600090E18916910409F0C2CF80E190E0A0E02A
:10E67000B0E0A80EB91ECA1EDB1E198AC2010F9493
:10E68000FAF10F94DCF16A94662009F072CF629679
:10E690000FB6F894DEBF0FBECDBFCF91DF911F91B3
:10E6A0000F91FF90EF90DF90CF90BF90AF909F9031
:10E6B0008F907F906F905F904F903F902F90089534
:10E6C0002F923F924F925F926F927F928F929F9282
:10E6D000AF92BF92CF92DF92EF92FF920F931F9370
:10E6E000DF93CF93CDB7DEB7CD53D1400FB6F894BB
:10E6F000DEBF0FBECDBF01E20EBF0FEF0DBF94B75F
:10E70000F894A89514BE80916000886180936000A1
:10E7100010926000789493FF05C0E0910002F091A0
:10E7200001021995279A2F9A8091C00082608093E8
:10E73000C00080E18093C40088E18093C1000000A4
:10E74000EE24FF24870144E0A42EB12CCC24DD2448
:10E7500024C0C5010197F1F70894E11CF11C011DCB
:10E76000111D21E2E2162EE4F20620E0020720E06D
:10E77000120718F031E0C32ED12CC801B70127ECE5
:10E780003BE140E050E00F9441FE611571058105C9
:10E79000910519F485B1805885B98091C00087FD35
:10E7A00003C0C114D104A9F2A6014F5F5F4FC25E3E
:10E7B000DE4F59834883CE51D140C25EDE4F8881FF
:10E7C0009981CE51D140019711F00D9410FEC05D9A
:10E7D000DE4F19821882C053D14060E0C15DDE4F28
:10E7E0001882CF52D14088249924C35DDE4F19820C
:10E7F0001882CD52D140C05EDE4F188219821A8233
:10E800001B82C052D140CE5CDE4F188219821A8220
:10E810001B82C253D140EE24FF2487010BBFF701B6
:10E8200007911691C45CDE4F19830883CC53D14005
:10E830000D940BFEC25EDE4F28813981CE51D1404E
:10E840002130310509F52091C600C25EDE4F1982E4
:10E850001882CE51D14022C02F5F3F4F4F4F5F4FA4
:10E86000213082E138078AE7480780E0580780F0C6
:10E87000C45CDE4FE881F981CC53D140EF5FFF4F9C
:10E8800019F0EE27FF27099420E030E040E050E047
:10E890008091C00087FFE0CF2091C600C35DDE4FAE
:10E8A00048815981CD52D1404F5F5F4FC35DDE4FEC
:10E8B00059834883CD52D140213209F063C64A3092
:10E8C000510508F05FC60894811C911C53E0851621
:10E8D000910409F059C600E010E018C081E280936D
:10E8E000C6008091C00086FFFCCF8091C00080648C
:10E8F0008093C0002F5F3F4F2931310579F70F9486
:10E90000DCF10F5F1F4F0530110519F020E030E0FA
:10E91000E5CF10920A0210920B0210920C02109294
:10E920000D02109206021092070210920802109235
:10E930000902109202021092030210920402109235
:10E9400005028FEE90EE60E00F94F5F180E191EE1C
:10E9500060E00F94C2F18091C00087FFFCCF9091DE
:10E96000C600903608F09F759032B8F09093C600BC
:10E970008091C00086FFFCCF8091C00080648093AE
:10E98000C000A0E2A093C6008091C00086FFFCCF2B
:10E990008091C00080648093C000983409F4D7C18E
:10E9A0009934B8F4923409F459C1933458F490333B
:10E9B00019F1903308F4E3C59F33A1F1903409F0C5
:10E9C000DEC5BDC0953409F470C1963409F0D7C5D1
:10E9D00098C1923509F42BC2933538F49C3409F46C
:10E9E000F5C1913509F0CBC518C2963509F445C279
:10E9F000993509F0C4C567C483E792EE62E00F94CD
:10EA0000F5F110920602109207021092080210927D
:10EA1000090210920A0210920B0210920C0210923C
:10EA20000D0213C18FE792EE62E00F94F5F18FEEC5
:10EA300090EE60E00F94F5F181E291EE60E00F94CA
:10EA4000C2F187EB91EE60E00F94F5F180E391EE77
:10EA500060E00F94C2F184EE90EE60E00F94F5F167
:10EA60008FE391EE60E00F94C2F186E090E061E008
:10EA700070E00F9434F20F94DCF18DE591EE60E0DC
:10EA80000F94C2F189EC91EE60E00F94F5F18EE401
:10EA900091EE60E00F94C2F183EC91EE60E00F9490
:10EAA000F5F18CE691EE60E00F94C2F18EE10F94E7
:10EAB0000DF288E90F940DF281E00F940DF20F949E
:10EAC000DCF18BE791EE60E00F94C2F119E0E0E039
:10EAD000F0E010935700E4918E2F0F940DF20F94F5
:10EAE000DCF18AE891EE60E00F94C2F1E3E0F0E03F
:10EAF00010935700E4918E2F0F940DF20F94DCF1D8
:10EB000089E991EE60E00F94C2F1E2E0F0E0109349
:10EB10005700E4918E2F0F940DF20F94DCF188EAE8
:10EB200091EE60E00F94C2F1E1E0F0E01093570045
:10EB30001491812F0F940DF20F94DCF107CF8BE825
:10EB400092EE62E00F94F5F18BE492EE60E00F94A8
:10EB5000F5F10F94DCF100E010E019C0C8016F2D51
:10EB60000F947FFEFF2031F489E492EE60E00F9471
:10EB7000C2F10BC0F092C6008091C00086FFFCCFAE
:10EB80008091C00080648093C0000F5F1F4FC80158
:10EB900081519F41A0E0B0E0ABBFFC01F790BAE229
:10EBA000FB1621F0E2E000301E07C1F60F94DCF105
:10EBB0000F94DCF187E592EE60E00F94F5F10F948D
:10EBC000DCF1CC24DD2400E010E01EC0C8010F946D
:10EBD00077FEF82E882331F489E492EE60E00F94FA
:10EBE000C2F10BC08093C6008091C00086FFFCCFAD
:10EBF0008091C00080648093C000FE1419F00894D6
:10EC0000C11CD11C0F5F1F4FC80181519F41A0E063
:10EC1000B0E0ABBFFC01E790FAE2EF1621F022E092
:10EC20000030120799F60F94DCF10F94DCF182E6C4
:10EC300092EE60E00F94C2F1C60161E070E00F94C3
:10EC400034F20F94DCF10F94DCF110920202109276
:10EC50000302109204021092050278CE89E992EE26
:10EC600062E00F94F5F1279A2F9A16C02F9880E052
:10EC700090E0E0EDF7E03197F1F7019684369105E9
:10EC8000C1F72F9A80E090E0E0EDF7E03197F1F7DF
:10EC9000019684369105C1F78091C00087FFE6CFC9
:10ECA0008091C00087FFFCCF64C485EA92EE62E0E9
:10ECB0000F94F5F140910202509103026091040219
:10ECC0007091050281E020E10F9491F2809102029F
:10ECD00090910302A0910402B091050280509F4FD1
:10ECE000AF4FBF4F8093020290930302A0930402A0
:10ECF000B093050280509041A040B04008F426CE69
:10ED0000A4CF83EB92EE62E00F94F5F140910602FE
:10ED100050910702609108027091090280E020E1A1
:10ED20000F9491F28091060290910702A09108023F
:10ED3000B091090280509F4FAF4FBF4F80930602A2
:10ED400090930702A0930802B0930902FFCD80ECD4
:10ED500092EE62E00F94F5F183E792EE60E00F949B
:10ED6000F5F18FE792EE60E00F94F5F18BE892EE0B
:10ED700060E00F94F5F189E992EE60E00F94F5F10F
:10ED800085EA92EE60E00F94F5F183EB92EE60E09D
:10ED90000F94F5F180EC92EE60E00F94F5F187ECC2
:10EDA00092EE60E00F94F5F188ED92EE60E00F9442
:10EDB000F5F18FED92EE60E00F94F5F18AEE92EEB0
:10EDC00060E00F94F5F183E093EEBDCD87EC92EE19
:10EDD00062E00F94F5F181E40F947BF282E40F94EA
:10EDE0007BF283E40F947BF284E40F947BF285E45E
:10EDF0000F947BF286E40F947BF287E40F947BF20E
:10EE000088E40F947BF28AE40F947BF28BE40F94F6
:10EE10007BF28CE40F947BF299CD88ED92EE62E068
:10EE20000F94F5F1772473948824992409C48FED05
:10EE300092EE62E00F94F5F140910A0250910B02BC
:10EE400060910C0270910D0282E020E10F9491F22A
:10EE500080910A0290910B02A0910C02B0910D02D8
:10EE600080509F4FAF4FBF4F80930A0290930B0289
:10EE7000A0930C02B0930D0269CD8AEE92EE62E08F
:10EE80000F94F5F184EE90EE60E00F94F5F18FECC5
:10EE900091EE60E00F94F5F1662477244301CC5D98
:10EEA000DE4F19821882C452D140D401C301B695F5
:10EEB000A79597958795CA5DDE4F88839983AA8326
:10EEC000BB83C652D140CC5DDE4FA881B981C4520C
:10EED000D1401196CC5DDE4FB983A883C452D14096
:10EEE000CD0162E070E00F9434F2B0E2B093C6005E
:10EEF0008091C00086FFFCCF8091C0008064809329
:10EF0000C000EDE2E093C6008091C00086FFFCCF18
:10EF10008091C00080648093C000F0E2F093C6004E
:10EF20008091C00086FFFCCF8091C00080648093F8
:10EF3000C000CA5DDE4FE880F9800A811B81C6529D
:10EF4000D140BB27A12F902F8F2D0F940DF2CA5DBA
:10EF5000DE4F8881C652D1400F940DF2B0E2FB2EF5
:10EF6000F092C6008091C00086FFFCCF8091C00067
:10EF700080648093C0000DE30093C6008091C000C0
:10EF800086FFFCCF8091C00080648093C00010E2B7
:10EF90001093C6008091C00086FFFCCF8091C00016
:10EFA00080648093C0008BBEF3012791C65DDE4F65
:10EFB0002883CA52D140A22EBB24CC24DD2408943D
:10EFC000611C711C811C911C8BBEF3018791282E42
:10EFD0003324442455240894611C711C811C911C09
:10EFE0008BBEF3013791C55DDE4F3883CB52D140E4
:10EFF0000894611C711C811C911C8BBEF30147910C
:10F00000C45DDE4F4883CC52D140ADEFEA2EAFEF66
:10F01000FA2EAFEF0A2FAFEF1A2F6E0C7F1C801E57
:10F02000911E142D032DF22CEE24EA0CFB1C0C1D5A
:10F030001D1D0F940DF220E22093C6008091C000A8
:10F0400086FFFCCF8091C00080648093C000C65DC5
:10F05000DE4F8881CA52D1400F940DF230E23093D6
:10F06000C6008091C00086FFFCCF8091C000806404
:10F070008093C000C45DDE4F8881CC52D1400F9494
:10F080000DF240E24093C6008091C00086FFFCCFA5
:10F090008091C00080648093C000C55DDE4F888190
:10F0A000CB52D1400F940DF250E25093C6008091A4
:10F0B000C00086FFFCCF8091C00080648093C000B8
:10F0C0008FEFE8168FEFF80680E0080780E018075A
:10F0D00031F484E092EE60E00F94C2F1DFC0D80119
:10F0E000C7018070907CA070B0708050904CA040A0
:10F0F000B040D1F52FEF3FE340E050E0E222F322B1
:10F1000004231523CA5DDE4FA880B980CA80DB8046
:10F11000C652D140AE0CBF1CC01ED11EAA0CBB1CD7
:10F12000CC1CDD1C8EE092EE60E00F94C2F1BB2798
:10F13000A12F902F8F2D0F940DF28E2D0F940DF285
:10F1400030E23093C6008091C00086FFFCCF8091F2
:10F15000C00080648093C0004EE34093C60080915D
:10F16000C00086FFFCCF87C08EE09EEFA0E0B0E03D
:10F17000E822F9220A231B239CE0E91694E9F90608
:10F1800090E0090790E0190709F088C0C45DDE4FE0
:10F19000A881CC52D140EA2EFF2400E010E0102FCD
:10F1A0000F2DFE2CEE24C55DDE4FB881CB52D14031
:10F1B000EB0EF11C011D111DD601C501817090706F
:10F1C000A070B070DC0199278827E80EF91E0A1F8D
:10F1D0001B1F20EF30E040E050E0A222B322C42207
:10F1E000D52241E1AA0CBB1CCC1CDD1C4A95D1F7F1
:10F1F000EA0CFB1C0C1D1D1D81E090E0A0E0B0E0BE
:10F20000282239224A225B2235E1220C331C441C7D
:10F21000551C3A95D1F7E20CF31C041D151D57013E
:10F220006801AA0CBB1CCC1CDD1C85E192EE60E0E1
:10F230000F94C2F1C801AA27BB270F940DF2BB2778
:10F24000A12F902F8F2D0F940DF28E2D0F940DF274
:10F2500090E29093C6008091C00086FFFCCF809121
:10F26000C00080648093C000AEE3A093C60080918C
:10F27000C00086FFFCCF8091C00080648093C000F6
:10F28000C601AA27BB270F940DF2BB27AD2D9C2DDD
:10F290008B2D0F940DF28A2D0F940DF20F94DCF14B
:10F2A000CC5DDE4FE881F981C452D140F99709F471
:10F2B0004DCBF4E0EF2EF12C012D112D6E0C7F1CA7
:10F2C000801E911EF2CD83E093EE62E00F94F5F183
:10F2D0008AE192EE60E00F94C2F18091C00087FF56
:10F2E000FCCF1091C6001F751093C6008091C0001E
:10F2F00086FFFCCF8091C00080648093C0000F9493
:10F30000DCF1812F81548A3108F036C1163409F4BA
:10F3100095C0173490F4133409F44EC0143430F40B
:10F320001134F1F0123409F01DC130C0143409F465
:10F3300059C0153409F016C16BC01A3409F4C4C0A1
:10F340001B3438F4173409F48FC0183409F00AC19B
:10F35000A1C01B3409F4D2C01C3409F003C1E8C0B9
:10F360008FEF81B90DC082B1809582B980E090E0C5
:10F37000E0EDF7E03197F1F70196883C9105C1F790
:10F380008091C00087FFEFCF12B8EFC08FEF84B934
:10F390000DC085B1809585B980E090E0E0EDF7E0A3
:10F3A0003197F1F70196883C9105C1F78091C00033
:10F3B00087FFEFCF15B8D9C08FEF87B90DC088B1DF
:10F3C000809588B980E090E0E0EDF7E03197F1F7C3
:10F3D0000196883C9105C1F78091C00087FFEFCF6F
:10F3E00018B8C3C08FEF8AB90DC08BB180958BB9A7
:10F3F00080E090E0E0EDF7E03197F1F70196883C8E
:10F400009105C1F78091C00087FFEFCF1BB8ADC059
:10F410008FEF8DB90DC08EB180958EB980E090E0F0
:10F42000E0EDF7E03197F1F70196883C9105C1F7DF
:10F430008091C00087FFEFCF1EB897C08FEF80BBD1
:10F440000DC081B3809581BB80E090E0E0EDF7E0F6
:10F450003197F1F70196883C9105C1F78091C00082
:10F4600087FFEFCF11BA81C08FEF83BB0DC084B38C
:10F47000809584BB80E090E0E0EDF7E03197F1F714
:10F480000196883C9105C1F78091C00087FFEFCFBE
:10F4900014BA6BC08FEF809301010FC080910201FD
:10F4A00080958093020180E090E0E0EDF7E03197F5
:10F4B000F1F70196883C9105C1F78091C00087FF64
:10F4C000EDCF1092020151C08FEF809304010FC065
:10F4D0008091050180958093050180E090E0E0ED4A
:10F4E000F7E03197F1F70196883C9105C1F78091DB
:10F4F000C00087FFEDCF1092050137C08FEF8093DA
:10F5000007010FC08091080180958093080180E079
:10F5100090E0E0EDF7E03197F1F70196883C910536
:10F52000C1F78091C00087FFEDCF109208011DC088
:10F530008FEF80930A010FC080910B01809580931B
:10F540000B0180E090E0E0EDF7E03197F1F70196F4
:10F55000883C9105C1F78091C00087FFEDCF1092E4
:10F560000B0103C085E292EEEEC98091C00087FFD7
:10F57000FCCF8091C600EAC988E392EEE4C98CE131
:10F5800091EEE1C988249924933011F1943028F444
:10F59000913089F09230B8F408C0953061F195301F
:10F5A000F0F0963009F048C043C02B3109F042C951
:10F5B00091E06BE13FC96227C15DDE4F2883CF52E6
:10F5C000D14092E037C9B22FA0E0622793E032C960
:10F5D000822F90E0A82BB92B622794E02BC92E3004
:10F5E00009F039C3622795E0C05DDE4F19821882A9
:10F5F000C053D1401FC9E1E0F0E0EC0FFD1FC05D3A
:10F60000DE4F08811981C053D140E00FF11F2083E4
:10F610000F5F1F4FC05DDE4F19830883C053D14079
:10F6200062270A171B0709F005C9D80196E002C92D
:10F63000261709F010C303C0973009F0FBC87724E0
:10F640009981933109F412C19431C8F4963009F4C8
:10F65000D8C0973050F4923009F406C1933009F4C1
:10F660006DC0913009F059C253C0913109F477C08F
:10F67000923108F0BBC0903109F04FC2F5C098310B
:10F6800009F487C0993150F4953109F4EFC09531F0
:10F6900008F4C6C1963109F040C2C2C19A3109F4DA
:10F6A0006CC09A3108F491C09B3109F45BC09D3164
:10F6B00009F033C29D81903359F48F81882311F46E
:10F6C0009EE11CC0813011F091E018C098E916C08D
:10F6D000892F807591F0903539F4E0E0F0E089E011
:10F6E0008093570094910AC0983539F4E3E0F0E034
:10F6F00089E080935700949101C090E01A821B82A8
:10F700008D818C831D829E831F8227E030E009C299
:10F710001A8288E08B8381E48C8386E58D8382E581
:10F720008E8389E48F8383E5888780E589878FE5E9
:10F730008A8782E38B872BE030E0F3C18A818139AD
:10F7400041F0823941F0803911F48FE005C080E04A
:10F7500003C082E001C08AE01A828B8344C0772410
:10F76000739482C08D81882311F48EE12CC0813086
:10F7700011F081E028C088E926C01A82E1E0F0E0BB
:10F7800089E08093570084918B831C8224E030E0D1
:10F79000C8C18B81803589F48C81883039F4E2E0EE
:10F7A000F0E089E08093570084910DC0E0E0F0E044
:10F7B00089E080935700849106C0E3E0F0E089E09F
:10F7C0008093570084911A82DFCF8D81836C99E0FA
:10F7D000E1E0F0E0082E90935700E89507B600FCB2
:10F7E000FDCF1A821B8223E030E09BC180EC8A832C
:10F7F000CE5CDE4F188219821A821B82C253D1401E
:10F800008EC18A8190E0A0E0B0E0582F44273327D2
:10F8100022278B8190E0A0E0B0E0DC0199278827C7
:10F82000282B392B4A2B5B2B8D8190E0A0E0B0E098
:10F83000282B392B4A2B5B2B8C8190E0A0E0B0E089
:10F84000BA2FA92F982F8827282B392B4A2B5B2BCF
:10F85000220F331F441F551FC05EDE4F288339839C
:10F860004A835B83C052D1401A8259C13A81C95C34
:10F87000DE4F3883C753D140CA5CDE4F1882C6536F
:10F88000D1408B81C82EDD24CA5CDE4F488159816E
:10F89000C653D140C42AD52A933109F082C0CE5C28
:10F8A000DE4F88819981AA81BB81C253D1408050AB
:10F8B000904CA340B04030F583E0CE5CDE4FE88052
:10F8C000F9800A811B81C253D140F70100935B008C
:10F8D00080935700E89507B600FCFDCFCE5CDE4F65
:10F8E000088119812A813B81C253D14000501F4FAA
:10F8F0002F4F3F4FCE5CDE4F088319832A833B8313
:10F90000C253D140C05EDE4F488159816A817B81FC
:10F91000C052D140DE011B9631E08C9111962C91A2
:10F9200011971296C75CDE4F2883C953D140C85C3B
:10F93000DE4F1882C853D14090E0C85CDE4FE881AA
:10F94000F981C853D1408E2B9F2B0C01FA01609393
:10F950005B0030935700E89511244E5F5F4F6F4F67
:10F960007F4F0EEFE02E0FEFF02ECE0CDF1CC114F8
:10F97000D10499F685E0C05EDE4F088119812A81A5
:10F980003B81C052D140F80120935B008093570027
:10F99000E89507B600FCFDCF81E180935700E8951C
:10F9A00035C0C05EDE4F88819981AA81BB81C0527B
:10F9B000D140B695A795979587957C018601ABE0D8
:10F9C000AA2EB12CAC0EBD1E0BC0D5016D915D01F0
:10F9D000C7010F947FFE0894E11CF11C01501040F8
:10F9E0000115110591F7A60160E070E0440F551F65
:10F9F000661F771FC05EDE4FE880F9800A811B8199
:10FA0000C052D1404E0D5F1D601F711F1A82C05E33
:10FA1000DE4F488359836A837B83C052D1407FC0C5
:10FA2000FA80C55CDE4FF882CB53D140C65CDE4F16
:10FA30001882CA53D1408B81C82EDD24C65CDE4FAC
:10FA400008811981CA53D140C02AD12A1A828981DA
:10FA5000BE016D5F7F4F843121F59601C05EDE4FA0
:10FA6000E880F9800A811B81C052D1400BBFF701A9
:10FA700087919691DB018C9311969C936E5F7F4FDB
:10FA8000D801C7010296A11DB11DC05EDE4F88835B
:10FA90009983AA83BB83C052D14022503040F1F6F3
:10FAA00036C0C05EDE4F288139814A815B81C052F9
:10FAB000D1400894C108D108760100E010E0089414
:10FAC000C11CD11C0894E11CF11C011D111DE20E8A
:10FAD000F31E041F151F21BDBB27A52F942F832FB5
:10FAE00082BD2F5F3F4F4F4F5F4FF89A80B5DB01CC
:10FAF0008D93BD012E153F054007510761F7C05E8C
:10FB0000DE4F288339834A835B83C052D1409601FC
:10FB10002D5F3F4FFB01108204C080EC8A8322E0FE
:10FB200030E08BE18093C6008091C00086FFFCCF5F
:10FB30008091C00080648093C000C15DDE4FF88179
:10FB4000CF52D140F093C6008091C00086FFFCCF19
:10FB50008091C00080648093C000432F3093C60022
:10FB60008091C00086FFFCCF8091C00080648093AC
:10FB7000C000922F2093C6008091C00086FFFCCF6A
:10FB80008091C00080648093C0008EE08093C600A6
:10FB90008091C00086FFFCCF8091C000806480937C
:10FBA000C00065E1C15DDE4FE880CF52D1406E25D7
:10FBB00069276427FE01319610C090819093C6009A
:10FBC0008091C00086FFFCCF31968091C000806498
:10FBD0008093C0006927215030402115310569F715
:10FBE0006093C6008091C00086FFFCCF8091C0006A
:10FBF00080648093C00085B1805885B9772081F4F6
:10FC0000C15DDE4F0881CF52D1400F5FC15DDE4F35
:10FC10000883CF52D14090E0A0E0B0E00D941AF4F8
:10FC200027982F9880E090E020ED37E0F901319798
:10FC3000F1F7019684369105C9F700008091C00064
:10FC40008D7F8093C00081E180935700E895EE2777
:10FC5000FF270994FFCF90E00D941AF497FB092E2B
:10FC600007260AD077FD04D02ED006D000201AF443
:10FC7000709561957F4F0895F6F7909581959F4F08
:10FC80000895A1E21A2EAA1BBB1BFD010DC0AA1FDD
:10FC9000BB1FEE1FFF1FA217B307E407F50720F0F5
:10FCA000A21BB30BE40BF50B661F771F881F991F70
:10FCB0001A9469F760957095809590959B01AC01B9
:10FCC000BD01CF010895AA1BBB1B51E107C0AA1FAC
:10FCD000BB1FA617B70710F0A61BB70B881F991FED
:10FCE0005A95A9F780959095BC01CD010895F99991
:10FCF000FECF92BD81BDF89A992780B50895262F31
:10FD0000F999FECF1FBA92BD81BD20BD0FB6F89400
:0EFD1000FA9AF99A0FBE01960895F894FFCF63
:040000033000E000E9
:00000001FF