:1000000015C1000043C1000041C100003FC1000014
:100010003DC100003BC1000039C1000037C10000F4
:1000200035C1000027C6000025C6000023C6000019
:100030002DC100002BC1000029C1000027C1000014
:1000400025C1000023C1000021C100001FC1000024
:100050001DC100001BC1000019C10000C1C5000086
:1000600015C1000087C500005CC500000FC100007D
:100070000DC100000BC1000009C1000007C1000054
:1000800005C1000003C1000001C10000FFC0000065
:10009000FDC00000FBC00000F9C00000F7C0000078
:1000A000F5C00000F3C00000F1C00000EFC0000088
:1000B000EDC00000EBC00000E9C00000E7C0000098
:1000C000E5C00000E3C00000E1C00000DFC00000A8
:1000D000DDC00000DBC00000D9C00000D7C00000B8
:1000E000D5C00000C002C302B202B602BC02FA02CE
:1000F000C702CB02D102D502D902DF02E302E70236
:10010000FA02ED02F102F5020000210024002700AE
:100110002A002D0030003300010100000401070116
:100120000A0100002200250028002B002E003100CB
:10013000340002010000050108010B01000020004D
:100140002300260029002C002F00320000010000AF
:10015000030106010901050505050705080808084A
:10016000020202020A0A080804040404010101014F
:10017000010101010303030303030303040707074A
:100180000C0C0C0C0C0C0C0C0202020206060606EF
:10019000060606060B0B0B0B0B0B0B0B01021020BC
:1001A00020080810204010204080020102010804AD
:1001B0000201010204081020408080402010080441
:1001C000020180040201804020100804020108049A
:1001D00002010102040810204080010204081020DE
:1001E000408000000A0B02090C0D0E0807030401F1
:1001F00000000000000000000000000000000000FF
:1002000000000000000000000000000000001211CB
:1002100010000000000000000000000000000000CE
:1002200000000000000000004406850911241FBEE4
:10023000CFEFD1E2DEBFCDBF00E00CBF24E0A2E8EB
:10024000B3E001C01D92A038B207E1F713E0A0E0CF
:10025000B2E0ECE2F8E100E00BBF02C007900D92C3
:10026000A238B107D9F711E0C5E1D1E000E006C03E
:1002700021970109802FFE010E94DF09C431D107B7
:1002800080E00807A9F743D50C94050CB9CEE1E945
:10029000F3E0A089B18982E08C93A485B5851C9296
:1002A000A685B7858FEC8C93108EA489B58986E0DE
:1002B0008C93A289B3898C9180618C93A289B38934
:1002C0008C9188608C93A289B3898C9180688C937F
:1002D0000288F389E02D80818F7D80830895CF92FD
:1002E000DF92EF92FF920F931F93CF93DF936C01F6
:1002F0007A018B01C0E0D0E0CE15DF0581F0D80196
:100300006D918D01D601ED91FC910190F081E02D70
:10031000C6011995892B11F02196EECF7E01C701F8
:10032000DF91CF911F910F91FF90EF90DF90CF90D1
:100330000895FC01538D448D252F30E0842F90E0EB
:10034000821B930B541710F0CF96089501970895D0
:10035000FC01918D828D981761F0828DDF01A80FCD
:10036000B11D5D968C91928D9F5F9F73928F90E0EF
:1003700008958FEF9FEF0895FC01918D828D98175E
:1003800031F0828DE80FF11D858D90E008958FEF9B
:100390009FEF0895FC01918D228D892F90E0805C64
:1003A0009F4F821B91098F739927089581E993E0EC
:1003B000F1DF21E0892B09F420E0822F0895FC0170
:1003C000848DDF01A80FB11DA35ABF4F2C91848DDE
:1003D00090E001968F739927848FA689B7892C9313
:1003E000A089B1898C91837080648C93938D848D66
:1003F000981306C00288F389E02D80818F7D808369
:100400000895EF92FF920F931F93CF93DF93EC0128
:1004100081E0888F9B8D8C8D981305C0E889F989C0
:10042000808185FD25C0F62E0B8D10E00F5F1F4FDC
:100430000F731127E02E8C8DE8120BC00FB607FC4E
:10044000FACFE889F989808185FFF5CFCE01B7DF42
:10045000F2CF8B8DFE01E80FF11DE35AFF4FF082C2
:100460009FB7F8940B8FEA89FB89808180620AC06C
:100470009FB7F894EE89FF896083E889F9898081C4
:100480008370806480839FBF81E090E0DF91CF9193
:100490001F910F91FF90EF900895CF93DF93EC01A0
:1004A000888D8823C1F0EA89FB89808185FD05C09C
:1004B000A889B9898C9186FD0EC00FB607FCF5CFCF
:1004C000808185FFF2CFA889B9898C9185FFEDCF16
:1004D000CE0175DFE8CFDF91CF91089580E090E005
:1004E000892B19F063DF811125C080E090E0892B12
:1004F00041F080E090E0892B21F00E940000811102
:100500001CC080E090E0892B41F080E090E0892BD6
:1005100021F00E940000811113C080E090E0892B3F
:10052000A1F080E090E0892B81F00E940000811111
:100530000AC008950E940000D8CF0E940000E1CFB9
:100540000E940000EACF0C940000089590E0FC01A6
:100550003197E231F10508F04DC08827EE58FF4F82
:100560008F4F2DC7809180008F7703C080918000CE
:100570008F7D80938000089580918000877FF9CFE0
:1005800084B58F7702C084B58F7D84BD0895809136
:10059000B0008F7703C08091B0008F7D8093B00052
:1005A0000895809190008F7707C0809190008F7D93
:1005B00003C080919000877F809390000895809180
:1005C000A0008F7707C08091A0008F7D03C080912D
:1005D000A000877F8093A0000895809120018F77ED
:1005E00007C0809120018F7D03C080912001877F0B
:1005F000809320010895CF93DF93282F30E0F901F5
:10060000EE51FE4F8491F901E456FE4FD491F90169
:10061000EA5AFE4FC491CC2389F0811197DFEC2F69
:10062000F0E0EE0FFF1FE45CFE4FA591B491EC915A
:10063000ED2381E090E021F480E002C080E090E0D2
:10064000DF91CF9108951F93CF93DF93282F30E050
:10065000F901EE51FE4F8491F901E456FE4FD49119
:10066000F901EA5AFE4FC491CC23B9F0162F81113B
:100670006DDFEC2FF0E0EE0FFF1FEE5DFE4FA5915A
:10068000B4919FB7F894111104C08C91D095D823E0
:1006900002C0EC91DE2BDC939FBFDF91CF911F91C5
:1006A0000895CF93DF9390E0FC01E456FE4F249130
:1006B000FC01EA5AFE4F8491882361F190E0880F93
:1006C000991FFC01E85FFE4FC591D491FC01EE5DDE
:1006D000FE4FA591B491611109C09FB7F89488812C
:1006E000209582238883EC912E230BC0623061F425
:1006F0009FB7F8948881322F309583238883EC91BB
:100700002E2B2C939FBF06C08FB7F894E8812E2B19
:1007100028838FBFDF91CF9108953FB7F8948091E0
:10072000890390918A03A0918B03B0918C0326B525
:10073000A89B05C02F3F19F00196A11DB11D3FBF19
:10074000BA2FA92F982F8827820F911DA11DB11DA7
:10075000BC01CD0142E0660F771F881F991F4A95A3
:10076000D1F708958F929F92AF92BF92CF92DF926E
:10077000EF92FF92D2DF4B015C0188EBC82E8BE039
:10078000D82EE12CF12CC9DFDC01CB0188199909A5
:10079000AA09BB09883E9340A105B105A0F321E059
:1007A000C21AD108E108F10888EE880E83E0981E8D
:1007B000A11CB11CC114D104E104F10421F7FF9084
:1007C000EF90DF90CF90BF90AF909F908F90089563
:1007D0002FB7F89460918503709186038091870309
:1007E000909188032FBF0895089580E090E00895C8
:1007F0006115710579F0FB0101900020E9F731974F
:10080000AF01461B570BDC01ED91FC910280F38197
:10081000E02D199480E090E00895CF93DF93FC01E0
:10082000448155816081718181E993E058DDEC015B
:1008300065E472E081E993E0DBDF8C0F9D1FDF91BF
:10084000CF9108958F929F92AF92BF92EF92FF92B5
:100850000F931F93CF93DF93CDB7DEB7A1970FB65A
:10086000F894DEBF0FBECDBF7C01FA01CB0119A207
:10087000223008F42AE08E010F5D1F4F822E912C4A
:10088000A12CB12CBF01A501940177D5F901CA01B2
:10089000015011096A3014F4605D01C0695CD8012F
:1008A0006C93232B242B252B69F7B801C701A0DFFC
:1008B000A1960FB6F894DEBF0FBECDBFDF91CF91EA
:1008C0001F910F91FF90EF90BF90AF909F908F90EE
:1008D0000895CF92DF92EF92FF92CF93DF936C0156
:1008E000990FEE08FF08F7FE13C06DE281E993E06F
:1008F00088DDEC0144275527BA014C195D096E09C2
:100900007F092AE081E993E09DDFC80FD91F07C066
:100910002AE0B701A60181E993E094DFEC0165E4E8
:1009200072E081E993E064DF8C0F9D1FDF91CF912E
:10093000FF90EF90DF90CF9008950F931F93CF9388
:10094000DF93EC0155DF8C0165E472E0CE0150DFEE
:10095000800F911FDF91CF911F910F91089568E152
:1009600072E081E993E0E9DF61E084E06CDE61E060
:1009700085E069DE61E086E066DE61E083E063CE0B
:1009800037CF0F931F93CF93DF93EC018881998129
:10099000009729F02A813B812617370780F48B01C5
:1009A0006F5F7F4F35D6009761F0998388831B83F3
:1009B0000A832C813D81232B11F4FC01108281E0FC
:1009C00001C080E0DF91CF911F910F910895CF93E7
:1009D000DF93EC0188819981009709F090D5198205
:1009E00018821D821C821B821A82DF91CF9108958A
:1009F000EF92FF920F931F93CF93DF93EC01FB01D4
:100A000004811581E080F180E114F104B9F0011551
:100A10001105B1F08C819D81080F191FB801CE011D
:100A2000B0DF882359F0288139818C819D81B701FD
:100A3000820F931FE3D61D830C8302C0CE01C7DF54
:100A4000CE01DF91CF911F910F91FF90EF9008950C
:100A5000EF92FF920F931F93CF93DF93EC017B01F3
:100A60008A01BA018EDF811103C0CE01B0DF06C05A
:100A70001D830C83B70188819981C0D6CE01DF9197
:100A8000CF911F910F91FF90EF900895EF92FF92F9
:100A90000F931F93CF93DF93CDB7DEB762970FB657
:100AA000F894DEBF0FBECDBF8C01CB01F8011182DF
:100AB000108213821282158214824AE09E012F5FF7
:100AC0003F4F7901B90126D4F70101900020E9F7E1
:100AD0003197AF014E195F09B701C801B9DF6296BE
:100AE0000FB6F894DEBF0FBECDBFDF91CF911F913F
:100AF0000F91FF90EF900895FC01118210821382F4
:100B00001282158214826115710549F0FB01019072
:100B10000020E9F73197AF01461B570B99CF089595
:100B200057D61F920F920FB60F9211240BB60F9249
:100B30002F933F934F935F936F937F938F939F93E5
:100B4000AF93BF93EF93FF9381E993E038DCFF917C
:100B5000EF91BF91AF919F918F917F916F915F9135
:100B60004F913F912F910F900BBE0F900FBE0F90A2
:100B70001F9018951F920F920FB60F9211240BB66B
:100B80000F922F938F939F93EF93FF93E091A10385
:100B9000F091A2038081E091A703F091A80382FD68
:100BA00012C090818091AA038F5F8F732091AB0355
:100BB000821751F0E091AA03F0E0EF56FC4F958FB9
:100BC0008093AA0301C08081FF91EF919F918F9143
:100BD0002F910F900BBE0F900FBE0F901F90189586
:100BE0001F920F920FB60F9211242F933F938F9362
:100BF0009F93AF93BF938091850390918603A091BB
:100C00008703B09188033091840323E0230F2D37AD
:100C100020F40196A11DB11D05C026E8230F029600
:100C2000A11DB11D209384038093850390938603B7
:100C3000A0938703B09388038091890390918A03DE
:100C4000A0918B03B0918C030196A11DB11D8093DF
:100C5000890390938A03A0938B03B0938C03BF9175
:100C6000AF919F918F913F912F910F900FBE0F9059
:100C70001F9018951F920F920FB60F9211240F908C
:100C80000FBE0F901F901895E1E9F3E013821282D6
:100C900088EE93E0A0E0B0E084839583A683B783D9
:100CA0008AE092E09183808385EC90E09587848749
:100CB00084EC90E09787868780EC90E0918B808B26
:100CC00081EC90E0938B828B82EC90E0958B848B0F
:100CD00086EC90E0978B868B118E128E138E148E7D
:100CE000EEE2F4E0168217821086118612861386D1
:100CF0001486158616861786108A118A128A138A18
:100D0000148A158A6FE272E086E794E0F5CECF93FD
:100D1000DF93CDB7DEB72C970FB6F894DEBF0FBECA
:100D2000CDBF789484B5826084BD84B5816084BD74
:100D300085B5826085BD85B5816085BD80916E0079
:100D4000816080936E0010928100809181008260AA
:100D500080938100809181008160809381008091E7
:100D600080008160809380008091B10084608093D6
:100D7000B1008091B00081608093B00080919100BB
:100D800082608093910080919100816080939100B6
:100D9000809190008160809390008091A10082609A
:100DA0008093A1008091A10081608093A100809137
:100DB000A00081608093A0008091210182608093D7
:100DC0002101809121018160809321018091200186
:100DD00081608093200180917A00846080937A0002
:100DE00080917A00826080937A0080917A0081609D
:100DF00080937A0080917A00806880937A001092C4
:100E0000C100109272041092730410927404109234
:100E10007504109230041092310410923204109232
:100E20003304D6DC6B017C014B015C0188EB880E3E
:100E30008BE0981EA11CB11CCBDC6C157D058E05CA
:100E40009F0528F086169706A806B906A8F781E937
:100E500093E0909371048093700419DAB9DC609385
:100E6000300470933104809332049093330466E32A
:100E700072E0809170049091710482DDA9DC6B01B5
:100E80007C014B015C018AE0880E911CA11CB11C05
:100E90009FDC6C157D058E059F0528F0861697064C
:100EA000A806B906A8F781E080934404F0D957DD7D
:100EB00061E084E0F6DB61E085E0F3DB61E086E0A1
:100EC000F0DB61E083E0EDDB62E089E0EADB62E039
:100ED0008CE0E7DB62E08DE0E4DB62E08EE2E1DB08
:100EE00062E08FE2DEDB61E080E3DBDB61E080E398
:100EF000AADB68E472E081E993E01FDD84EFC82E8D
:100F0000DD24D394E12CF12C63DC672B682B692B57
:100F100039F45EDC623071058105910508F4F6C094
:100F200057DC00918D0310918E0320918F03309137
:100F30009003601771078207930740F460938D0355
:100F400070938E0380938F039093900300918D0391
:100F500010918E0320918F03309190034B015C011F
:100F6000801A910AA20AB30A950184010A3F110569
:100F70002105310508F4CAC060938D0370938E0378
:100F800080938F0390939003C0923C04D0923D04D1
:100F9000E0923E04F0923F0410924004109241040B
:100FA00010924204109243048091340490913504CD
:100FB000A0913604B091370480933804909339049B
:100FC000A0933A04B0933B0403DC60933404709321
:100FD00035048093360490933704FADB6093300431
:100FE000709331048093320490933304F1DB4B010E
:100FF0005C0166E572E08091700490917104C0DC40
:101000002AE041E050E060E070E08091700490914F
:10101000710418DC6DE572E08091700490917104A8
:10102000AFDC2AE0B501A4018091700490917104B5
:1010300009DC6FE572E08091700490917104A0DC8E
:101040008091340490913504A0913604B091370416
:10105000B501A401481B590B6A0B7B0B2AE0809158
:10106000700490917104EEDB6FE572E08091700482
:101070009091710485DC4091340450913504609165
:101080003604709137048091380490913904A0910E
:101090003A04B0913B04481B590B6A0B7B0B2AE0C6
:1010A0008091700490917104CDDB61E672E08091D3
:1010B00070049091710464DC8BDBAB01BC012AE00D
:1010C0008091700490917104BDDB63E672E08091C1
:1010D00070049091710431DC7BDB4B015C012B01CE
:1010E0003C0185E0480E511C611C711C71DB6815C8
:1010F00079058A059B0508F001C16ADB6093340419
:101100007093350480933604909337048EE273DA3B
:10111000892B09F073C080917A0490917B04892B0C
:1011200009F46CC06FE272E08091760490917704CC
:101130005CD3892B09F062C06AE672E081E993E032
:10114000FCDB8CE058DABC01CE0101969FDC66E73F
:1011500072E0CE010796D0DCBE016F5F7F4FCE01FB
:10116000079646DC5ADB8F819885C9D189819A819F
:10117000C6D18CE040DA019749F460E084E063DA9C
:1011800061E085E060DA8CE036DAF3CF61E972E0A5
:1011900081E993E0D2DBE3DB00E010E006301105EB
:1011A000A9F060E086E04FDA61E083E04CDA89E0A4
:1011B00022DA892B99F7D6DA0F5F1F4F68EA72E0BF
:1011C00081E993E0DDDBC80184DBE8CFC8DB61EABD
:1011D00072E081E993E0D4DB86E090E07ADB68EBB3
:1011E00072E081E993E0A9DB60E080E32CDA44E07F
:1011F00050E062EF72E086E794E02ADC8FE2FBD9F0
:10120000892B09F079C080917A0490917B04892B15
:1012100009F472C062EF72E08091760490917704D5
:10122000E4D2892B09F068C067EF72E081E993E0AE
:1012300084DB63E073E081E993E07FDB00E010E0B2
:1012400006301105A9F061E086E0FDD960E083E099
:10125000FAD989E0D0D9892B99F784DA0F5F1F4F2B
:1012600068EA72E081E993E08BDBC80132DBE8CF0A
:1012700076DB68EA72E081E993E082DB86E090E069
:1012800028DB6DDB8DE0B7D9BC01CE010196FEDB1A
:1012900066E173E0CE0107962FDCBE016F5F7F4FE2
:1012A000CE010796A5DBB9DA8F81988528D189818F
:1012B0009A8125D18DE09FD9019749F461E084E0BE
:1012C000C2D960E085E0BFD98DE095D9F3CF62E364
:1012D00073E081E993E031DB61E673E081E993E05B
:1012E0002CDB3DDB61E080E3AED946E050E06FE20D
:1012F00072E086E794E0ACDBF1D806CE46165706DE
:101300006806790608F0F2CEF8CE809176049091C6
:101310007704F5C0BB274A3031F4992322F4BDE2AB
:10132000909581959F4F01C0BB27FB015527AA27A8
:10133000880F991FAA1FA41710F0A41B8395505162
:10134000B9F7A05DAA3308F0A95DA193009779F7DA
:10135000B111B1931192CB0100C0DC01FC01672FE8
:1013600071917723E1F7329704C07C916D9370837C
:101370006291AE17BF07C8F30895A1E21A2EAA1B07
:10138000BB1BFD010DC0AA1FBB1FEE1FFF1FA21735
:10139000B307E407F50720F0A21BB30BE40BF50B32
:1013A000661F771F881F991F1A9469F760957095BB
:1013B000809590959B01AC01BD01CF010895EE0F82
:1013C000FF1F881F8BBF0790F691E02D19940F9394
:1013D0001F93CF93DF938230910510F482E090E069
:1013E000E0917E04F0917F0420E030E0A0E0B0E0E6
:1013F000309719F1408151810281138148175907B3
:10140000C8F08417950769F4109731F012960C9381
:10141000129713961C9327C000937E0410937F04A9
:1014200022C02115310519F04217530718F49A010B
:10143000BD01EF01DF01F801DBCF21153105F9F026
:10144000281B390B2430310580F48A819B8161157A
:10145000710521F0FB019383828304C090937F0484
:1014600080937E04FE01329644C0FE01E20FF31F1A
:101470008193919322503109398328833AC0209176
:101480007C0430917D04232B41F4209102023091A1
:10149000030230937D0420937C042091000230915C
:1014A00001022115310541F42DB73EB740910402E8
:1014B00050910502241B350BE0917C04F0917D04D2
:1014C000E217F307A0F42E1B3F0B2817390778F01B
:1014D000AC014E5F5F4F2417350748F04E0F5F1F7A
:1014E00050937D0440937C048193919302C0E0E08B
:1014F000F0E0CF01DF91CF911F910F910895CF932D
:10150000DF93009709F481C0FC01329713821282A5
:10151000A0917E04B0917F04109781F420813181E5
:10152000820F931F20917C0430917D042817390786
:1015300051F5F0937D04E0937C0467C0ED0120E059
:1015400030E0CE17DF0740F44A815B819E014115F0
:101550005105F1F0EA01F5CFD383C2834081518177
:10156000840F951FC817D90759F488819981840F72
:10157000951F0296918380838A819B8193838283C6
:101580002115310529F4F0937F04E0937E043DC0DA
:10159000E901FB83EA8349915991C40FD51FEC17E8
:1015A000FD0761F480819181840F951F0296E90106
:1015B00099838883828193819B838A83E0E0F0E032
:1015C00012968D919C911397009719F0FD01DC0103
:1015D000F7CF8D919C9111979D012E5F3F4F820F08
:1015E000931F20917C0430917D042817390769F4FA
:1015F000309729F410927F0410927E0402C0138267
:101600001282B0937D04A0937C04DF91CF91089562
:101610006F927F928F929F92AF92BF92CF92DF9202
:10162000EF92FF920F931F93CF93DF93009781F474
:10163000CB01DF91CF911F910F91FF90EF90DF9041
:10164000CF90BF90AF909F908F907F906F90BFCEC4
:10165000FC01E60FF71F9C0122503109E217F30746
:1016600008F4A5C0EC01D9010D911C911197061742
:101670001707A8F00530110508F497C0C8010497B2
:101680008617970708F491C002501109061B170B23
:10169000019311936D937C93CF0131DF86C05B0181
:1016A000A01AB10A4C01800E911EA0917E04B09147
:1016B0007F04612C712CE12CF12C109709F446C0A9
:1016C0008D919C911197A815B905B1F56C0142E077
:1016D000C40ED11CCA14DB0478F14C018A189B0893
:1016E000640142E0C40ED11C1296BC90129713966E
:1016F000AC91B5E0CB16D10440F0B282A3839182C5
:101700008082D9016D937C9309C00E5F1F4F800FBB
:10171000911FF90191838083EB2DFA2FE114F104DD
:1017200031F0D7011396FC93EE9312973EC0F093DD
:101730007F04E0937E0439C06816790608F43C0102
:101740007D0112960D90BC91A02DB7CF80917C04A5
:1017500090917D0488169906E1F466167706C8F420
:101760008091000290910102009741F48DB79EB7DD
:101770004091040250910502841B950BE817F9076C
:10178000B0F4F0937D04E0937C04F90171836083ED
:101790000CC0CB011CDE7C01009749F0A801BE0102
:1017A0001BD0CE01ACDEC70104C0CE0102C080E078
:1017B00090E0DF91CF911F910F91FF90EF90DF901C
:1017C000CF90BF90AF909F908F907F906F90089533
:1017D00081E090E0F89419C0FB01DC0102C00190A7
:1017E0000D9241505040D8F70895FB01DC018D91D6
:1017F000019080190110D9F3990B0895FB01DC01C8
:1018000001900D920020E1F7089511E0C5E1D1E0CB
:1018100000E005C0802FFE01D2DD2196011DC631FA
:0C182000D10780E00807B1F7F894FFCF73
:10182C000000800480000000000001026F0199019B
:10183C004D02CA01A801BC012020496E697469617E
:10184C006C6973696E672072656C617973200063D3
:10185C006C6F73656400564D4450565F317C315F3C
:10186C00564D4450560D0A0020206578697420733B
:10187C00657475702000564D4450455F003A323AFD
:10188C00007C005F564D4450450072656365697677
:10189C006564204F530057616974696E6720666FE9
:1018AC007220466C617020746F206F70656E202002
:1018BC0000466C6170206E6F77206F70656E202013
:1018CC0000656E64696E672052657620636F756E75
:1018DC0074206973203A20002D2D2D2D2D2D2D2DAA
:1018EC002D2D2D2D2D2073687574746572206F70DD
:1018FC00656E202D20656E64206F6620736875748C
:10190C00746572206F70656E20726F7574696E6588
:10191C0020006F70656E0072656365697665642082
:10192C004353002020636C6F73696E672073687576
:10193C007474657220002057616974696E67206643
:10194C006F7220666C617020746F20636C6F7365AE
:10195C002000202B2B2B2B2B2B2B2B2B2B2B2B2B0C
:10196C002B2020466C6170206E6F7720636C6F7338
:10197C006564202B2B2B2B2B2B2B2B2B2B2B2B2B43
:10198C00002020656E64206F662073687574746522
:10199C007220636C6F73656420726F7574696E6509
:0219AC00200019
:00000001FF
