:1000000015C1000042C1000040C100003EC1000017
:100010003CC100003AC1000038C1000036C10000F8
:1000200034C100006BC6000069C6000067C600004E
:100030002CC100002AC1000028C1000026C1000018
:1000400024C1000022C1000020C100001EC1000028
:100050001CC100001AC1000018C1000005C6000044
:1000600014C10000CBC50000A0C500000EC10000F7
:100070000CC100000AC1000008C1000006C1000058
:1000800004C1000002C1000000C10000FEC0000069
:1000900056C500002BC50000F8C00000F6C00000E7
:1000A000F4C00000F2C00000F0C00000EEC000008C
:1000B000ECC00000EAC00000E8C00000E6C000009C
:1000C000E4C00000E2C00000E0C00000DEC00000AC
:1000D000DCC00000DAC00000D8C00000D6C00000BC
:1000E000D4C000009C029F028E0292029802D602A7
:1000F000A302A702AD02B102B502BB02BF02C30256
:10010000D602C902CD02D10200002100240027003E
:100110002A002D0030003300010100000401070116
:100120000A0100002200250028002B002E003100CB
:10013000340002010000050108010B01000020004D
:100140002300260029002C002F00320000010000AF
:10015000030106010901050505050705080808084A
:10016000020202020A0A080804040404010101014F
:10017000010101010303030303030303040707074A
:100180000C0C0C0C0C0C0C0C0202020206060606EF
:10019000060606060B0B0B0B0B0B0B0B01021020BC
:1001A00020080810204010204080020102010804AD
:1001B0000201010204081020408080402010080441
:1001C000020180040201804020100804020108049A
:1001D00002010102040810204080010204081020DE
:1001E000408000000A0B02090C0D0E0807030401F1
:1001F00000000000000000000000000000000000FF
:1002000000000000000000000000000000001211CB
:1002100010000000000000000000000000000000CE
:1002200000000000000000008806950811241FBE91
:10023000CFEFD1E2DEBFCDBF00E00CBF24E0ACEFDA
:10024000B2E001C01D92AB34B207E1F712E0A0E0CA
:10025000B2E0EAE3F6E100E00BBF02C007900D92C6
:10026000AC3FB107D9F711E0C5E1D1E000E005C02E
:1002700021970109802FFE01B2D7C431D10780E058
:100280000807B1F79CD50C940C0BBACECF92DF9235
:10029000EF92FF920F931F93CF93DF936C017A013C
:1002A0008B01C0E0D0E0CE15DF0581F0D8016D9163
:1002B0008D01D601ED91FC910190F081E02DC601F8
:1002C0001995892B11F02196EECF7E01C701DF91A0
:1002D000CF911F910F91FF90EF90DF90CF900895F5
:1002E0000895FC01538D448D252F30E0842F90E03C
:1002F000821B930B541710F0CF9608950197089521
:10030000FC01918D828D981761F0828DDF01A80F1D
:10031000B11D5D968C91928D9F5F9F73928F90E03F
:1003200008958FEF9FEF0895FC01918D828D9817AE
:1003300031F0828DE80FF11D858D90E008958FEFEB
:100340009FEF0895FC01918D228D892F90E0805CB4
:100350009F4F821B91098F739927089587E093E03F
:10036000F1DF21E0892B09F420E0822F089584EA4F
:1003700093E0E8DF21E0892B09F420E0822F089543
:10038000FC01848DDF01A80FB11DA35ABF4F2C9132
:10039000848D90E001968F739927848FA689B78901
:1003A0002C93A089B1898C91837080648C93938DF8
:1003B000848D981306C00288F389E02D80818F7D9B
:1003C00080830895EF92FF920F931F93CF93DF9353
:1003D000EC0181E0888F9B8D8C8D981305C0E88996
:1003E000F989808185FD25C0F62E0B8D10E00F5F09
:1003F0001F4F0F731127E02E8C8DE8120BC00FB624
:1004000007FCFACFE889F989808185FFF5CFCE0115
:10041000B7DFF2CF8B8DFE01E80FF11DE35AFF4FDE
:10042000F0829FB7F8940B8FEA89FB898081806204
:100430000AC09FB7F894EE89FF896083E889F9893B
:1004400080818370806480839FBF81E090E0DF9132
:10045000CF911F910F91FF90EF900895CF93DF936D
:10046000EC01888D8823C1F0EA89FB89808185FDB4
:1004700005C0A889B9898C9186FD0EC00FB607FC0E
:10048000F5CF808185FFF2CFA889B9898C9185FF4E
:10049000EDCFCE0175DFE8CFDF91CF91089580E0F9
:1004A00090E0892B19F063DF811120C080E090E09B
:1004B000892B19F053DF81111CC080E090E0892B5B
:1004C00041F080E090E0892B21F00E940000811132
:1004D00013C080E090E0892BA1F080E090E0892BB0
:1004E00081F00E94000081110AC008950E9400005E
:1004F000DDCF0E940000E1CF0E940000EACF0C9403
:100500000000089590E0FC013197E231F10508F018
:100510004DC08827EE58FF4F8F4F61C680918000F5
:100520008F7703C0809180008F7D80938000089535
:1005300080918000877FF9CF84B58F7702C084B522
:100540008F7D84BD08958091B0008F7703C0809126
:10055000B0008F7D8093B0000895809190008F77D8
:1005600007C0809190008F7D03C080919000877FAD
:100570008093900008958091A0008F7707C08091AC
:10058000A0008F7D03C08091A000877F8093A00092
:100590000895809120018F7707C0809120018F7D81
:1005A00003C080912001877F809320010895CF931D
:1005B000DF93282F30E0F901EE51FE4F8491F901CD
:1005C000E456FE4FD491F901EA5AFE4FC491CC2370
:1005D00089F0811197DFEC2FF0E0EE0FFF1FE45C54
:1005E000FE4FA591B491EC91ED2381E090E021F4D0
:1005F00080E002C080E090E0DF91CF9108951F93EA
:10060000CF93DF93282F30E0F901EE51FE4F849114
:10061000F901E456FE4FD491F901EA5AFE4FC49114
:10062000CC23B9F0162F81116DDFEC2FF0E0EE0F27
:10063000FF1FEE5DFE4FA591B4919FB7F894111185
:1006400004C08C91D095D82302C0EC91DE2BDC93B2
:100650009FBFDF91CF911F910895CF93DF9390E0DB
:10066000FC01E456FE4F2491FC01EA5AFE4F8491AE
:10067000882361F190E0880F991FFC01E85FFE4F2D
:10068000C591D491FC01EE5DFE4FA591B49161112D
:1006900009C09FB7F8948881209582238883EC91C4
:1006A0002E230BC0623061F49FB7F8948881322FFB
:1006B000309583238883EC912E2B2C939FBF06C00B
:1006C0008FB7F894E8812E2B28838FBFDF91CF91CD
:1006D00008953FB7F8948091030390910403A0918B
:1006E0000503B091060326B5A89B05C02F3F19F05E
:1006F0000196A11DB11D3FBFBA2FA92F982F8827A2
:10070000820F911DA11DB11DBC01CD0142E0660FFC
:10071000771F881F991F4A95D1F708958F929F924E
:10072000AF92BF92CF92DF92EF92FF92D2DF4B0156
:100730005C0188EBC82E8BE0D82EE12CF12CC9DFB0
:10074000DC01CB0188199909AA09BB09883E9340AD
:10075000A105B105A0F321E0C21AD108E108F10812
:1007600088EE880E83E0981EA11CB11CC114D10430
:10077000E104F10421F7FF90EF90DF90CF90BF905C
:10078000AF909F908F90089580E090E0089561155C
:10079000710549F0FB0101900020E9F73197AF01A5
:1007A000461B570B73CD80E090E00895CF93DF9305
:1007B000BC0187E093E0EBDFEC0168E172E087E0E9
:1007C00093E0E5DF8C0F9D1FDF91CF9108958BE1C2
:1007D00092E0ECDF61E084E012DF61E085E00FDFB2
:1007E00061E086E00CDF61E083E009CFCF93DF9327
:1007F000FC01448155816081718184EA93E046DD8A
:10080000EC0168E172E084EA93E0C1DF8C0F9D1F88
:10081000DF91CF9108958F929F92AF92BF92CF9226
:10082000DF92EF92FF920F931F93CF93DF93CDB799
:10083000DEB7A1970FB6F894DEBF0FBECDBF6C0137
:10084000990FEE08FF08F7FE2AC06DE287E093E0FB
:10085000B9DD8C0122273327A9012C193D094E0946
:100860005F0919A2CE0181967C019AE0892E912C14
:10087000A12CB12CCA01B901A50194018ED4605DEF
:10088000F70162937F01211531054105510591F76B
:10089000BF0187E093E07BDF080F191F1EC0A7018F
:1008A000960119A28E010F5D1F4F8AE0C82ED12C30
:1008B000E12CF12CCA01B901A70196016ED4605D4B
:1008C000F80162938F01211531054105510591F71A
:1008D000BF0187E093E05BDF8C0168E172E087E0B5
:1008E00093E055DF800F911FA1960FB6F894DEBFFD
:1008F0000FBECDBFDF91CF911F910F91FF90EF9071
:10090000DF90CF90BF90AF909F908F9008950F93FE
:100910001F93CF93DF93EC0188819981009729F091
:100920002A813B812617370780F48B016F5F7F4F49
:100930007FD5009761F0998388831B830A832C817C
:100940003D81232B11F4FC01108281E001C080E085
:10095000DF91CF911F910F910895EF92FF920F9326
:100960001F93CF93DF936115710511F480E01AC0D6
:1009700041155105B1F07B01EC018C819D818A010B
:10098000080F191FB801CE01C2DF882379F328812F
:1009900039818C819D81B701820F931F36D61D83CB
:1009A0000C8381E0DF91CF911F910F91FF90EF9029
:1009B0000895CF93DF93EC0188819981009709F026
:1009C000AED4198218821D821C821B821A82DF918A
:1009D000CF910895EF92FF920F931F93CF93DF93E0
:1009E000EC01198218821B821A821D821C826115F9
:1009F000710509F18B01FB0101900020E9F73197A6
:100A00007F01E61AF70AB70182DF811108C0CE0123
:100A1000DF91CF911F910F91FF90EF90CACFFD8290
:100A2000EC82B80188819981DF91CF911F910F915C
:100A3000FF90EF90EAC5DF91CF911F910F91FF904A
:100A4000EF900895EF92FF920F931F93CF93DF9350
:100A50008C017B016115710561F0FB0101900020A3
:100A6000E9F73197EF01C61BD70BBE0150DF8111AB
:100A700003C0C8019EDF07C0F801D583C483B70156
:100A800080819181C2D5C801DF91CF911F910F91D3
:100A9000FF90EF9008950F931F93CF93DF93CDB7FF
:100AA000DEB762970FB6F894DEBF0FBECDBF8C01E4
:100AB000CB01F801118210821382128215821482F6
:100AC0004AE0BE016F5F7F4F35D3BE016F5F7F4F3E
:100AD000C801B8DF62960FB6F894DEBF0FBECDBF77
:100AE000DF91CF911F910F91089582D51F920F92A0
:100AF0000FB60F9211240BB60F922F933F934F9383
:100B00005F936F937F938F939F93AF93BF93EF9375
:100B1000FF9387E093E034DCFF91EF91BF91AF91B9
:100B20009F918F917F916F915F914F913F912F9105
:100B30000F900BBE0F900FBE0F901F9018951F9235
:100B40000F920FB60F9211240BB60F922F938F9323
:100B50009F93EF93FF93E0911703F0911803808127
:100B6000E0911D03F0911E0382FD12C090818091DF
:100B700020038F5F8F7320912103821751F0E09142
:100B80002003F0E0E95FFC4F958F8093200301C0C4
:100B90008081FF91EF919F918F912F910F900BBECC
:100BA0000F900FBE0F901F9018951F920F920FB6C7
:100BB0000F9211240BB60F922F933F934F935F9395
:100BC0006F937F938F939F93AF93BF93EF93FF9315
:100BD00084EA93E0D5DBFF91EF91BF91AF919F91B4
:100BE0008F917F916F915F914F913F912F910F90D6
:100BF0000BBE0F900FBE0F901F9018951F920F9273
:100C00000FB60F9211240BB60F922F938F939F93D1
:100C1000EF93FF93E091B403F091B5038081E091ED
:100C2000BA03F091BB0382FD12C090818091BD0395
:100C30008F5F8F732091BE03821751F0E091BD0347
:100C4000F0E0EC55FC4F958F8093BD0301C080818F
:100C5000FF91EF919F918F912F910F900BBE0F906D
:100C60000FBE0F901F9018951F920F920FB60F9204
:100C700011242F933F938F939F93AF93BF938091B2
:100C8000FF0290910003A0910103B0910203309103
:100C9000FE0223E0230F2D3720F40196A11DB11D84
:100CA00005C026E8230F0296A11DB11D2093FE0268
:100CB0008093FF0290930003A0930103B09302037B
:100CC0008091030390910403A0910503B091060362
:100CD0000196A11DB11D8093030390930403A0937B
:100CE0000503B0930603BF91AF919F918F913F9100
:100CF0002F910F900FBE0F901F9018951F920F927B
:100D00000FB60F9211240F900FBE0F901F901895E1
:100D1000E7E0F3E01382128248EE53E060E070E017
:100D200044835583668377838AE092E0918380834E
:100D30002DEC30E0358724872CEC30E03787268790
:100D400028EC30E0318B208B29EC30E0338B228B88
:100D50002AEC30E0358B248B2EEC30E0378B268B61
:100D6000118E128E138E148EE4EAF3E01382128237
:100D700044835583668377839183808385EC90E0F9
:100D80009587848784EC90E09787868780EC90E055
:100D9000918B808B81EC90E0938B828B82EC90E046
:100DA000958B848B86EC90E0978B868B118E128EC0
:100DB000138E148E62E372E081E494E00BCECF9345
:100DC000DF93CDB7DEB72C970FB6F894DEBF0FBE1A
:100DD000CDBF789484B5826084BD84B5816084BDC4
:100DE00085B5826085BD85B5816085BD80916E00C9
:100DF000816080936E0010928100809181008260FA
:100E00008093810080918100816080938100809136
:100E100080008160809380008091B1008460809325
:100E2000B1008091B00081608093B000809191000A
:100E30008260809391008091910081608093910005
:100E4000809190008160809390008091A1008260E9
:100E50008093A1008091A10081608093A100809186
:100E6000A00081608093A000809121018260809326
:100E700021018091210181608093210180912001D5
:100E800081608093200180917A00846080937A0051
:100E900080917A00826080937A0080917A008160EC
:100EA00080937A0080917A00806880937A00109213
:100EB000C100E091B403F091B50382E08083E0913A
:100EC000B003F091B1031082E091B203F091B3034B
:100ED0008FEC80831092BC03E091B803F091B903CA
:100EE00086E08083E091B603F091B7038081806152
:100EF0008083E091B603F091B7038081886080839E
:100F0000E091B603F091B703808180688083E0911F
:100F1000B603F091B70380818F7D808358DC61E058
:100F200084E09BDB61E085E098DB61E086E095DBB7
:100F300061E083E092DB62E089E08FDB62E08CE0DD
:100F40008CDB62E08DE089DB60E08EE286DB60E0D6
:100F50008FE283DB61E080E380DB61E080E34FDBF5
:100F600089E392E023DC8EE222DB019709F052C094
:100F700067E472E084EA93E00ADC8CE018DB019716
:100F800049F560E084E03BDB61E085E038DB8CE044
:100F90000EDB8CE00CDBBC01CE0101967CDD63E551
:100FA00072E0CE01079616DD4D815E8169817A81FE
:100FB000CE010796D2DC811103C0CE010796F9DC81
:100FC000CE01079613DC8F819885A9D189819A81FA
:100FD000A6D1D3CFFCDB62E372E081E494E032DDA2
:100FE00000E010E062E372E081E494E02BDDFC01BC
:100FF00080819181892B09F05AC08BEA92E0D6DB7F
:101000006AEC72E087E093E0C2DBC80104DC60E0D8
:1010100080E3F5DA8FE2CBDA019709F046C08CE77E
:1010200092E0C4DB67E772E081E494E00BDD00E06E
:1010300010E067E772E081E494E004DDFC01808168
:101040009181892B09F04CC064C061E084E0D7DA5B
:1010500060E085E0D4DA8DE0AADA8DE0A8DABC01A0
:10106000CE01019618DD6FE872E0CE010796B2DC82
:101070004D815E8169817A81CE0107966EDC811196
:1010800003C0CE01079695DCCE010796AFDB8F81BA
:10109000988545D189819A8142D18DE088DA01977E
:1010A000A1F295DB61E080E3AADAF9D95CCF60E0D8
:1010B00086E0A5DA61E083E0A2DA89E078DA892BBC
:1010C00009F090CF2BDB0F5F1F4F053011050CF49B
:1010D00089CF67E772E081E494E0B4DC78DB82CF0B
:1010E00061E086E08CDA60E083E089DA89E05FDA4B
:1010F000892B09F09ECF12DB0F5F1F4F05301105C2
:101100000CF497CF62E372E081E494E09BDC5FDB58
:1011100090CF8AED92E04ADB6AEC72E087E093E0E0
:1011200036DBC80178DB53DBB8CF80914104909166
:101130004204F5C0BB274A3031F4992322F4BDE2C2
:10114000909581959F4F01C0BB27FB015527AA278A
:10115000880F991FAA1FA41710F0A41B8395505144
:10116000B9F7A05DAA3308F0A95DA193009779F7BC
:10117000B111B1931192CB0100C0DC01FC01672FCA
:1011800071917723E1F7329704C07C916D9370835E
:101190006291AE17BF07C8F30895A1E21A2EAA1BE9
:1011A000BB1BFD010DC0AA1FBB1FEE1FFF1FA21717
:1011B000B307E407F50720F0A21BB30BE40BF50B14
:1011C000661F771F881F991F1A9469F7609570959D
:1011D000809590959B01AC01BD01CF010895EE0F64
:1011E000FF1F881F8BBF0790F691E02D19940F9376
:1011F0001F93CF93DF938230910510F482E090E04B
:10120000E0914904F0914A0420E030E0A0E0B0E031
:10121000309719F140815181028113814817590794
:10122000C8F08417950769F4109731F012960C9363
:10123000129713961C9327C00093490410934A04F5
:1012400022C02115310519F04217530718F49A01ED
:10125000BD01EF01DF01F801DBCF21153105F9F008
:10126000281B390B2430310580F48A819B8161155C
:10127000710521F0FB019383828304C090934A049B
:1012800080934904FE01329644C0FE01E20FF31F31
:101290008193919322503109398328833AC0209158
:1012A000470430914804232B41F4209102023091ED
:1012B00003023093480420934704209100023091A8
:1012C00001022115310541F42DB73EB740910402CA
:1012D00050910502241B350BE0914704F09148041E
:1012E000E217F307A0F42E1B3F0B2817390778F0FD
:1012F000AC014E5F5F4F2417350748F04E0F5F1F5C
:1013000050934804409347048193919302C0E0E0D6
:10131000F0E0CF01DF91CF911F910F910895CF930E
:10132000DF93009709F481C0FC0132971382128287
:10133000A0914904B0914A04109781F42081318131
:10134000820F931F209147043091480428173907D2
:1013500051F5F0934804E093470467C0ED0120E0A5
:1013600030E0CE17DF0740F44A815B819E014115D2
:101370005105F1F0EA01F5CFD383C2834081518159
:10138000840F951FC817D90759F488819981840F54
:10139000951F0296918380838A819B8193838283A8
:1013A0002115310529F4F0934A04E09349043DC026
:1013B000E901FB83EA8349915991C40FD51FEC17CA
:1013C000FD0761F480819181840F951F0296E901E8
:1013D00099838883828193819B838A83E0E0F0E014
:1013E00012968D919C911397009719F0FD01DC01E5
:1013F000F7CF8D919C9111979D012E5F3F4F820FEA
:10140000931F20914704309148042817390769F445
:10141000309729F410924A041092490402C01382B2
:101420001282B0934804A0934704DF91CF910895AE
:101430006F927F928F929F92AF92BF92CF92DF92E4
:10144000EF92FF920F931F93CF93DF93009781F456
:10145000CB01DF91CF911F910F91FF90EF90DF9023
:10146000CF90BF90AF909F908F907F906F90BFCEA6
:10147000FC01E60FF71F9C0122503109E217F30728
:1014800008F4A5C0EC01D9010D911C911197061724
:101490001707A8F00530110508F497C0C801049794
:1014A0008617970708F491C002501109061B170B05
:1014B000019311936D937C93CF0131DF86C05B0163
:1014C000A01AB10A4C01800E911EA0914904B0915E
:1014D0004A04612C712CE12CF12C109709F446C0C0
:1014E0008D919C911197A815B905B1F56C0142E059
:1014F000C40ED11CCA14DB0478F14C018A189B0875
:10150000640142E0C40ED11C1296BC90129713964F
:10151000AC91B5E0CB16D10440F0B282A3839182A6
:101520008082D9016D937C9309C00E5F1F4F800F9D
:10153000911FF90191838083EB2DFA2FE114F104BF
:1015400031F0D7011396FC93EE9312973EC0F093BF
:101550004A04E093490439C06816790608F43C014E
:101560007D0112960D90BC91A02DB7CF80914704BC
:101570009091480488169906E1F466167706C8F437
:101580008091000290910102009741F48DB79EB7BF
:101590004091040250910502841B950BE817F9074E
:1015A000B0F4F0934804E0934704F9017183608339
:1015B0000CC0CB011CDE7C01009749F0A801BE01E4
:1015C0001BD0CE01ACDEC70104C0CE0102C080E05A
:1015D00090E0DF91CF911F910F91FF90EF90DF90FE
:1015E000CF90BF90AF909F908F907F906F90089515
:1015F00081E090E0F89410C0FB01DC0102C0019092
:101600000D9241505040D8F70895FB01DC01019044
:101610000D920020E1F7089511E0C5E1D1E000E06E
:1016200005C0802FFE01DBDD2196011DC631D107EB
:0A16300080E00807B1F7F894FFCF3F
:10163A0000004B04800000000000E2014601710135
:10164A002E02A201800194010D0A002020496E6930
:10165A007469616C6973696E672072656C6179730C
:10166A002000636C6F7365640020206578697420BC
:10167A0073657475702000726563656976656420A8
:10168A004F530057616974696E6720666F7220460E
:10169A006C617020746F206F70656E204C4F5720FC
:1016AA00484947482020006F70656E002020636C0F
:1016BA006F73696E67207368757474657220002091
:1016CA0057616974696E6720666F7220666C617013
:1016DA0020746F20636C6F736520002020656E6430
:1016EA00206F662073687574746572206F70656EFA
:1016FA0020726F7574696E65200052657620636F7B
:10170A00756E74206973203A20002020656E64206B
:10171A006F66207368757474657220636C6F736585
:0C172A006420726F7574696E6520000009
:00000001FF
