:1000000015C1000042C1000040C100003EC1000017
:100010003CC100003AC1000038C1000036C10000F8
:1000200034C1000078C5000076C5000074C500002A
:100030002CC100002AC1000028C1000026C1000018
:1000400024C1000022C1000020C100001EC1000028
:100050001CC100001AC1000018C1000012C5000038
:1000600014C10000D8C40000ADC400000EC10000DF
:100070000CC100000AC1000008C1000006C1000058
:1000800004C1000002C1000000C10000FEC0000069
:10009000FCC00000FAC00000F8C00000F6C000007C
:1000A000F4C00000F2C00000F0C00000EEC000008C
:1000B000ECC00000EAC00000E8C00000E6C000009C
:1000C000E4C00000E2C00000E0C00000DEC00000AC
:1000D000DCC00000DAC00000D8C00000D6C00000BC
:1000E000D4C0000098029B028A028E029402D202BF
:1000F0009F02A302A902AD02B102B702BB02BF0276
:10010000D202C502C902CD0200002100240027004E
:100110002A002D0030003300010100000401070116
:100120000A0100002200250028002B002E003100CB
:10013000340002010000050108010B01000020004D
:100140002300260029002C002F00320000010000AF
:10015000030106010901050505050705080808084A
:10016000020202020A0A080804040404010101014F
:10017000010101010303030303030303040707074A
:100180000C0C0C0C0C0C0C0C0202020206060606EF
:10019000060606060B0B0B0B0B0B0B0B01021020BC
:1001A00020080810204010204080020102010804AD
:1001B0000201010204081020408080402010080441
:1001C000020180040201804020100804020108049A
:1001D00002010102040810204080010204081020DE
:1001E000408000000A0B02090C0D0E0807030401F1
:1001F00000000000000000000000000000000000FF
:1002000000000000000000000000000000001211CB
:1002100010000000000000000000000000000000CE
:10022000000000000000000095056F0711241FBEAC
:10023000CFEFD1E2DEBFCDBF00E00CBF23E0A8EBE3
:10024000B2E001C01D92AA36B207E1F712E0A0E0C9
:10025000B2E0EAEAF3E100E00BBF02C007900D92C2
:10026000A83BB107D9F711E0C5E1D1E000E005C036
:1002700021970109802FFE016AD6C431D10780E0A1
:100280000807B1F783D40C94C409BACECF92DF9299
:10029000EF92FF920F931F93CF93DF936C017A013C
:1002A0008B01C0E0D0E0CE15DF0581F0D8016D9163
:1002B0008D01D601ED91FC910190F081E02DC601F8
:1002C0001995892B11F02196EECF7E01C701DF91A0
:1002D000CF911F910F91FF90EF90DF90CF900895F5
:1002E0000895FC01538D448D252F30E0842F90E03C
:1002F000821B930B541710F0CF9608950197089521
:10030000FC01918D828D981761F0828DDF01A80F1D
:10031000B11D5D968C91928D9F5F9F73928F90E03F
:1003200008958FEF9FEF0895FC01918D828D9817AE
:1003300031F0828DE80FF11D858D90E008958FEFEB
:100340009FEF0895FC01918D228D892F90E0805CB4
:100350009F4F821B91098F739927089583EC92E038
:10036000F1DF21E0892B09F420E0822F0895FC01C0
:10037000848DDF01A80FB11DA35ABF4F2C91848D2E
:1003800090E001968F739927848FA689B7892C9363
:10039000A089B1898C91837080648C93938D848DB6
:1003A000981306C00288F389E02D80818F7D8083B9
:1003B0000895EF92FF920F931F93CF93DF93EC0179
:1003C00081E0888F9B8D8C8D981305C0E889F98911
:1003D000808185FD25C0F62E0B8D10E00F5F1F4F2D
:1003E0000F731127E02E8C8DE8120BC00FB607FC9F
:1003F000FACFE889F989808185FFF5CFCE01B7DF93
:10040000F2CF8B8DFE01E80FF11DE35AFF4FF08212
:100410009FB7F8940B8FEA89FB89808180620AC0BC
:100420009FB7F894EE89FF896083E889F989808114
:100430008370806480839FBF81E090E0DF91CF91E3
:100440001F910F91FF90EF900895CF93DF93EC01F0
:10045000888D8823C1F0EA89FB89808185FD05C0EC
:10046000A889B9898C9186FD0EC00FB607FCF5CF1F
:10047000808185FFF2CFA889B9898C9185FFEDCF66
:10048000CE0175DFE8CFDF91CF91089580E090E055
:10049000892B19F063DF811125C080E090E0892B62
:1004A00041F080E090E0892B21F00E940000811152
:1004B0001CC080E090E0892B41F080E090E0892B27
:1004C00021F00E940000811113C080E090E0892B90
:1004D000A1F080E090E0892B81F00E940000811162
:1004E0000AC008950E940000D8CF0E940000E1CF0A
:1004F0000E940000EACF0C940000089590E0FC01F7
:100500003197E231F10508F04DC08827EE58FF4FD2
:100510008F4F1DC5809180008F7703C08091800030
:100520008F7D80938000089580918000877FF9CF30
:1005300084B58F7702C084B58F7D84BD0895809186
:10054000B0008F7703C08091B0008F7D8093B000A2
:100550000895809190008F7707C0809190008F7DE3
:1005600003C080919000877F8093900008958091D0
:10057000A0008F7707C08091A0008F7D03C080917D
:10058000A000877F8093A0000895809120018F773D
:1005900007C0809120018F7D03C080912001877F5B
:1005A000809320010895CF93DF93282F30E0F90145
:1005B000EE51FE4F8491F901E456FE4FD491F901BA
:1005C000EA5AFE4FC491CC2389F0811197DFEC2FBA
:1005D000F0E0EE0FFF1FE45CFE4FA591B491EC91AB
:1005E000ED2381E090E021F480E002C080E090E023
:1005F000DF91CF9108951F93CF93DF93282F30E0A1
:10060000F901EE51FE4F8491F901E456FE4FD49169
:10061000F901EA5AFE4FC491CC23B9F0162F81118B
:100620006DDFEC2FF0E0EE0FFF1FEE5DFE4FA591AA
:10063000B4919FB7F894111104C08C91D095D82330
:1006400002C0EC91DE2BDC939FBFDF91CF911F9115
:100650000895CF93DF9390E0FC01E456FE4F249180
:10066000FC01EA5AFE4F8491882361F190E0880FE3
:10067000991FFC01E85FFE4FC591D491FC01EE5D2E
:10068000FE4FA591B491611109C09FB7F89488817C
:10069000209582238883EC912E230BC0623061F475
:1006A0009FB7F8948881322F309583238883EC910B
:1006B0002E2B2C939FBF06C08FB7F894E8812E2B6A
:1006C00028838FBFDF91CF9108953FB7F894809131
:1006D000BF029091C002A091C102B091C20226B5A2
:1006E000A89B05C02F3F19F00196A11DB11D3FBF6A
:1006F000BA2FA92F982F8827820F911DA11DB11DF8
:10070000BC01CD0142E0660F771F881F991F4A95F3
:10071000D1F708958F929F92AF92BF92CF92DF92BE
:10072000EF92FF92D2DF4B015C0188EBC82E8BE089
:10073000D82EE12CF12CC9DFDC01CB0188199909F5
:10074000AA09BB09883E9340A105B105A0F321E0A9
:10075000C21AD108E108F10888EE880E83E0981EDD
:10076000A11CB11CC114D104E104F10421F7FF90D4
:10077000EF90DF90CF90BF90AF909F908F900895B3
:1007800080E090E0089561E084E035DF61E085E09D
:1007900032DF61E086E02FDF61E083E02CCF00975D
:1007A00061F0FC0101900020E9F73197AF01481B8F
:1007B000590BBC0183EC92E069CD80E090E0089594
:1007C000CF93DF93FC01448155816081718183EC7B
:1007D00092E05CDDEC0188E192E0E1DF8C0F9D1F8F
:1007E000DF91CF9108950F931F93CF93DF93EC0187
:1007F00088819981009729F02A813B812617370744
:1008000080F48B016F5F7F4FCBD4009761F09983A9
:1008100088831B830A832C813D81232B11F4FC01E7
:10082000108281E001C080E0DF91CF911F910F9194
:100830000895EF92FF920F931F93CF93DF9361156B
:10084000710511F480E01AC041155105B1F07B012A
:10085000EC018C819D818A01080F191FB801CE011E
:10086000C2DF882379F3288139818C819D81B7018A
:10087000820F931F82D51D830C8381E0DF91CF917E
:100880001F910F91FF90EF900895CF93DF93EC01AC
:1008900088819981009709F0FAD3198218821D8204
:1008A0001C821B821A82DF91CF910895EF92FF92F2
:1008B0000F931F93CF93DF93EC01198218821B8251
:1008C0001A821D821C826115710509F18B01FB01E1
:1008D00001900020E9F731977F01E61AF70AB70186
:1008E00082DF811108C0CE01DF91CF911F910F915E
:1008F000FF90EF90CACFFD82EC82B8018881998188
:10090000DF91CF911F910F91FF90EF9036C5DF914E
:10091000CF911F910F91FF90EF900895EF92FF926A
:100920000F931F93CF93DF938C017B0161157105AA
:1009300061F0FB0101900020E9F73197EF01C61B40
:10094000D70BBE0150DF811103C0C8019EDF07C075
:10095000F801D583C483B701808191810ED5C80188
:10096000DF91CF911F910F91FF90EF9008950F931A
:100970001F93CF93DF93CDB7DEB762970FB6F8948E
:10098000DEBF0FBECDBF8C01CB01F80111821082FA
:1009900013821282158214824AE0BE016F5F7F4F7C
:1009A000A3D2BE016F5F7F4FC801B8DF62960FB65A
:1009B000F894DEBF0FBECDBFDF91CF911F910F9195
:1009C0000895CED41F920F920FB60F9211240BB63A
:1009D0000F922F933F934F935F936F937F938F93D8
:1009E0009F93AF93BF93EF93FF9383EC92E0BFDCB1
:1009F000FF91EF91BF91AF919F918F917F916F91F7
:100A00005F914F913F912F910F900BBE0F900FBEB2
:100A10000F901F9018951F920F920FB60F921124EE
:100A20000BB60F922F938F939F93EF93FF93E091C9
:100A3000D302F091D4028081E091D902F091DA02E0
:100A400082FD12C090818091DC028F5F8F732091B4
:100A5000DD02821751F0E091DC02F0E0ED53FD4F32
:100A6000958F8093DC0201C08081FF91EF919F916F
:100A70008F912F910F900BBE0F900FBE0F901F9074
:100A800018951F920F920FB60F9211242F933F9338
:100A90008F939F93AF93BF938091BB029091BC02C1
:100AA000A091BD02B091BE023091BA0223E0230FA3
:100AB0002D3720F40196A11DB11D05C026E8230F96
:100AC0000296A11DB11D2093BA028093BB029093A0
:100AD000BC02A093BD02B093BE028091BF02909170
:100AE000C002A091C102B091C2020196A11DB11D28
:100AF0008093BF029093C002A093C102B093C20240
:100B0000BF91AF919F918F913F912F910F900FBE09
:100B10000F901F9018951F920F920FB60F921124ED
:100B20000F900FBE0F901F901895E3ECF2E0138228
:100B3000128288EE93E0A0E0B0E084839583A683E0
:100B4000B7838AE092E09183808385EC90E095877B
:100B5000848784EC90E09787868780EC90E0918B87
:100B6000808B81EC90E0938B828B82EC90E0958B74
:100B7000848B86EC90E0978B868B118E128E138E71
:100B8000148E6BE172E080E693E090CECF93DF931A
:100B9000CDB7DEB72C970FB6F894DEBF0FBECDBF32
:100BA000789484B5826084BD84B5816084BD85B548
:100BB000826085BD85B5816085BD80916E00816054
:100BC00080936E00109281008091810082608093FA
:100BD00081008091810081608093810080918000FC
:100BE0008160809380008091B10084608093B10027
:100BF0008091B00081608093B0008091910082600C
:100C00008093910080919100816080939100809108
:100C100090008160809390008091A1008260809319
:100C2000A1008091A10081608093A1008091A0002B
:100C300081608093A00080912101826080932101D6
:100C40008091210181608093210180912001816048
:100C50008093200180917A00846080937A00809153
:100C60007A00826080937A0080917A00816080931C
:100C70007A0080917A00806880937A001092C10097
:100C8000E091D302F091D40282E08083E091CF0220
:100C9000F091D0021082E091D102F091D2028FEC5B
:100CA00080831092DB02E091D702F091D80286E0B7
:100CB0008083E091D502F091D602808180618083AB
:100CC000E091D502F091D602808188608083E09126
:100CD000D502F091D602808180688083E091D502B0
:100CE000F091D60280818F7D80834DDD61E084E0CC
:100CF000B0DC61E085E0ADDC61E086E0AADC61E0CB
:100D000083E0A7DC62E089E0A4DC62E08CE0A1DCA7
:100D100062E08DE09EDC60E08EE29BDC60E08FE2D2
:100D200098DC61E080E395DC61E080E364DC82E2F2
:100D300092E035DD88E192E032DD8DE392E02FDD57
:100D400081E692E02CDD88E192E029DD8EE22BDC69
:100D5000019709F046C086E692E021DD8CE023DCB5
:100D6000019749F560E084E046DC61E085E043DC22
:100D70008CE019DC8CE017DCBC01CE010196F7DDBC
:100D800062E772E0CE01079691DD4D815E81698157
:100D90007A81CE0107964DDD811103C0CE01079601
:100DA00074DDCE0107960CDD8F81988570D1898125
:100DB0009A816DD1D3CFE7DC6BE172E080E693E0FE
:100DC000ADDD00E010E06BE172E080E693E0A6DDCF
:100DD000FC0180819181892B09F04DC060E080E3A6
:100DE0000ADC8FE2E0DB019709F043C066E972E0BC
:100DF00080E693E093DD00E010E066E972E080E6D3
:100E000093E08CDDFC0180819181892B09F04CC03D
:100E100064C061E084E0EFDB60E085E0ECDB8DE066
:100E2000C2DB8DE0C0DBBC01CE010196A0DD6BE929
:100E300072E0CE0107963ADD4D815E8169817A814B
:100E4000CE010796F6DC811103C0CE0107961DDDA9
:100E5000CE010796B5DC8F81988519D189819A8159
:100E600016D18DE0A0DB0197A1F28DDC61E080E37B
:100E7000C2DB0CDB5CCF60E086E0BDDB61E083E0E1
:100E8000BADB89E090DB892B09F09DCF43DC0F5F53
:100E90001F4F053011050CF496CF66E972E080E62D
:100EA00093E03CDD70DC8FCF61E086E0A4DB60E0A6
:100EB00083E0A1DB89E077DB892B09F09ECF2ADC78
:100EC0000F5F1F4F053011050CF497CF6BE172E0F7
:100ED00080E693E023DD57DC90CF55DCC2CF8091D4
:100EE000600390916103D3C0BB274A3031F499234A
:100EF00022F4BDE2909581959F4F01C0BB27FB0175
:100F00005527AA27880F991FAA1FA41710F0A41B02
:100F100083955051B9F7A05DAA3308F0A95DA1935C
:100F2000009779F7B111B1931192CB0100C0DC01A8
:100F3000FC01672F71917723E1F7329704C07C9110
:100F40006D9370836291AE17BF07C8F30895EE0FDB
:100F5000FF1F881F8BBF0790F691E02D19940F9308
:100F60001F93CF93DF938230910510F482E090E0DD
:100F7000E0916803F091690320E030E0A0E0B0E088
:100F8000309719F140815181028113814817590727
:100F9000C8F08417950769F4109731F012960C93F6
:100FA000129713961C9327C000936803109369034C
:100FB00022C02115310519F04217530718F49A0180
:100FC000BD01EF01DF01F801DBCF21153105F9F09B
:100FD000281B390B2430310580F48A819B816115EF
:100FE000710521F0FB019383828304C09093690310
:100FF00080936803FE01329644C0FE01E20FF31FA6
:101000008193919322503109398328833AC02091EA
:10101000660330916703232B41F420910202309143
:1010200003023093670320936603209100023091FE
:1010300001022115310541F42DB73EB7409104025C
:1010400050910502241B350BE0916603F091670374
:10105000E217F307A0F42E1B3F0B2817390778F08F
:10106000AC014E5F5F4F2417350748F04E0F5F1FEE
:1010700050936703409366038193919302C0E0E02D
:10108000F0E0CF01DF91CF911F910F910895CF93A1
:10109000DF93009709F481C0FC013297138212821A
:1010A000A0916803B0916903109781F42081318188
:1010B000820F931F20916603309167032817390729
:1010C00051F5F0936703E093660367C0ED0120E0FC
:1010D00030E0CE17DF0740F44A815B819E01411565
:1010E0005105F1F0EA01F5CFD383C28340815181EC
:1010F000840F951FC817D90759F488819981840FE7
:10110000951F0296918380838A819B81938382833A
:101110002115310529F4F0936903E09368033DC07C
:10112000E901FB83EA8349915991C40FD51FEC175C
:10113000FD0761F480819181840F951F0296E9017A
:1011400099838883828193819B838A83E0E0F0E0A6
:1011500012968D919C911397009719F0FD01DC0177
:10116000F7CF8D919C9111979D012E5F3F4F820F7C
:10117000931F20916603309167032817390769F49C
:10118000309729F4109269031092680302C0138209
:101190001282B0936703A0936603DF91CF91089505
:1011A0006F927F928F929F92AF92BF92CF92DF9277
:1011B000EF92FF920F931F93CF93DF93009781F4E9
:1011C000CB01DF91CF911F910F91FF90EF90DF90B6
:1011D000CF90BF90AF909F908F907F906F90BFCE39
:1011E000FC01E60FF71F9C0122503109E217F307BB
:1011F00008F4A5C0EC01D9010D911C9111970617B7
:101200001707A8F00530110508F497C0C801049726
:101210008617970708F491C002501109061B170B97
:10122000019311936D937C93CF0131DF86C05B01F5
:10123000A01AB10A4C01800E911EA0916803B091D2
:101240006903612C712CE12CF12C109709F446C034
:101250008D919C911197A815B905B1F56C0142E0EB
:10126000C40ED11CCA14DB0478F14C018A189B0807
:10127000640142E0C40ED11C1296BC9012971396E2
:10128000AC91B5E0CB16D10440F0B282A383918239
:101290008082D9016D937C9309C00E5F1F4F800F30
:1012A000911FF90191838083EB2DFA2FE114F10452
:1012B00031F0D7011396FC93EE9312973EC0F09352
:1012C0006903E093680339C06816790608F43C01A5
:1012D0007D0112960D90BC91A02DB7CF8091660331
:1012E0009091670388169906E1F466167706C8F4AC
:1012F0008091000290910102009741F48DB79EB752
:101300004091040250910502841B950BE817F907E0
:10131000B0F4F0936703E0936603F901718360838F
:101320000CC0CB011CDE7C01009749F0A801BE0176
:101330001BD0CE01ACDEC70104C0CE0102C080E0EC
:1013400090E0DF91CF911F910F91FF90EF90DF9090
:10135000CF90BF90AF909F908F907F906F900895A7
:1013600081E090E0F89410C0FB01DC0102C0019024
:101370000D9241505040D8F70895FB01DC010190D7
:101380000D920020E1F7089511E0C5E1D1E000E001
:1013900005C0802FFE01DBDD2196011DC631D1077E
:0A13A00080E00807B1F7F894FFCFD2
:1013AA0000006A03800000000000D90146017101B3
:1013BA002502A201800194010D0A00636C6F736516
:1013CA00640074686973206973207468652073689F
:1013DA007574746572206E6F6465202000546865A8
:1013EA002074657874207265636569766564206621
:1013FA00726F6D204D6173746572207761733A2044
:10140A000074657874007265636569766564204F57
:10141A00530057616974696E6720666F7220466C63
:10142A00617020746F206F70656E204C4F57204892
:10143A004947482020006F70656E00205761697423
:10144A00696E6720666F7220666C617020746F2007
:08145A00636C6F736520000054
:00000001FF
