:100000001EC100004CC100004AC1000048C10000F0
:1000100046C1000044C1000042C1000040C10000D0
:100020003EC100005CC400005AC4000058C4000077
:1000300036C1000034C1000032C1000030C10000F0
:100040002EC100002CC100002AC1000028C1000000
:1000500026C1000024C1000022C10000EFC300003F
:100060001EC1000038C300000DC3000018C100000D
:1000700016C1000014C1000012C1000010C1000030
:100080000EC100000CC100000AC1000008C1000040
:1000900006C1000004C1000002C1000000C1000050
:1000A000FEC00000FCC00000FAC00000F8C0000064
:1000B000F6C00000F4C00000F2C00000F0C0000074
:1000C000EEC00000ECC00000EAC00000E8C0000084
:1000D000E6C00000E4C00000E2C00000E0C0000094
:1000E000DEC0000079027C026B026F027502B3026F
:1000F000800284028A028E02920298029C02A0026E
:10010000B302A602AA02AE020000220025002800C7
:100110002B002E003100340002010000050108010F
:100120000B01000020002300260029002C002F00D6
:1001300032000001000003010601090100000A0B62
:1001400002090C0D0E080703040100000000000066
:10015000000000000000000000000000000000009F
:10016000000000000000000012111000000000005C
:10017000000000000000000000000000000000007F
:10018000000000002100240027002A002D0030007C
:10019000330001010000040107010A0101021020DF
:1001A00020080810204010204080020102010804AD
:1001B0000201010204081020408080402010080441
:1001C000020180040201804020100804020108049A
:1001D00002010102040810204080010204081020DE
:1001E0004080050505050705080808080202020207
:1001F0000A0A0808040404040101010101010101C3
:100200000303030303030303040707070C0C0C0C8D
:100210000C0C0C0C02020202060606060606060676
:100220000B0B0B0B0B0B0B0B1112131415160A0BEC
:100230000C0D0E0F0001020304052F0A250A1124DC
:100240001FBECFEFD1E2DEBFCDBF00E00CBF24E088
:10025000A4E4B3E001C01D92AF31B207E1F713E0AF
:10026000A0E0B2E0EEEBF9E100E00BBF02C00790C6
:100270000D92A434B107D9F711E0CEE1D1E000E04E
:1002800006C021970109802FFE010E94B10ACD31DD
:10029000D10780E00807A9F754D50C94CE0CB0CE56
:1002A0000895FC01538D448D252F30E0842F90E07C
:1002B000821B930B541710F0CF9608950197089561
:1002C000FC01918D828D981761F0828DDF01A80F5E
:1002D000B11D5D968C91928D9F5F9F73928F90E080
:1002E00008958FEF9FEF0895FC01918D828D9817EF
:1002F00031F0828DE80FF11D858D90E008958FEF2C
:100300009FEF0895FC01918D228D892F90E0805CF4
:100310009F4F821B91098F73992708958AE593E077
:10032000F1DF21E0892B09F420E0822F0895FC0100
:10033000848DDF01A80FB11DA35ABF4F2C91848D6E
:1003400090E001968F739927848FA689B7892C93A3
:10035000A089B1898C91837080648C93938D848DF6
:10036000981306C00288F389E02D80818F7D8083F9
:100370000895EF92FF920F931F93CF93DF93EC01B9
:1003800081E0888F9B8D8C8D981305C0E889F98951
:10039000808185FD25C0F62E0B8D10E00F5F1F4F6D
:1003A0000F731127E02E8C8DE8120BC00FB607FCDF
:1003B000FACFE889F989808185FFF5CFCE01B7DFD3
:1003C000F2CF8B8DFE01E80FF11DE35AFF4FF08253
:1003D0009FB7F8940B8FEA89FB89808180620AC0FD
:1003E0009FB7F894EE89FF896083E889F989808155
:1003F0008370806480839FBF81E090E0DF91CF9124
:100400001F910F91FF90EF900895CF93DF93EC0130
:10041000888D8823C1F0EA89FB89808185FD05C02C
:10042000A889B9898C9186FD0EC00FB607FCF5CF5F
:10043000808185FFF2CFA889B9898C9185FFEDCFA6
:10044000CE0175DFE8CFDF91CF91089580E090E095
:10045000892B19F063DF811125C080E090E0892BA2
:1004600041F080E090E0892B21F00E940000811192
:100470001CC080E090E0892B41F080E090E0892B67
:1004800021F00E940000811113C080E090E0892BD0
:10049000A1F080E090E0892B81F00E9400008111A2
:1004A0000AC008950E940000D8CF0E940000E1CF4A
:1004B0000E940000EACF0C940000089590E0FC0137
:1004C0003197E231F10508F04EC08827EE58FF4F12
:1004D0008F4F0C94B10A809180008F7703C0809178
:1004E00080008F7D80938000089580918000877FB9
:1004F000F9CF84B58F7702C084B58F7D84BD089510
:100500008091B0008F7703C08091B0008F7D809381
:10051000B0000895809190008F7707C0809190007F
:100520008F7D03C080919000877F80939000089515
:100530008091A0008F7707C08091A0008F7D03C0BD
:100540008091A000877F8093A00008958091200172
:100550008F7707C0809120018F7D03C0809120019B
:10056000877F809320010895CF93DF93282F30E079
:10057000F901E45CFE4F8491F901E456FE4FD491F9
:10058000F901EE51FE4FC491CC2389F0811196DF21
:10059000EC2FF0E0EE0FFF1FEE5DFE4FA591B49142
:1005A000EC91ED2381E090E021F480E002C080E056
:1005B00090E0DF91CF910895CF93DF9390E0FC011D
:1005C000E456FE4F2491FC01EE51FE4F84918823A6
:1005D00061F190E0880F991FFC01EE57FE4FC59125
:1005E000D491FC01E85FFE4FA591B491611109C05F
:1005F0009FB7F8948881209582238883EC912E23DD
:100600000BC0623061F49FB7F8948881322F309527
:1006100083238883EC912E2B2C939FBF06C08FB72A
:10062000F894E8812E2B28838FBFDF91CF91089516
:100630003FB7F89480914B0390914C03A0914D03E8
:10064000B0914E0326B5A89B05C02F3F19F0019627
:10065000A11DB11D3FBFBA2FA92F982F8827820F48
:10066000911DA11DB11DBC01CD0142E0660F771F98
:10067000881F991F4A95D1F7089580E090E008956A
:100680000E94BA0C1F920F920FB60F9211240BB654
:100690000F922F933F934F935F936F937F938F931B
:1006A0009F93AF93BF93EF93FF938AE593E03FDE71
:1006B000FF91EF91BF91AF919F918F917F916F913A
:1006C0005F914F913F912F910F900BBE0F900FBEF6
:1006D0000F901F9018951F920F920FB60F92112432
:1006E0000BB60F922F938F939F93EF93FF93E0910D
:1006F0006A03F0916B038081E0917003F0917103C4
:1007000082FD12C09081809173038F5F8F7320915F
:100710007403821751F0E0917303F0E0E65AFC4F46
:10072000958F8093730301C08081FF91EF919F911A
:100730008F912F910F900BBE0F900FBE0F901F90B7
:1007400018951F93CF93DF93282F30E0F901E45CD5
:10075000FE4F8491F901E456FE4FD491F901EE5118
:10076000FE4FC491CC23B9F0162F8111A7DEEC2FD8
:10077000F0E0EE0FFF1FE85FFE4FA591B4919FB729
:10078000F894111104C08C91D095D82302C0EC913B
:10079000DE2BDC939FBFDF91CF911F91089561E025
:1007A00084E0CFDF61E085E0CCDF61E086E0C9DF97
:1007B00061E083E0C6CF8230910538F0880F991F41
:1007C000880F991F05970197F1F708958F929F92CF
:1007D000AF92BF92CF92DF92EF92FF926B017C01BA
:1007E00027DF4B015C01C114D104E104F104E9F0FD
:1007F0001FDFDC01CB0188199909AA09BB09883ED2
:100800009340A105B10578F321E0C21AD108E108AF
:10081000F10888EE880E83E0981EA11CB11CC1145B
:10082000D104E104F10421F7DECFFF90EF90DF90D7
:10083000CF90BF90AF909F908F9008951F920F928E
:100840000FB60F9211242F933F938F939F93AF93E3
:10085000BF938091470390914803A0914903B091C1
:100860004A033091460323E0230F2D3720F40196ED
:10087000A11DB11D05C026E8230F0296A11DB11DC3
:10088000209346038093470390934803A093490322
:10089000B0934A0380914B0390914C03A0914D0378
:1008A000B0914E030196A11DB11D80934B0390930F
:1008B0004C03A0934D03B0934E03BF91AF919F9112
:1008C0008F913F912F910F900FBE0F901F90189511
:1008D0008EBD00000DB407FEFDCF8EB508951F92AA
:1008E0000F920FB60F9211240F900FBE0F901F9012
:1008F0001895CF92DF92EF92FF920F931F93CF93B1
:10090000DF936C017A018B01C0E0D0E0CE15DF05EA
:1009100081F0D8016D918D01D601ED91FC9101908E
:10092000F081E02DC6011995892B11F02196EECFAB
:100930007E01C701DF91CF911F910F91FF90EF9042
:10094000DF90CF9008950F931F93CF93DF93EC0127
:1009500088819981009729F02A813B8126173707E2
:1009600080F48B016F5F7F4F25D7009761F09983EB
:1009700088831B830A832C813D81232B11F4FC0186
:10098000108281E001C080E0DF91CF911F910F9133
:100990000895CF93DF939CB59F7D9CBD9CB5937FBD
:1009A0009CBD9CB59C7F9CBD9DB591609DBDC3E0E9
:1009B000D4E0682F8A81C5DE8C899D89DF91CF9133
:1009C000FACE81E0E6CF80E0E4CFCF93FCDF81EE8A
:1009D0007FDFC82FF6DF8C2FCF910895CF93C82FDC
:1009E000F2DF8C2F8F7174DF8FEF72DFC82FE9DF9A
:1009F0008C2FCF910895CF93DF93C82FD62FE3DFAD
:100A00008C2F8F71806264DFC82F8D2F61DFD9DF5B
:100A10008C2FDF91CF910895EF92FF920F931F9348
:100A2000CF93DF93182F7B01C42FCDDF812F8F71E0
:100A300080624EDFD82F8701CC2331F0F8018191FD
:100A40008F0146DFC150F8CFBCDF8D2FDF91CF91F2
:100A50001F910F91FF90EF90089520910304309122
:100A6000040440910504509106042417350719F039
:100A7000682F822F66CE089580E0B0DF81FD09C027
:100A8000682F626080E0B7DF65E070E080E090E0B2
:100A90009DCE0895F1DF80E0A1DF682F616080E0E6
:100AA000AADF60E787E0A7DF81E0D7DF80910C0451
:100AB000882339F0409111046CE074E08AE0ACDFE7
:100AC00010C082E08BDFE4E3F2E0E49121E030E06B
:100AD00001C0220FEA95EAF72095622F682382E091
:100AE0008ADF8DE17BDF81FD70CF08950F931F9327
:100AF000CF938C0186E072DFC82FC77D02301105CD
:100B000031F4C0628BE990E0A0E0B0E00DC00130AC
:100B1000110529F085E590E0A0E0B0E005C0C860CF
:100B200081E490E0A0E0B0E080931304909314047B
:100B3000A0931504B09316046C2F86E05CDF86E06A
:100B40004DDF91E0C81390E0892FCF911F910F9155
:100B50000895009761F0FC0101900020E9F73197BA
:100B6000AF01481B590BBC018AE593E0C2CE80E07F
:100B700090E00895CF93DF93FC014481558160811B
:100B800071818AE593E0B5DEEC0180E493E0E1DF7A
:100B90008C0F9D1FDF91CF910895EF92FF920F93DD
:100BA0001F93CF93DF936115710511F480E01AC094
:100BB00041155105B1F07B01EC018C819D818A01C9
:100BC000080F191FB801CE01BEDE882379F32881F2
:100BD00039818C819D81B701820F931FD8D61D83E7
:100BE0000C8381E0DF91CF911F910F91FF90EF90E7
:100BF0000895CF93DF93ADDFEC0180E493E0A9DFAC
:100C00008C0F9D1FDF91CF910895CF93DF93EC015F
:100C100088819981009709F044D5198218821D8234
:100C20001C821B821A82DF91CF910895EF92FF926E
:100C30000F931F93CF93DF938C017B016115710597
:100C400061F0FB0101900020E9F73197EF01C61B2D
:100C5000D70BBE0178DE811103C0C801D6DF07C003
:100C6000F801D583C483B7018081918190D6C801F2
:100C7000DF91CF911F910F91FF90EF9008950F9307
:100C80001F93CF93DF93CDB7DEB762970FB6F8947B
:100C9000DEBF0FBECDBF8C01CB01F80111821082E7
:100CA00013821282158214824AE0BE016F5F7F4F69
:100CB00025D4BE016F5F7F4FC801B8DF62960FB6C3
:100CC000F894DEBF0FBECDBFDF91CF911F910F9182
:100CD0000895EF92FF920F931F93CF93DF93EC0150
:100CE000198218821B821A821D821C82611571056D
:100CF00009F18B01FB0101900020E9F731977F0199
:100D0000E61AF70AB7011FDE811108C0CE01DF9194
:100D1000CF911F910F91FF90EF9077CFFD82EC82E2
:100D2000B80188819981DF91CF911F910F91FF9038
:100D3000EF902DC6DF91CF911F910F91FF90EF9013
:100D40000895CF93DF93CDB7DEB7AC970FB6F89485
:100D5000DEBF0FBECDBF789484B5826084BD84B5FC
:100D6000816084BD85B5826085BD85B5816085BDA6
:100D700080916E00816080936E001092810080915E
:100D800081008260809381008091810081608093E6
:100D90008100809180008160809380008091B1000B
:100DA00084608093B1008091B00081608093B00036
:100DB0008091910082608093910080919100816088
:100DC0008093910080919000816080939000809149
:100DD000A10082608093A1008091A1008160809336
:100DE000A1008091A00081608093A00080912101EA
:100DF0008260809321018091210181608093210193
:100E00008091200181608093200180917A0084602C
:100E100080937A0080917A00826080937A0080913A
:100E20007A00816080937A0080917A008068809354
:100E30007A001092C10061E08AE0BEDBE0916A03B3
:100E4000F0916B0382E08083E0916603F091670389
:100E50001082E0916803F09169038FEC8083109217
:100E60007203E0916E03F0916F0386E08083E0915E
:100E70006C03F0916D03808180618083E0916C034D
:100E8000F0916D03808188608083E0916C03F09124
:100E90006D03808180688083E0916C03F0916D0325
:100EA00080818F7D80838091030490910404209140
:100EB0000504309106048217930711F061E07CDB92
:100EC000809105049091060420910304309104045C
:100ED0002817390711F061E06FDB1FB7F894809194
:100EE0004F03811123C0E7E1F2E08491E1EDF1E0ED
:100EF0009491E82FF0E0EE0FFF1FEE57FE4FA59103
:100F0000B491EC91E92319F461E085E31ADC61E026
:100F100085E352DB8CB580618CBD8CB580648CBD63
:100F200061E084E349DB61E083E346DB80914F03CA
:100F30008F5F80934F031FBF80E08FDD81E029DD4D
:100F400065E070E080E090E041DC6CE080E053DD43
:100F50006FE584E050DD82E090E0C8DD882319F081
:100F600081E08093090486E039DD80E090E0BEDD19
:100F70002ADD80E5ADDC83E7ABDC23DD60E08DE1DD
:100F80003ADD60E08CE137DD10920B0460E787E02A
:100F900032DD6CE485E02FDD16DD82EE99DC11DDBB
:100FA00014DD6ADD80E01ADD682F6E7F80E023DDCE
:100FB00064E685E020DD82E090E098DD8DE10EDDE5
:100FC000682F66608DE117DD8CE108DD682F6360B6
:100FD0008CE111DD11E010930B0486E0FFDC887FCB
:100FE000682F636086E007DD8DE1F8DC682F6460C0
:100FF0008DE101DD8CE1F2DC682F6F638CE1FBDCBD
:1010000010930B046FEF84E0F6DCEFE2F2E08491E2
:101010004091110467E072E0FFDCE9E2F2E08491C4
:1010200060910A04E8DC82E0D9DCE5E3F2E0E491D7
:1010300061E070E001C0660FEA95EAF7682B82E094
:10104000DADC28DDACDB61E084E0B6DA61E085E083
:10105000B3DA61E086E0B0DA61E083E0ADDA62E065
:1010600089E0AADA62E08CE0A7DA62E08DE0A4DA37
:101070007E0183E0E80EF11C34E3C32E32E0D32E70
:10108000AA24A394B12C5FE4752E65E4662E7EE459
:10109000472EE3E45E2E87E1A1DC80FDFCCF87E1F3
:1010A0009DDC80FF02C0D2D9F6CF1A821982F701E7
:1010B0008EE111928A95E9F780910A04803208F452
:1010C0008EC120E2822E90910B04911103C0982EC4
:1010D000981801C0912C77DC81E6FADB8E010F5F56
:1010E0001F4F18018A949FEF891631F08FEFF0DBC4
:1010F000F80181938F01F6CF992021F08FEFE8DB83
:101100009A94FACF5EDC60E787E075DC85E292E0D6
:1011100070DD80E492E01DDDC1016BDD89818334E7
:1011200009F04EC08A81833509F04AC08B81833231
:1011300009F046C064E672E087EF93E077DD00E0F7
:1011400010E064E672E087EF93E070DDFC018081DF
:101150009181892B09F045C122DB8DE005DA0197E9
:1011600049F561E084E0EDDA60E085E0EADA8DE0FF
:10117000FBD98DE0F9D9BC01CE01819680DD60E715
:1011800072E0CE018796A5DD4DA15EA169A17AA18D
:10119000CE01879602DD811103C0CE01879635DD31
:1011A000CE018796E7DC8FA198A57BD289A19AA171
:1011B00078D2D3CF62E473E08DEF93E037DDEFDADE
:1011C00089818F3409F04DC08A81833509F049C087
:1011D0008B81833209F045C08CE0C6D9019749F56F
:1011E00060E084E0AEDA61E085E0ABDA8CE0BCD9A7
:1011F0008CE0BAD9BC01CE01819641DD6CE872E089
:10120000CE01879666DD4DA15EA169A17AA1CE01CE
:101210008796C3DC811103C0CE018796F6DCCE0130
:101220008796A8DC8FA198A53CD289A19AA139D232
:10123000D3CFB5DA69E672E087EF93E0F7DC00E040
:1012400010E069E672E087EF93E0F0DCFC0180815A
:101250009181892B09F0DFC062E473E08DEF93E0A8
:10126000E5DC8981833509F01ECF9A81933509F039
:101270001ACF8B81833209F016CF209100022223EE
:1012800089F0509250032CE4209351037092520342
:10129000909353036092540394E490935503809386
:1012A00056030FC070925003F0E5F0935103609223
:1012B00052034092530380935403109255031092AB
:1012C000560380EB92E095DC80E593E042DC80ED14
:1012D00092E08FDC409111046DE072E08AE09CDBCB
:1012E000409111046DE072E080E196DB60910A04A8
:1012F00081E181DB80E0B1DB8091130490911404E3
:101300005ADA8DE16BDB81FF06C080911304909166
:10131000140451DA5ADB80E061DB682F6E7F80E0D5
:101320006ADB82E05BDBF6019491950101C0220F3C
:101330009A95EAF7682F622B82E05DDB62E370E04A
:1013400080E090E043DA80910A04282E8B3010F080
:101350009AE0292E90910B04911103C0382E321877
:1013600001C0312C30DB80EAB3DA00E513E048013C
:101370002A94FFEF2F1629F0F40181914F01A8DA8A
:10138000F7CF332021F080E0A3DA3A94FACF19DBCB
:1013900081E063DB18DB8FEF9BDA982E12DB892D5F
:1013A0008073C1F380E059DB60E787E024DB84FFD2
:1013B00003C00BDB912C02C0992493946BDB992022
:1013C00019F083E093E002C081E293E012DCF801BF
:1013D00011928F01F3E00A351F07C9F764CE882EFA
:1013E00072CE61E086E0ADD960E083E0AAD989E001
:1013F000BBD8019709F0A5CE0F5F1F4F053011052F
:101400000CF49FCE69E672E087EF93E00FDCC7D95A
:101410001092000296CE60E086E093D961E083E00E
:1014200090D989E0A1D8019709F00BCF0F5F1F4F2A
:10143000053011050CF405CF64E672E087EF93E008
:10144000F5DBADD910920002FCCE8091F7039091AC
:10145000F80327D18091FD039091FE0322C1EAE5B4
:10146000F3E01382128288EE93E0A0E0B0E0848380
:101470009583A683B78387E192E09183808385EC8F
:1014800090E09587848784EC90E09787868780EC4E
:1014900090E0918B808B81EC90E0938B828B82EC3F
:1014A00090E0958B848B86EC90E0978B868B118EE9
:1014B000128E138E148EE3E0F4E087E090E09183C7
:1014C000808388E090E093838283168280E2878322
:1014D000108685E0868785E090E0A0E0B0E0848B10
:1014E000958BA68BB78B118662E473E08DEF93E04A
:1014F000F0DB69E672E087EF93E0EBCBBB274A3085
:1015000031F4992322F4BDE2909581959F4F01C05B
:10151000BB27FB015527AA27880F991FAA1FA417CD
:1015200010F0A41B83955051B9F7A05DAA3308F0C1
:10153000A95DA193009779F7B111B1931192CB01F5
:1015400000C0DC01FC01672F71917723E1F732972E
:1015500004C07C916D9370836291AE17BF07C8F38E
:101560000895EE0FFF1F881F8BBF0790F691E02DA7
:1015700019940F931F93CF93DF938230910510F44A
:1015800082E090E0E0911D04F0911E0420E030E044
:10159000A0E0B0E0309719F14081518102811381C0
:1015A00048175907C8F08417950769F4109731F068
:1015B00012960C93129713961C9327C000931D0448
:1015C00010931E0422C02115310519F0421753074C
:1015D00018F49A01BD01EF01DF01F801DBCF2115FD
:1015E0003105F9F0281B390B2430310580F48A814C
:1015F0009B816115710521F0FB019383828304C0F7
:1016000090931E0480931D04FE01329644C0FE0197
:10161000E20FF31F8193919322503109398328837C
:101620003AC020911B0430911C04232B41F42091DB
:1016300003023091040230931C0420931B04209178
:101640000102309102022115310541F42DB73EB758
:101650004091050250910602241B350BE0911B04BA
:10166000F0911C04E217F307A0F42E1B3F0B281780
:10167000390778F0AC014E5F5F4F2417350748F00B
:101680004E0F5F1F50931C0440931B048193919352
:1016900002C0E0E0F0E0CF01DF91CF911F910F9108
:1016A0000895CF93DF93009709F481C0FC0132972E
:1016B00013821282A0911D04B0911E04109781F430
:1016C00020813181820F931F20911B0430911C04D3
:1016D0002817390751F5F0931C04E0931B0467C0E9
:1016E000ED0120E030E0CE17DF0740F44A815B8156
:1016F0009E0141155105F1F0EA01F5CFD383C28374
:1017000040815181840F951FC817D90759F48881EA
:101710009981840F951F0296918380838A819B8192
:10172000938382832115310529F4F0931E04E093FD
:101730001D043DC0E901FB83EA8349915991C40F1F
:10174000D51FEC17FD0761F480819181840F951FEF
:101750000296E90199838883828193819B838A839E
:10176000E0E0F0E012968D919C911397009719F0AC
:10177000FD01DC01F7CF8D919C9111979D012E5FAA
:101780003F4F820F931F20911B0430911C04281798
:10179000390769F4309729F410921E0410921D0441
:1017A00002C013821282B0931C04A0931B04DF9129
:1017B000CF9108956F927F928F929F92AF92BF9236
:1017C000CF92DF92EF92FF920F931F93CF93DF930D
:1017D000009781F4CB01DF91CF911F910F91FF9082
:1017E000EF90DF90CF90BF90AF909F908F907F90C1
:1017F0006F90BFCEFC01E60FF71F9C01225031090C
:10180000E217F30708F4A5C0EC01D9010D911C9172
:10181000119706171707A8F00530110508F497C0AF
:10182000C80104978617970708F491C00250110960
:10183000061B170B019311936D937C93CF0131DF3E
:1018400086C05B01A01AB10A4C01800E911EA091C6
:101850001D04B0911E04612C712CE12CF12C109709
:1018600009F446C08D919C911197A815B905B1F561
:101870006C0142E0C40ED11CCA14DB0478F14C01A7
:101880008A189B08640142E0C40ED11C1296BC90D9
:1018900012971396AC91B5E0CB16D10440F0B2820A
:1018A000A38391828082D9016D937C9309C00E5FDE
:1018B0001F4F800F911FF90191838083EB2DFA2F29
:1018C000E114F10431F0D7011396FC93EE931297D3
:1018D0003EC0F0931E04E0931D0439C068167906DB
:1018E00008F43C017D0112960D90BC91A02DB7CF5C
:1018F00080911B0490911C0488169906E1F46616E9
:101900007706C8F48091010290910202009741F499
:101910008DB79EB74091050250910602841B950B2E
:10192000E817F907B0F4F0931C04E0931B04F901E5
:10193000718360830CC0CB011CDE7C01009749F0F1
:10194000A801BE011BD0CE01ACDEC70104C0CE0190
:1019500002C080E090E0DF91CF911F910F91FF9046
:10196000EF90DF90CF90BF90AF909F908F907F903F
:101970006F90089581E090E0F89410C0FB01DC01C5
:1019800002C001900D9241505040D8F70895FB01DC
:10199000DC0101900D920020E1F7089511E0CEE105
:1019A000D1E000E005C0802FFE01DBDD2196011DA6
:0E19B000CF31D10780E00807B1F7F894FFCFE0
:1019BE000100001F0480007368757474006D6173FC
:1019CE0074720000000000B9017904510105028211
:1019DE00016001740174686973206973207468650D
:1019EE002073687574746572206E6F6465202000B4
:1019FE0054686520746578742072656365697665D0
:101A0E00642066726F6D204D61737465722077610C
:101A1E00733A20006F70656E00636C6F73656400BF
:101A2E002057616974696E6720666F7220666C61FB
:101A3E007020746F20636C6F73652000576169743A
:101A4E00696E6720666F7220466C617020746F201D
:101A5E006F70656E204C4F57204849474820200034
:101A6E007468652076616C7565206F662073687585
:101A7E0074746572207374617475732069732000B9
:101A8E002D2D2D2D2D2D2D2D2D2D2D2D2D2D2D2D78
:101A9E002D2D2D2D2D2D2D2D2D2D2D2D2D2D2D2D68
:101AAE002D2D2D2D2D2D2D2D2D2D2D2D2D2D2D2D58
:101ABE002D2D00726573756C74206F6620736875BA
:101ACE007474657220547820776173207472756512
:101ADE0000726573756C74206F662073687574740C
:101AEE00657220547820776173206572726F720070
:041AFE000D0A0000CD
:00000001FF
