:1000000015C1000042C1000040C100003EC1000017
:100010003CC100003AC1000038C1000036C10000F8
:1000200034C10000F9C50000F7C50000F5C50000A7
:100030002CC100002AC1000028C1000026C1000018
:1000400024C1000022C1000020C100001EC1000028
:100050001CC100001AC1000018C1000093C50000B7
:1000600014C1000059C500002EC500000EC10000DB
:100070000CC100000AC1000008C1000006C1000058
:1000800004C1000002C1000000C10000FEC0000069
:10009000FCC00000FAC00000F8C00000F6C000007C
:1000A000F4C00000F2C00000F0C00000EEC000008C
:1000B000ECC00000EAC00000E8C00000E6C000009C
:1000C000E4C00000E2C00000E0C00000DEC00000AC
:1000D000DCC00000DAC00000D8C00000D6C00000BC
:1000E000D4C0000097029A0289028D029302D102C5
:1000F0009E02A202A802AC02B002B602BA02BE027E
:10010000D102C402C802CC02000021002400270052
:100110002A002D0030003300010100000401070116
:100120000A0100002200250028002B002E003100CB
:10013000340002010000050108010B01000020004D
:100140002300260029002C002F00320000010000AF
:10015000030106010901050505050705080808084A
:10016000020202020A0A080804040404010101014F
:10017000010101010303030303030303040707074A
:100180000C0C0C0C0C0C0C0C0202020206060606EF
:10019000060606060B0B0B0B0B0B0B0B01021020BC
:1001A00020080810204010204080020102010804AD
:1001B0000201010204081020408080402010080441
:1001C000020180040201804020100804020108049A
:1001D00002010102040810204080010204081020DE
:1001E000408000000A0B02090C0D0E0807030401F1
:1001F00000000000000000000000000000000000FF
:1002000000000000000000000000000000001211CB
:1002100010000000000000000000000000000000CE
:1002200000000000000000001606F30711241FBEA6
:10023000CFEFD1E2DEBFCDBF00E00CBF23E0ACE1E9
:10024000B3E001C01D92AE3CB207E1F713E0A0E0BD
:10025000B2E0E8E0F5E100E00BBF02C007900D92CC
:10026000AC31B107D9F711E0C5E1D1E000E005C03C
:1002700021970109802FFE0110D7C431D10780E0FA
:100280000807B1F704D50C94730ABACECF92DF9267
:10029000EF92FF920F931F93CF93DF936C017A013C
:1002A0008B01C0E0D0E0CE15DF0581F0D8016D9163
:1002B0008D01D601ED91FC910190F081E02DC601F8
:1002C0001995892B11F02196EECF7E01C701DF91A0
:1002D000CF911F910F91FF90EF90DF90CF900895F5
:1002E000FC01538D448D252F30E0842F90E0821B3C
:1002F000930B541710F0CF96089501970895FC01C1
:10030000918D828D981761F0828DDF01A80FB11D4C
:100310005D968C91928D9F5F9F73928F90E0089570
:100320008FEF9FEF0895FC01918D828D981731F02A
:10033000828DE80FF11D858D90E008958FEF9FEF7E
:100340000895FC01918D228D892F90E0805C9F4F54
:10035000821B91098F739927089587E293E0F1DF5B
:1003600021E0892B09F420E0822F0895FC01848D7F
:10037000DF01A80FB11DA35ABF4F2C91848D90E0CF
:1003800001968F739927848FA689B7892C93A089AA
:10039000B1898C91837080648C93938D848D981334
:1003A00006C00288F389E02D80818F7D80830895C7
:1003B000EF92FF920F931F93CF93DF93EC0181E0B5
:1003C000888F9B8D8C8D981305C0E889F989808171
:1003D00085FD25C0F62E0B8D10E00F5F1F4F0F73AC
:1003E0001127E02E8C8DE8120BC00FB607FCFACF58
:1003F000E889F989808185FFF5CFCE01B7DFF2CF9B
:100400008B8DFE01E80FF11DE35AFF4FF0829FB77D
:10041000F8940B8FEA89FB89808180620AC09FB7BC
:10042000F894EE89FF896083E889F9898081837077
:10043000806480839FBF81E090E0DF91CF911F9126
:100440000F91FF90EF900895CF93DF93EC01888D8B
:100450008823C1F0EA89FB89808185FD05C0A889D0
:10046000B9898C9186FD0EC00FB607FCF5CF80814F
:1004700085FFF2CFA889B9898C9185FFEDCFCE0198
:1004800075DFE8CFDF91CF91089580E090E0892B70
:1004900019F063DF811125C080E090E0892B41F0E5
:1004A00080E090E0892B21F00E94000081111CC0A7
:1004B00080E090E0892B41F080E090E0892B21F0F2
:1004C0000E940000811113C080E090E0892BA1F010
:1004D00080E090E0892B81F00E94000081110AC029
:1004E00008950E940000D8CF0E940000E1CF0E9432
:1004F0000000EACF0C940000089590E0FC013197D1
:10050000E231F10508F04DC08827EE58FF4F8F4FBC
:10051000C4C5809180008F7703C0809180008F7D5B
:1005200080938000089580918000877FF9CF84B503
:100530008F7702C084B58F7D84BD08958091B0000F
:100540008F7703C08091B0008F7D8093B0000895B5
:10055000809190008F7707C0809190008F7D03C0BD
:1005600080919000877F8093900008958091A000F3
:100570008F7707C08091A0008F7D03C08091A0007D
:10058000877F8093A0000895809120018F7707C016
:10059000809120018F7D03C080912001877F80930F
:1005A00020010895CF93DF93282F30E0F901EE5119
:1005B000FE4F8491F901E456FE4FD491F901EA5AB5
:1005C000FE4FC491CC2389F0811197DFEC2FF0E02E
:1005D000EE0FFF1FE45CFE4FA591B491EC91ED236B
:1005E00081E090E021F480E002C080E090E0DF91C3
:1005F000CF9108951F93CF93DF93282F30E0F90117
:10060000EE51FE4F8491F901E456FE4FD491F90169
:10061000EA5AFE4FC491CC23B9F0162F81116DDF39
:10062000EC2FF0E0EE0FFF1FEE5DFE4FA591B491B1
:100630009FB7F894111104C08C91D095D82302C0B3
:10064000EC91DE2BDC939FBFDF91CF911F9108953A
:10065000CF93DF9390E0FC01E456FE4F2491FC0120
:10066000EA5AFE4F8491882361F190E0880F991F28
:10067000FC01E85FFE4FC591D491FC01EE5DFE4F99
:10068000A591B491611109C09FB7F8948881209514
:1006900082238883EC912E230BC0623061F49FB7D4
:1006A000F8948881322F309583238883EC912E2B08
:1006B0002C939FBF06C08FB7F894E8812E2B288318
:1006C0008FBFDF91CF9108953FB7F89480912303B6
:1006D00090912403A0912503B091260326B5A89BF1
:1006E00005C02F3F19F00196A11DB11D3FBFBA2FC4
:1006F000A92F982F8827820F911DA11DB11DBC0124
:10070000CD0142E0660F771F881F991F4A95D1F7E8
:1007100008958F929F92AF92BF92CF92DF92EF9205
:10072000FF92D2DF4B015C0188EBC82E8BE0D82E04
:10073000E12CF12CC9DFDC01CB0188199909AA0948
:10074000BB09883E9340A105B105A0F321E0C21A80
:10075000D108E108F10888EE880E83E0981EA11CFC
:10076000B11CC114D104E104F10421F7FF90EF9012
:10077000DF90CF90BF90AF909F908F900895089595
:1007800080E090E00895009761F0FC010190002066
:10079000E9F73197AF01481B590BBC0187E293E0A1
:1007A00075CD80E090E00895CF93DF93ECDFEC010E
:1007B00088E192E0E8DF8C0F9D1FDF91CF910895D3
:1007C0008BE192E0F1DF61E084E014DF61E085E03D
:1007D00011DF61E086E00EDF61E083E00BCFCF93B5
:1007E000DF93FC01448155816081718187E293E050
:1007F0004DDDEC0188E192E0C6DF8C0F9D1FDF919B
:10080000CF9108958F929F92AF92BF92CF92DF9235
:10081000EF92FF920F931F93CF93DF93CDB7DEB785
:10082000A1970FB6F894DEBF0FBECDBF6C01990F34
:10083000EE08FF08F7FE28C06DE287E293E0B8DD1E
:100840008C0122273327A9012C193D094E095F0984
:1008500019A2CE0181967C019AE0892E912CA12CBF
:10086000B12CCA01B901A5019401F5D3605DF7016E
:1008700062937F01211531054105510591F7CF01A3
:1008800082DF080F191F1CC0A701960119A28E0153
:100890000F5D1F4F8AE0C82ED12CE12CF12CCA012C
:1008A000B901A7019601D7D3605DF80162938F016A
:1008B000211531054105510591F7CF0164DF8C0108
:1008C00088E192E060DF800F911FA1960FB6F89447
:1008D000DEBF0FBECDBFDF91CF911F910F91FF9073
:1008E000EF90DF90CF90BF90AF909F908F90089542
:1008F000FC018091C8039091C903892B21F421E068
:10090000309749F412C08091C4039091C503309789
:1009100031F421E0FC018081882339F005C0BF015A
:10092000D2D521E0892B09F020E0822F08950F9382
:100930001F93CF93DF93EC0188819981009729F071
:100940002A813B812617370780F48B016F5F7F4F29
:10095000CDD4009761F0998388831B830A832C810F
:100960003D81232B11F4FC01108281E001C080E065
:10097000DF91CF911F910F910895EF92FF920F9306
:100980001F93CF93DF936115710511F480E01AC0B6
:1009900041155105B1F07B01EC018C819D818A01EB
:1009A000080F191FB801CE01C2DF882379F328810F
:1009B00039818C819D81B701820F931F8DD51D8355
:1009C0000C8381E0DF91CF911F910F91FF90EF9009
:1009D0000895CF93DF93EC0188819981009709F006
:1009E000FCD3198218821D821C821B821A82DF911D
:1009F000CF910895EF92FF920F931F93CF93DF93C0
:100A0000EC017B018A01BA0192DF811103C0CE01A2
:100A1000E0DF06C01D830C83B701888199815CD516
:100A2000CE01DF91CF911F910F91FF90EF9008952C
:100A3000EF92FF920F931F93CF93DF93CDB7DEB763
:100A400062970FB6F894DEBF0FBECDBF8C01CB010D
:100A5000F8011182108213821282158214824AE0F8
:100A60009E012F5F3F4F7901B901C2D2F70101907A
:100A70000020E9F73197AF014E195F09B701C801AE
:100A8000B9DF62960FB6F894DEBF0FBECDBFDF911F
:100A9000CF911F910F91FF90EF900895FC0111826B
:100AA000108213821282158214826115710549F039
:100AB000FB0101900020E9F73197AF01461B570B6E
:100AC00099CF0895F3D41F920F920FB60F9211246D
:100AD0000BB60F922F933F934F935F936F937F9338
:100AE0008F939F93AF93BF93EF93FF9387E293E02E
:100AF0003DDCFF91EF91BF91AF919F918F917F91DD
:100B00006F915F914F913F912F910F900BBE0F907E
:100B10000FBE0F901F9018951F920F920FB60F9255
:100B200011240BB60F922F938F939F93EF93FF9304
:100B3000E0913703F09138038081E0913D03F0911B
:100B40003E0382FD12C09081809140038F5F8F73BE
:100B500020914103821751F0E0914003F0E0E95DFC
:100B6000FC4F958F8093400301C08081FF91EF91EE
:100B70009F918F912F910F900BBE0F900FBE0F90F2
:100B80001F9018951F920F920FB60F9211242F935A
:100B90003F938F939F93AF93BF9380911F03909147
:100BA0002003A0912103B091220330911E0323E082
:100BB000230F2D3720F40196A11DB11D05C026E895
:100BC000230F0296A11DB11D20931E0380931F03C6
:100BD00090932003A0932103B093220380912303D9
:100BE00090912403A0912503B09126030196A11DA5
:100BF000B11D8093230390932403A0932503B09306
:100C00002603BF91AF919F918F913F912F910F90AC
:100C10000FBE0F901F9018951F920F920FB60F9254
:100C200011240F900FBE0F901F901895E7E2F3E08C
:100C30001382128288EE93E0A0E0B0E08483958373
:100C4000A683B7838AE092E09183808385EC90E06D
:100C50009587848784EC90E09787868780EC90E086
:100C6000918B808B81EC90E0938B828B82EC90E077
:100C7000958B848B86EC90E0978B868B118E128EF1
:100C8000138E148E62E372E084EC93E007CFCF936F
:100C9000DF93CDB7DEB72C970FB6F894DEBF0FBE4B
:100CA000CDBF789484B5826084BD84B5816084BDF5
:100CB00085B5826085BD85B5816085BD80916E00FA
:100CC000816080936E00109281008091810082602B
:100CD0008093810080918100816080938100809168
:100CE00080008160809380008091B1008460809357
:100CF000B1008091B00081608093B000809191003C
:100D00008260809391008091910081608093910036
:100D1000809190008160809390008091A10082601A
:100D20008093A1008091A10081608093A1008091B7
:100D3000A00081608093A000809121018260809357
:100D40002101809121018160809321018091200106
:100D500081608093200180917A00846080937A0082
:100D600080917A00826080937A0080917A0081601D
:100D700080937A0080917A00806880937A00109244
:100D8000C100E0913703F091380382E08083E09165
:100D90003303F09134031082E0913503F091360370
:100DA0008FEC808310923F03E0913B03F0913C0372
:100DB00086E08083E0913903F0913A03808180617D
:100DC0008083E0913903F0913A03808188608083C9
:100DD000E0913903F0913A03808180688083E0914B
:100DE0003903F0913A0380818F7D8083E9DC61E0F3
:100DF00084E02EDC61E085E02BDC61E086E028DC2D
:100E000061E083E025DC62E089E022DC62E08CE0E6
:100E10001FDC62E08DE01CDC62E08EE219DC62E047
:100E20008FE216DC61E080E313DC61E080E3E2DB6B
:100E300089E392E0B9DC8EE2B5DB892B09F064C06E
:100E400087E492E0A0DC8CE0ADDB019749F560E03F
:100E500084E0D0DB61E085E0CDDB8CE0A3DB8CE0DF
:100E6000A1DBBC01CE010196E3DD63E572E0CE01BA
:100E7000079614DE4D815E8169817A81CE010796E5
:100E80007CDD811103C0CE010796A3DDCE0107965C
:100E9000A6DC8F819885A1D189819A819ED1D3CFFB
:100EA0008EE692E081DC8CDC00E010E082E392E0F0
:100EB0001FDD8823B9F060E086E09CDB61E083E021
:100EC00099DB89E06FDB892B89F723DC0F5F1F4FEC
:100ED00084EA92E058DCC80195DC0530110534F352
:100EE0006FDCE4CF8EE792E05FDC8DE992E04BDCD3
:100EF000C80188DC60E080E37DDB44E050E064EB27
:100F000072E084EC93E076DD8FE24CDB892B09F014
:100F100068C089EB92E048DC00E010E084EB92E0EE
:100F2000E7DC8823B9F061E086E064DB60E083E021
:100F300061DB89E037DB892B89F7EBDB0F5F1F4F24
:100F400084EA92E020DCC8015DDC0530110534F351
:100F500037DCE4CF8CEC92E027DC84EA92E013DC0F
:100F6000C80150DC2DDC8DE01DDB019749F561E007
:100F700084E040DB60E085E03DDB8DE013DB8DE06D
:100F800011DBBC01CE01019653DD6DEE72E0CE01A6
:100F9000079684DD4D815E8169817A81CE01079655
:100FA000ECDC811103C0CE01079613DDCE0107965C
:100FB00016DC8F81988511D189819A810ED1D3CF8A
:100FC00089E093E0F1DB8CEC92E0EEDBF9DB61E0B1
:100FD00080E310DB46E050E062E372E084EC93E0F3
:100FE00009DD53DA28CF8091C4039091C503F5C081
:100FF000BB274A3031F4992322F4BDE290958195C4
:101000009F4F01C0BB27FB015527AA27880F991FB7
:10101000AA1FA41710F0A41B83955051B9F7A05D27
:10102000AA3308F0A95DA193009779F7B111B193A4
:101030001192CB0100C0DC01FC01672F7191772375
:10104000E1F7329704C07C916D9370836291AE1783
:10105000BF07C8F30895A1E21A2EAA1BBB1BFD010E
:101060000DC0AA1FBB1FEE1FFF1FA217B307E40787
:10107000F50720F0A21BB30BE40BF50B661F771FDF
:10108000881F991F1A9469F76095709580959095BF
:101090009B01AC01BD01CF010895EE0FFF1F881F1A
:1010A0008BBF0790F691E02D19940F931F93CF9368
:1010B000DF938230910510F482E090E0E091CC0360
:1010C000F091CD0320E030E0A0E0B0E0309719F1DE
:1010D000408151810281138148175907C8F0841754
:1010E000950769F4109731F012960C9312971396A6
:1010F0001C9327C00093CC031093CD0322C021156D
:10110000310519F04217530718F49A01BD01EF0198
:10111000DF01F801DBCF21153105F9F0281B390B70
:101120002430310580F48A819B816115710521F09D
:10113000FB019383828304C09093CD038093CC03FF
:10114000FE01329644C0FE01E20FF31F819391939A
:1011500022503109398328833AC02091CA03309143
:10116000CB03232B41F420910202309103023093F0
:10117000CB032093CA032091000230910102211574
:10118000310541F42DB73EB740910402509105025C
:10119000241B350BE091CA03F091CB03E217F30750
:1011A000A0F42E1B3F0B2817390778F0AC014E5FD7
:1011B0005F4F2417350748F04E0F5F1F5093CB0346
:1011C0004093CA038193919302C0E0E0F0E0CF0125
:1011D000DF91CF911F910F910895CF93DF930097E7
:1011E00009F481C0FC01329713821282A091CC03D2
:1011F000B091CD03109781F420813181820F931F2C
:101200002091CA033091CB032817390751F5F09389
:10121000CB03E093CA0367C0ED0120E030E0CE17B6
:10122000DF0740F44A815B819E0141155105F1F0D1
:10123000EA01F5CFD383C28340815181840F951F8A
:10124000C817D90759F488819981840F951F029690
:10125000918380838A819B819383828321153105C9
:1012600029F4F093CD03E093CC033DC0E901FB8367
:10127000EA8349915991C40FD51FEC17FD0761F41A
:1012800080819181840F951F0296E901998388835B
:10129000828193819B838A83E0E0F0E012968D91B6
:1012A0009C911397009719F0FD01DC01F7CF8D9108
:1012B0009C9111979D012E5F3F4F820F931F2091AC
:1012C000CA033091CB032817390769F4309729F402
:1012D0001092CD031092CC0302C013821282B093FD
:1012E000CB03A093CA03DF91CF9108956F927F92B1
:1012F0008F929F92AF92BF92CF92DF92EF92FF9226
:101300000F931F93CF93DF93009781F4CB01DF916D
:10131000CF911F910F91FF90EF90DF90CF90BF90F2
:10132000AF909F908F907F906F90BFCEFC01E60FA3
:10133000F71F9C0122503109E217F30708F4A5C0FA
:10134000EC01D9010D911C91119706171707A8F010
:101350000530110508F497C0C80104978617970750
:1013600008F491C002501109061B170B0193119349
:101370006D937C93CF0131DF86C05B01A01AB10A67
:101380004C01800E911EA091CC03B091CD03612C35
:10139000712CE12CF12C109709F446C08D919C9191
:1013A0001197A815B905B1F56C0142E0C40ED11C26
:1013B000CA14DB0478F14C018A189B08640142E0EE
:1013C000C40ED11C1296BC9012971396AC91B5E046
:1013D000CB16D10440F0B282A38391828082D901DE
:1013E0006D937C9309C00E5F1F4F800F911FF90111
:1013F00091838083EB2DFA2FE114F10431F0D701B2
:101400001396FC93EE9312973EC0F093CD03E093B6
:10141000CC0339C06816790608F43C017D011296A8
:101420000D90BC91A02DB7CF8091CA039091CB03B2
:1014300088169906E1F466167706C8F480910002D2
:1014400090910102009741F48DB79EB7409104023C
:1014500050910502841B950BE817F907B0F4F0933F
:10146000CB03E093CA03F901718360830CC0CB0105
:101470001CDE7C01009749F0A801BE011BD0CE0103
:10148000ACDEC70104C0CE0102C080E090E0DF9175
:10149000CF911F910F91FF90EF90DF90CF90BF9071
:1014A000AF909F908F907F906F90089581E090E033
:1014B000F89419C0FB01DC0102C001900D9241506B
:1014C0005040D8F70895FB01DC018D9101908019FF
:1014D0000110D9F3990B0895FB01DC0101900D92E5
:1014E0000020E1F7089511E0C5E1D1E000E005C07A
:1014F000802FFE01D2DD2196011DC631D10780E08B
:081500000807B1F7F894FFCFD2
:101508000000CE03800000000000D80146017001F1
:101518002402A1017F0193010D0A002020496E6970
:101528007469616C6973696E672072656C6179733F
:101538002000636C6F7365640020206578697420EF
:1015480073657475702000726563656976656420DB
:101558004F530057616974696E6720666F72204641
:101568006C617020746F206F70656E202000466C6F
:101578006170206E6F77206F70656E2020002020CC
:10158800656E64206F662073687574746572206F69
:1015980070656E20726F7574696E652000656E6483
:1015A800696E672052657620636F756E7420697363
:1015B800203A20006F70656E002020636C6F73699D
:1015C8006E67207368757474657220002020656EDC
:1015D80064206F66207368757474657220636C6F1D
:1015E80073656420726F7574696E65200020576199
:1015F8006974696E6720666F7220666C617020740A
:101608006F20636C6F7365200020466C6170206EDC
:0C1618006F7720636C6F73656420000026
:00000001FF
